{
	"contracts/Course.sol": {
		"Course": {
			"abi": [
				{
					"inputs": [
						{
							"internalType": "string",
							"name": "_name",
							"type": "string"
						},
						{
							"internalType": "uint256",
							"name": "_pinPosition",
							"type": "uint256"
						},
						{
							"internalType": "uint256",
							"name": "_rating",
							"type": "uint256"
						},
						{
							"internalType": "uint256",
							"name": "_holeNumber",
							"type": "uint256"
						}
					],
					"name": "addHole",
					"outputs": [],
					"stateMutability": "nonpayable",
					"type": "function"
				},
				{
					"inputs": [
						{
							"internalType": "uint256",
							"name": "",
							"type": "uint256"
						}
					],
					"name": "hole",
					"outputs": [
						{
							"internalType": "string",
							"name": "name",
							"type": "string"
						},
						{
							"internalType": "uint256",
							"name": "pinPosition",
							"type": "uint256"
						},
						{
							"internalType": "uint256",
							"name": "rating",
							"type": "uint256"
						},
						{
							"internalType": "uint256",
							"name": "holeNumber",
							"type": "uint256"
						}
					],
					"stateMutability": "view",
					"type": "function"
				},
				{
					"inputs": [],
					"name": "name",
					"outputs": [
						{
							"internalType": "uint256",
							"name": "",
							"type": "uint256"
						}
					],
					"stateMutability": "view",
					"type": "function"
				},
				{
					"inputs": [],
					"name": "owner",
					"outputs": [
						{
							"internalType": "uint256",
							"name": "",
							"type": "uint256"
						}
					],
					"stateMutability": "view",
					"type": "function"
				},
				{
					"inputs": [
						{
							"internalType": "string",
							"name": "",
							"type": "string"
						}
					],
					"name": "pinPositionToRating",
					"outputs": [
						{
							"internalType": "uint256",
							"name": "",
							"type": "uint256"
						}
					],
					"stateMutability": "view",
					"type": "function"
				}
			],
			"devdoc": {
				"kind": "dev",
				"methods": {},
				"title": "Course contract",
				"version": 1
			},
			"evm": {
				"assembly": "    /* \"contracts/Course.sol\":165:701  contract Course {\r... */\n  mstore(0x40, 0x80)\n  callvalue\n  dup1\n  iszero\n  tag_1\n  jumpi\n  0x00\n  dup1\n  revert\ntag_1:\n  pop\n  dataSize(sub_0)\n  dup1\n  dataOffset(sub_0)\n  0x00\n  codecopy\n  0x00\n  return\nstop\n\nsub_0: assembly {\n        /* \"contracts/Course.sol\":165:701  contract Course {\r... */\n      mstore(0x40, 0x80)\n      callvalue\n      dup1\n      iszero\n      tag_1\n      jumpi\n      0x00\n      dup1\n      revert\n    tag_1:\n      pop\n      jumpi(tag_2, lt(calldatasize, 0x04))\n      shr(0xe0, calldataload(0x00))\n      dup1\n      0x06fdde03\n      eq\n      tag_3\n      jumpi\n      dup1\n      0x8da5cb5b\n      eq\n      tag_4\n      jumpi\n      dup1\n      0x9c40480d\n      eq\n      tag_5\n      jumpi\n      dup1\n      0x9cb8ad21\n      eq\n      tag_6\n      jumpi\n      dup1\n      0x9d2614e5\n      eq\n      tag_7\n      jumpi\n    tag_2:\n      0x00\n      dup1\n      revert\n        /* \"contracts/Course.sol\":190:209  uint256 public name */\n    tag_3:\n      tag_8\n      tag_9\n      jump\t// in\n    tag_8:\n      mload(0x40)\n      tag_10\n      swap2\n      swap1\n      tag_11\n      jump\t// in\n    tag_10:\n      mload(0x40)\n      dup1\n      swap2\n      sub\n      swap1\n      return\n        /* \"contracts/Course.sol\":216:236  uint256 public owner */\n    tag_4:\n      tag_12\n      tag_13\n      jump\t// in\n    tag_12:\n      mload(0x40)\n      tag_14\n      swap2\n      swap1\n      tag_11\n      jump\t// in\n    tag_14:\n      mload(0x40)\n      dup1\n      swap2\n      sub\n      swap1\n      return\n        /* \"contracts/Course.sol\":470:694  function addHole(\r... */\n    tag_5:\n      tag_15\n      0x04\n      dup1\n      calldatasize\n      sub\n      dup2\n      add\n      swap1\n      tag_16\n      swap2\n      swap1\n      tag_17\n      jump\t// in\n    tag_16:\n      tag_18\n      jump\t// in\n    tag_15:\n      stop\n        /* \"contracts/Course.sol\":272:325  mapping(string => uint256) public pinPositionToRating */\n    tag_6:\n      tag_19\n      0x04\n      dup1\n      calldatasize\n      sub\n      dup2\n      add\n      swap1\n      tag_20\n      swap2\n      swap1\n      tag_21\n      jump\t// in\n    tag_20:\n      tag_22\n      jump\t// in\n    tag_19:\n      mload(0x40)\n      tag_23\n      swap2\n      swap1\n      tag_11\n      jump\t// in\n    tag_23:\n      mload(0x40)\n      dup1\n      swap2\n      sub\n      swap1\n      return\n        /* \"contracts/Course.sol\":245:263  Hole[] public hole */\n    tag_7:\n      tag_24\n      0x04\n      dup1\n      calldatasize\n      sub\n      dup2\n      add\n      swap1\n      tag_25\n      swap2\n      swap1\n      tag_26\n      jump\t// in\n    tag_25:\n      tag_27\n      jump\t// in\n    tag_24:\n      mload(0x40)\n      tag_28\n      swap5\n      swap4\n      swap3\n      swap2\n      swap1\n      tag_29\n      jump\t// in\n    tag_28:\n      mload(0x40)\n      dup1\n      swap2\n      sub\n      swap1\n      return\n        /* \"contracts/Course.sol\":190:209  uint256 public name */\n    tag_9:\n      sload(0x00)\n      dup2\n      jump\t// out\n        /* \"contracts/Course.sol\":216:236  uint256 public owner */\n    tag_13:\n      sload(0x01)\n      dup2\n      jump\t// out\n        /* \"contracts/Course.sol\":470:694  function addHole(\r... */\n    tag_18:\n        /* \"contracts/Course.sol\":628:632  hole */\n      0x02\n        /* \"contracts/Course.sol\":638:685  Hole(_name, _pinPosition, _rating, _holeNumber) */\n      mload(0x40)\n      dup1\n      0x80\n      add\n      0x40\n      mstore\n      dup1\n        /* \"contracts/Course.sol\":643:648  _name */\n      dup7\n        /* \"contracts/Course.sol\":638:685  Hole(_name, _pinPosition, _rating, _holeNumber) */\n      dup2\n      mstore\n      0x20\n      add\n        /* \"contracts/Course.sol\":650:662  _pinPosition */\n      dup6\n        /* \"contracts/Course.sol\":638:685  Hole(_name, _pinPosition, _rating, _holeNumber) */\n      dup2\n      mstore\n      0x20\n      add\n        /* \"contracts/Course.sol\":664:671  _rating */\n      dup5\n        /* \"contracts/Course.sol\":638:685  Hole(_name, _pinPosition, _rating, _holeNumber) */\n      dup2\n      mstore\n      0x20\n      add\n        /* \"contracts/Course.sol\":673:684  _holeNumber */\n      dup4\n        /* \"contracts/Course.sol\":638:685  Hole(_name, _pinPosition, _rating, _holeNumber) */\n      dup2\n      mstore\n      pop\n        /* \"contracts/Course.sol\":628:686  hole.push(Hole(_name, _pinPosition, _rating, _holeNumber)) */\n      swap1\n      dup1\n      0x01\n      dup2\n      sload\n      add\n      dup1\n      dup3\n      sstore\n      dup1\n      swap2\n      pop\n      pop\n      0x01\n      swap1\n      sub\n      swap1\n      0x00\n      mstore\n      keccak256(0x00, 0x20)\n      swap1\n      0x04\n      mul\n      add\n      0x00\n      swap1\n      swap2\n      swap1\n      swap2\n      swap1\n      swap2\n      pop\n      0x00\n      dup3\n      add\n      mload\n      dup2\n      0x00\n      add\n      swap1\n      dup1\n      mload\n      swap1\n      0x20\n      add\n      swap1\n      tag_32\n      swap3\n      swap2\n      swap1\n      tag_33\n      jump\t// in\n    tag_32:\n      pop\n      0x20\n      dup3\n      add\n      mload\n      dup2\n      0x01\n      add\n      sstore\n      0x40\n      dup3\n      add\n      mload\n      dup2\n      0x02\n      add\n      sstore\n      0x60\n      dup3\n      add\n      mload\n      dup2\n      0x03\n      add\n      sstore\n      pop\n      pop\n        /* \"contracts/Course.sol\":470:694  function addHole(\r... */\n      pop\n      pop\n      pop\n      pop\n      jump\t// out\n        /* \"contracts/Course.sol\":272:325  mapping(string => uint256) public pinPositionToRating */\n    tag_22:\n      0x03\n      dup2\n      dup1\n      mload\n      0x20\n      dup2\n      add\n      dup3\n      add\n      dup1\n      mload\n      dup5\n      dup3\n      mstore\n      0x20\n      dup4\n      add\n      0x20\n      dup6\n      add\n      keccak256\n      dup2\n      dup4\n      mstore\n      dup1\n      swap6\n      pop\n      pop\n      pop\n      pop\n      pop\n      pop\n      0x00\n      swap2\n      pop\n      swap1\n      pop\n      sload\n      dup2\n      jump\t// out\n        /* \"contracts/Course.sol\":245:263  Hole[] public hole */\n    tag_27:\n      0x02\n      dup2\n      dup2\n      sload\n      dup2\n      lt\n      tag_34\n      jumpi\n      0x00\n      dup1\n      revert\n    tag_34:\n      swap1\n      0x00\n      mstore\n      keccak256(0x00, 0x20)\n      swap1\n      0x04\n      mul\n      add\n      0x00\n      swap2\n      pop\n      swap1\n      pop\n      dup1\n      0x00\n      add\n      dup1\n      sload\n      tag_36\n      swap1\n      tag_37\n      jump\t// in\n    tag_36:\n      dup1\n      0x1f\n      add\n      0x20\n      dup1\n      swap2\n      div\n      mul\n      0x20\n      add\n      mload(0x40)\n      swap1\n      dup2\n      add\n      0x40\n      mstore\n      dup1\n      swap3\n      swap2\n      swap1\n      dup2\n      dup2\n      mstore\n      0x20\n      add\n      dup3\n      dup1\n      sload\n      tag_38\n      swap1\n      tag_37\n      jump\t// in\n    tag_38:\n      dup1\n      iszero\n      tag_39\n      jumpi\n      dup1\n      0x1f\n      lt\n      tag_40\n      jumpi\n      0x0100\n      dup1\n      dup4\n      sload\n      div\n      mul\n      dup4\n      mstore\n      swap2\n      0x20\n      add\n      swap2\n      jump(tag_39)\n    tag_40:\n      dup3\n      add\n      swap2\n      swap1\n      0x00\n      mstore\n      keccak256(0x00, 0x20)\n      swap1\n    tag_41:\n      dup2\n      sload\n      dup2\n      mstore\n      swap1\n      0x01\n      add\n      swap1\n      0x20\n      add\n      dup1\n      dup4\n      gt\n      tag_41\n      jumpi\n      dup3\n      swap1\n      sub\n      0x1f\n      and\n      dup3\n      add\n      swap2\n    tag_39:\n      pop\n      pop\n      pop\n      pop\n      pop\n      swap1\n      dup1\n      0x01\n      add\n      sload\n      swap1\n      dup1\n      0x02\n      add\n      sload\n      swap1\n      dup1\n      0x03\n      add\n      sload\n      swap1\n      pop\n      dup5\n      jump\t// out\n    tag_33:\n      dup3\n      dup1\n      sload\n      tag_42\n      swap1\n      tag_37\n      jump\t// in\n    tag_42:\n      swap1\n      0x00\n      mstore\n      keccak256(0x00, 0x20)\n      swap1\n      0x1f\n      add\n      0x20\n      swap1\n      div\n      dup2\n      add\n      swap3\n      dup3\n      tag_44\n      jumpi\n      0x00\n      dup6\n      sstore\n      jump(tag_43)\n    tag_44:\n      dup3\n      0x1f\n      lt\n      tag_45\n      jumpi\n      dup1\n      mload\n      not(0xff)\n      and\n      dup4\n      dup1\n      add\n      or\n      dup6\n      sstore\n      jump(tag_43)\n    tag_45:\n      dup3\n      dup1\n      add\n      0x01\n      add\n      dup6\n      sstore\n      dup3\n      iszero\n      tag_43\n      jumpi\n      swap2\n      dup3\n      add\n    tag_46:\n      dup3\n      dup2\n      gt\n      iszero\n      tag_47\n      jumpi\n      dup3\n      mload\n      dup3\n      sstore\n      swap2\n      0x20\n      add\n      swap2\n      swap1\n      0x01\n      add\n      swap1\n      jump(tag_46)\n    tag_47:\n    tag_43:\n      pop\n      swap1\n      pop\n      tag_48\n      swap2\n      swap1\n      tag_49\n      jump\t// in\n    tag_48:\n      pop\n      swap1\n      jump\t// out\n    tag_49:\n    tag_50:\n      dup1\n      dup3\n      gt\n      iszero\n      tag_51\n      jumpi\n      0x00\n      dup2\n      0x00\n      swap1\n      sstore\n      pop\n      0x01\n      add\n      jump(tag_50)\n    tag_51:\n      pop\n      swap1\n      jump\t// out\n        /* \"#utility.yul\":7:419   */\n    tag_53:\n        /* \"#utility.yul\":85:90   */\n      0x00\n        /* \"#utility.yul\":110:176   */\n      tag_55\n        /* \"#utility.yul\":126:175   */\n      tag_56\n        /* \"#utility.yul\":168:174   */\n      dup5\n        /* \"#utility.yul\":126:175   */\n      tag_57\n      jump\t// in\n    tag_56:\n        /* \"#utility.yul\":110:176   */\n      tag_58\n      jump\t// in\n    tag_55:\n        /* \"#utility.yul\":101:176   */\n      swap1\n      pop\n        /* \"#utility.yul\":199:205   */\n      dup3\n        /* \"#utility.yul\":192:197   */\n      dup2\n        /* \"#utility.yul\":185:206   */\n      mstore\n        /* \"#utility.yul\":237:241   */\n      0x20\n        /* \"#utility.yul\":230:235   */\n      dup2\n        /* \"#utility.yul\":226:242   */\n      add\n        /* \"#utility.yul\":275:278   */\n      dup5\n        /* \"#utility.yul\":266:272   */\n      dup5\n        /* \"#utility.yul\":261:264   */\n      dup5\n        /* \"#utility.yul\":257:273   */\n      add\n        /* \"#utility.yul\":254:279   */\n      gt\n        /* \"#utility.yul\":251:363   */\n      iszero\n      tag_59\n      jumpi\n        /* \"#utility.yul\":282:361   */\n      tag_60\n      tag_61\n      jump\t// in\n    tag_60:\n        /* \"#utility.yul\":251:363   */\n    tag_59:\n        /* \"#utility.yul\":372:413   */\n      tag_62\n        /* \"#utility.yul\":406:412   */\n      dup5\n        /* \"#utility.yul\":401:404   */\n      dup3\n        /* \"#utility.yul\":396:399   */\n      dup6\n        /* \"#utility.yul\":372:413   */\n      tag_63\n      jump\t// in\n    tag_62:\n        /* \"#utility.yul\":91:419   */\n      pop\n        /* \"#utility.yul\":7:419   */\n      swap4\n      swap3\n      pop\n      pop\n      pop\n      jump\t// out\n        /* \"#utility.yul\":439:779   */\n    tag_64:\n        /* \"#utility.yul\":495:500   */\n      0x00\n        /* \"#utility.yul\":544:547   */\n      dup3\n        /* \"#utility.yul\":537:541   */\n      0x1f\n        /* \"#utility.yul\":529:535   */\n      dup4\n        /* \"#utility.yul\":525:542   */\n      add\n        /* \"#utility.yul\":521:548   */\n      slt\n        /* \"#utility.yul\":511:633   */\n      tag_66\n      jumpi\n        /* \"#utility.yul\":552:631   */\n      tag_67\n      tag_68\n      jump\t// in\n    tag_67:\n        /* \"#utility.yul\":511:633   */\n    tag_66:\n        /* \"#utility.yul\":669:675   */\n      dup2\n        /* \"#utility.yul\":656:676   */\n      calldataload\n        /* \"#utility.yul\":694:773   */\n      tag_69\n        /* \"#utility.yul\":769:772   */\n      dup5\n        /* \"#utility.yul\":761:767   */\n      dup3\n        /* \"#utility.yul\":754:758   */\n      0x20\n        /* \"#utility.yul\":746:752   */\n      dup7\n        /* \"#utility.yul\":742:759   */\n      add\n        /* \"#utility.yul\":694:773   */\n      tag_53\n      jump\t// in\n    tag_69:\n        /* \"#utility.yul\":685:773   */\n      swap2\n      pop\n        /* \"#utility.yul\":501:779   */\n      pop\n        /* \"#utility.yul\":439:779   */\n      swap3\n      swap2\n      pop\n      pop\n      jump\t// out\n        /* \"#utility.yul\":785:924   */\n    tag_70:\n        /* \"#utility.yul\":831:836   */\n      0x00\n        /* \"#utility.yul\":869:875   */\n      dup2\n        /* \"#utility.yul\":856:876   */\n      calldataload\n        /* \"#utility.yul\":847:876   */\n      swap1\n      pop\n        /* \"#utility.yul\":885:918   */\n      tag_72\n        /* \"#utility.yul\":912:917   */\n      dup2\n        /* \"#utility.yul\":885:918   */\n      tag_73\n      jump\t// in\n    tag_72:\n        /* \"#utility.yul\":785:924   */\n      swap3\n      swap2\n      pop\n      pop\n      jump\t// out\n        /* \"#utility.yul\":930:1439   */\n    tag_21:\n        /* \"#utility.yul\":999:1005   */\n      0x00\n        /* \"#utility.yul\":1048:1050   */\n      0x20\n        /* \"#utility.yul\":1036:1045   */\n      dup3\n        /* \"#utility.yul\":1027:1034   */\n      dup5\n        /* \"#utility.yul\":1023:1046   */\n      sub\n        /* \"#utility.yul\":1019:1051   */\n      slt\n        /* \"#utility.yul\":1016:1135   */\n      iszero\n      tag_75\n      jumpi\n        /* \"#utility.yul\":1054:1133   */\n      tag_76\n      tag_77\n      jump\t// in\n    tag_76:\n        /* \"#utility.yul\":1016:1135   */\n    tag_75:\n        /* \"#utility.yul\":1202:1203   */\n      0x00\n        /* \"#utility.yul\":1191:1200   */\n      dup3\n        /* \"#utility.yul\":1187:1204   */\n      add\n        /* \"#utility.yul\":1174:1205   */\n      calldataload\n        /* \"#utility.yul\":1232:1250   */\n      0xffffffffffffffff\n        /* \"#utility.yul\":1224:1230   */\n      dup2\n        /* \"#utility.yul\":1221:1251   */\n      gt\n        /* \"#utility.yul\":1218:1335   */\n      iszero\n      tag_78\n      jumpi\n        /* \"#utility.yul\":1254:1333   */\n      tag_79\n      tag_80\n      jump\t// in\n    tag_79:\n        /* \"#utility.yul\":1218:1335   */\n    tag_78:\n        /* \"#utility.yul\":1359:1422   */\n      tag_81\n        /* \"#utility.yul\":1414:1421   */\n      dup5\n        /* \"#utility.yul\":1405:1411   */\n      dup3\n        /* \"#utility.yul\":1394:1403   */\n      dup6\n        /* \"#utility.yul\":1390:1412   */\n      add\n        /* \"#utility.yul\":1359:1422   */\n      tag_64\n      jump\t// in\n    tag_81:\n        /* \"#utility.yul\":1349:1422   */\n      swap2\n      pop\n        /* \"#utility.yul\":1145:1432   */\n      pop\n        /* \"#utility.yul\":930:1439   */\n      swap3\n      swap2\n      pop\n      pop\n      jump\t// out\n        /* \"#utility.yul\":1445:2390   */\n    tag_17:\n        /* \"#utility.yul\":1541:1547   */\n      0x00\n        /* \"#utility.yul\":1549:1555   */\n      dup1\n        /* \"#utility.yul\":1557:1563   */\n      0x00\n        /* \"#utility.yul\":1565:1571   */\n      dup1\n        /* \"#utility.yul\":1614:1617   */\n      0x80\n        /* \"#utility.yul\":1602:1611   */\n      dup6\n        /* \"#utility.yul\":1593:1600   */\n      dup8\n        /* \"#utility.yul\":1589:1612   */\n      sub\n        /* \"#utility.yul\":1585:1618   */\n      slt\n        /* \"#utility.yul\":1582:1702   */\n      iszero\n      tag_83\n      jumpi\n        /* \"#utility.yul\":1621:1700   */\n      tag_84\n      tag_77\n      jump\t// in\n    tag_84:\n        /* \"#utility.yul\":1582:1702   */\n    tag_83:\n        /* \"#utility.yul\":1769:1770   */\n      0x00\n        /* \"#utility.yul\":1758:1767   */\n      dup6\n        /* \"#utility.yul\":1754:1771   */\n      add\n        /* \"#utility.yul\":1741:1772   */\n      calldataload\n        /* \"#utility.yul\":1799:1817   */\n      0xffffffffffffffff\n        /* \"#utility.yul\":1791:1797   */\n      dup2\n        /* \"#utility.yul\":1788:1818   */\n      gt\n        /* \"#utility.yul\":1785:1902   */\n      iszero\n      tag_85\n      jumpi\n        /* \"#utility.yul\":1821:1900   */\n      tag_86\n      tag_80\n      jump\t// in\n    tag_86:\n        /* \"#utility.yul\":1785:1902   */\n    tag_85:\n        /* \"#utility.yul\":1926:1989   */\n      tag_87\n        /* \"#utility.yul\":1981:1988   */\n      dup8\n        /* \"#utility.yul\":1972:1978   */\n      dup3\n        /* \"#utility.yul\":1961:1970   */\n      dup9\n        /* \"#utility.yul\":1957:1979   */\n      add\n        /* \"#utility.yul\":1926:1989   */\n      tag_64\n      jump\t// in\n    tag_87:\n        /* \"#utility.yul\":1916:1989   */\n      swap5\n      pop\n        /* \"#utility.yul\":1712:1999   */\n      pop\n        /* \"#utility.yul\":2038:2040   */\n      0x20\n        /* \"#utility.yul\":2064:2117   */\n      tag_88\n        /* \"#utility.yul\":2109:2116   */\n      dup8\n        /* \"#utility.yul\":2100:2106   */\n      dup3\n        /* \"#utility.yul\":2089:2098   */\n      dup9\n        /* \"#utility.yul\":2085:2107   */\n      add\n        /* \"#utility.yul\":2064:2117   */\n      tag_70\n      jump\t// in\n    tag_88:\n        /* \"#utility.yul\":2054:2117   */\n      swap4\n      pop\n        /* \"#utility.yul\":2009:2127   */\n      pop\n        /* \"#utility.yul\":2166:2168   */\n      0x40\n        /* \"#utility.yul\":2192:2245   */\n      tag_89\n        /* \"#utility.yul\":2237:2244   */\n      dup8\n        /* \"#utility.yul\":2228:2234   */\n      dup3\n        /* \"#utility.yul\":2217:2226   */\n      dup9\n        /* \"#utility.yul\":2213:2235   */\n      add\n        /* \"#utility.yul\":2192:2245   */\n      tag_70\n      jump\t// in\n    tag_89:\n        /* \"#utility.yul\":2182:2245   */\n      swap3\n      pop\n        /* \"#utility.yul\":2137:2255   */\n      pop\n        /* \"#utility.yul\":2294:2296   */\n      0x60\n        /* \"#utility.yul\":2320:2373   */\n      tag_90\n        /* \"#utility.yul\":2365:2372   */\n      dup8\n        /* \"#utility.yul\":2356:2362   */\n      dup3\n        /* \"#utility.yul\":2345:2354   */\n      dup9\n        /* \"#utility.yul\":2341:2363   */\n      add\n        /* \"#utility.yul\":2320:2373   */\n      tag_70\n      jump\t// in\n    tag_90:\n        /* \"#utility.yul\":2310:2373   */\n      swap2\n      pop\n        /* \"#utility.yul\":2265:2383   */\n      pop\n        /* \"#utility.yul\":1445:2390   */\n      swap3\n      swap6\n      swap2\n      swap5\n      pop\n      swap3\n      pop\n      jump\t// out\n        /* \"#utility.yul\":2396:2725   */\n    tag_26:\n        /* \"#utility.yul\":2455:2461   */\n      0x00\n        /* \"#utility.yul\":2504:2506   */\n      0x20\n        /* \"#utility.yul\":2492:2501   */\n      dup3\n        /* \"#utility.yul\":2483:2490   */\n      dup5\n        /* \"#utility.yul\":2479:2502   */\n      sub\n        /* \"#utility.yul\":2475:2507   */\n      slt\n        /* \"#utility.yul\":2472:2591   */\n      iszero\n      tag_92\n      jumpi\n        /* \"#utility.yul\":2510:2589   */\n      tag_93\n      tag_77\n      jump\t// in\n    tag_93:\n        /* \"#utility.yul\":2472:2591   */\n    tag_92:\n        /* \"#utility.yul\":2630:2631   */\n      0x00\n        /* \"#utility.yul\":2655:2708   */\n      tag_94\n        /* \"#utility.yul\":2700:2707   */\n      dup5\n        /* \"#utility.yul\":2691:2697   */\n      dup3\n        /* \"#utility.yul\":2680:2689   */\n      dup6\n        /* \"#utility.yul\":2676:2698   */\n      add\n        /* \"#utility.yul\":2655:2708   */\n      tag_70\n      jump\t// in\n    tag_94:\n        /* \"#utility.yul\":2645:2708   */\n      swap2\n      pop\n        /* \"#utility.yul\":2601:2718   */\n      pop\n        /* \"#utility.yul\":2396:2725   */\n      swap3\n      swap2\n      pop\n      pop\n      jump\t// out\n        /* \"#utility.yul\":2731:3095   */\n    tag_95:\n        /* \"#utility.yul\":2819:2822   */\n      0x00\n        /* \"#utility.yul\":2847:2886   */\n      tag_97\n        /* \"#utility.yul\":2880:2885   */\n      dup3\n        /* \"#utility.yul\":2847:2886   */\n      tag_98\n      jump\t// in\n    tag_97:\n        /* \"#utility.yul\":2902:2973   */\n      tag_99\n        /* \"#utility.yul\":2966:2972   */\n      dup2\n        /* \"#utility.yul\":2961:2964   */\n      dup6\n        /* \"#utility.yul\":2902:2973   */\n      tag_100\n      jump\t// in\n    tag_99:\n        /* \"#utility.yul\":2895:2973   */\n      swap4\n      pop\n        /* \"#utility.yul\":2982:3034   */\n      tag_101\n        /* \"#utility.yul\":3027:3033   */\n      dup2\n        /* \"#utility.yul\":3022:3025   */\n      dup6\n        /* \"#utility.yul\":3015:3019   */\n      0x20\n        /* \"#utility.yul\":3008:3013   */\n      dup7\n        /* \"#utility.yul\":3004:3020   */\n      add\n        /* \"#utility.yul\":2982:3034   */\n      tag_102\n      jump\t// in\n    tag_101:\n        /* \"#utility.yul\":3059:3088   */\n      tag_103\n        /* \"#utility.yul\":3081:3087   */\n      dup2\n        /* \"#utility.yul\":3059:3088   */\n      tag_104\n      jump\t// in\n    tag_103:\n        /* \"#utility.yul\":3054:3057   */\n      dup5\n        /* \"#utility.yul\":3050:3089   */\n      add\n        /* \"#utility.yul\":3043:3089   */\n      swap2\n      pop\n        /* \"#utility.yul\":2823:3095   */\n      pop\n        /* \"#utility.yul\":2731:3095   */\n      swap3\n      swap2\n      pop\n      pop\n      jump\t// out\n        /* \"#utility.yul\":3101:3219   */\n    tag_105:\n        /* \"#utility.yul\":3188:3212   */\n      tag_107\n        /* \"#utility.yul\":3206:3211   */\n      dup2\n        /* \"#utility.yul\":3188:3212   */\n      tag_108\n      jump\t// in\n    tag_107:\n        /* \"#utility.yul\":3183:3186   */\n      dup3\n        /* \"#utility.yul\":3176:3213   */\n      mstore\n        /* \"#utility.yul\":3101:3219   */\n      pop\n      pop\n      jump\t// out\n        /* \"#utility.yul\":3225:3869   */\n    tag_29:\n        /* \"#utility.yul\":3422:3426   */\n      0x00\n        /* \"#utility.yul\":3460:3463   */\n      0x80\n        /* \"#utility.yul\":3449:3458   */\n      dup3\n        /* \"#utility.yul\":3445:3464   */\n      add\n        /* \"#utility.yul\":3437:3464   */\n      swap1\n      pop\n        /* \"#utility.yul\":3510:3519   */\n      dup2\n        /* \"#utility.yul\":3504:3508   */\n      dup2\n        /* \"#utility.yul\":3500:3520   */\n      sub\n        /* \"#utility.yul\":3496:3497   */\n      0x00\n        /* \"#utility.yul\":3485:3494   */\n      dup4\n        /* \"#utility.yul\":3481:3498   */\n      add\n        /* \"#utility.yul\":3474:3521   */\n      mstore\n        /* \"#utility.yul\":3538:3616   */\n      tag_110\n        /* \"#utility.yul\":3611:3615   */\n      dup2\n        /* \"#utility.yul\":3602:3608   */\n      dup8\n        /* \"#utility.yul\":3538:3616   */\n      tag_95\n      jump\t// in\n    tag_110:\n        /* \"#utility.yul\":3530:3616   */\n      swap1\n      pop\n        /* \"#utility.yul\":3626:3698   */\n      tag_111\n        /* \"#utility.yul\":3694:3696   */\n      0x20\n        /* \"#utility.yul\":3683:3692   */\n      dup4\n        /* \"#utility.yul\":3679:3697   */\n      add\n        /* \"#utility.yul\":3670:3676   */\n      dup7\n        /* \"#utility.yul\":3626:3698   */\n      tag_105\n      jump\t// in\n    tag_111:\n        /* \"#utility.yul\":3708:3780   */\n      tag_112\n        /* \"#utility.yul\":3776:3778   */\n      0x40\n        /* \"#utility.yul\":3765:3774   */\n      dup4\n        /* \"#utility.yul\":3761:3779   */\n      add\n        /* \"#utility.yul\":3752:3758   */\n      dup6\n        /* \"#utility.yul\":3708:3780   */\n      tag_105\n      jump\t// in\n    tag_112:\n        /* \"#utility.yul\":3790:3862   */\n      tag_113\n        /* \"#utility.yul\":3858:3860   */\n      0x60\n        /* \"#utility.yul\":3847:3856   */\n      dup4\n        /* \"#utility.yul\":3843:3861   */\n      add\n        /* \"#utility.yul\":3834:3840   */\n      dup5\n        /* \"#utility.yul\":3790:3862   */\n      tag_105\n      jump\t// in\n    tag_113:\n        /* \"#utility.yul\":3225:3869   */\n      swap6\n      swap5\n      pop\n      pop\n      pop\n      pop\n      pop\n      jump\t// out\n        /* \"#utility.yul\":3875:4097   */\n    tag_11:\n        /* \"#utility.yul\":3968:3972   */\n      0x00\n        /* \"#utility.yul\":4006:4008   */\n      0x20\n        /* \"#utility.yul\":3995:4004   */\n      dup3\n        /* \"#utility.yul\":3991:4009   */\n      add\n        /* \"#utility.yul\":3983:4009   */\n      swap1\n      pop\n        /* \"#utility.yul\":4019:4090   */\n      tag_115\n        /* \"#utility.yul\":4087:4088   */\n      0x00\n        /* \"#utility.yul\":4076:4085   */\n      dup4\n        /* \"#utility.yul\":4072:4089   */\n      add\n        /* \"#utility.yul\":4063:4069   */\n      dup5\n        /* \"#utility.yul\":4019:4090   */\n      tag_105\n      jump\t// in\n    tag_115:\n        /* \"#utility.yul\":3875:4097   */\n      swap3\n      swap2\n      pop\n      pop\n      jump\t// out\n        /* \"#utility.yul\":4103:4232   */\n    tag_58:\n        /* \"#utility.yul\":4137:4143   */\n      0x00\n        /* \"#utility.yul\":4164:4184   */\n      tag_117\n      tag_118\n      jump\t// in\n    tag_117:\n        /* \"#utility.yul\":4154:4184   */\n      swap1\n      pop\n        /* \"#utility.yul\":4193:4226   */\n      tag_119\n        /* \"#utility.yul\":4221:4225   */\n      dup3\n        /* \"#utility.yul\":4213:4219   */\n      dup3\n        /* \"#utility.yul\":4193:4226   */\n      tag_120\n      jump\t// in\n    tag_119:\n        /* \"#utility.yul\":4103:4232   */\n      swap2\n      swap1\n      pop\n      jump\t// out\n        /* \"#utility.yul\":4238:4313   */\n    tag_118:\n        /* \"#utility.yul\":4271:4277   */\n      0x00\n        /* \"#utility.yul\":4304:4306   */\n      0x40\n        /* \"#utility.yul\":4298:4307   */\n      mload\n        /* \"#utility.yul\":4288:4307   */\n      swap1\n      pop\n        /* \"#utility.yul\":4238:4313   */\n      swap1\n      jump\t// out\n        /* \"#utility.yul\":4319:4627   */\n    tag_57:\n        /* \"#utility.yul\":4381:4385   */\n      0x00\n        /* \"#utility.yul\":4471:4489   */\n      0xffffffffffffffff\n        /* \"#utility.yul\":4463:4469   */\n      dup3\n        /* \"#utility.yul\":4460:4490   */\n      gt\n        /* \"#utility.yul\":4457:4513   */\n      iszero\n      tag_123\n      jumpi\n        /* \"#utility.yul\":4493:4511   */\n      tag_124\n      tag_125\n      jump\t// in\n    tag_124:\n        /* \"#utility.yul\":4457:4513   */\n    tag_123:\n        /* \"#utility.yul\":4531:4560   */\n      tag_126\n        /* \"#utility.yul\":4553:4559   */\n      dup3\n        /* \"#utility.yul\":4531:4560   */\n      tag_104\n      jump\t// in\n    tag_126:\n        /* \"#utility.yul\":4523:4560   */\n      swap1\n      pop\n        /* \"#utility.yul\":4615:4619   */\n      0x20\n        /* \"#utility.yul\":4609:4613   */\n      dup2\n        /* \"#utility.yul\":4605:4620   */\n      add\n        /* \"#utility.yul\":4597:4620   */\n      swap1\n      pop\n        /* \"#utility.yul\":4319:4627   */\n      swap2\n      swap1\n      pop\n      jump\t// out\n        /* \"#utility.yul\":4633:4732   */\n    tag_98:\n        /* \"#utility.yul\":4685:4691   */\n      0x00\n        /* \"#utility.yul\":4719:4724   */\n      dup2\n        /* \"#utility.yul\":4713:4725   */\n      mload\n        /* \"#utility.yul\":4703:4725   */\n      swap1\n      pop\n        /* \"#utility.yul\":4633:4732   */\n      swap2\n      swap1\n      pop\n      jump\t// out\n        /* \"#utility.yul\":4738:4907   */\n    tag_100:\n        /* \"#utility.yul\":4822:4833   */\n      0x00\n        /* \"#utility.yul\":4856:4862   */\n      dup3\n        /* \"#utility.yul\":4851:4854   */\n      dup3\n        /* \"#utility.yul\":4844:4863   */\n      mstore\n        /* \"#utility.yul\":4896:4900   */\n      0x20\n        /* \"#utility.yul\":4891:4894   */\n      dup3\n        /* \"#utility.yul\":4887:4901   */\n      add\n        /* \"#utility.yul\":4872:4901   */\n      swap1\n      pop\n        /* \"#utility.yul\":4738:4907   */\n      swap3\n      swap2\n      pop\n      pop\n      jump\t// out\n        /* \"#utility.yul\":4913:4990   */\n    tag_108:\n        /* \"#utility.yul\":4950:4957   */\n      0x00\n        /* \"#utility.yul\":4979:4984   */\n      dup2\n        /* \"#utility.yul\":4968:4984   */\n      swap1\n      pop\n        /* \"#utility.yul\":4913:4990   */\n      swap2\n      swap1\n      pop\n      jump\t// out\n        /* \"#utility.yul\":4996:5150   */\n    tag_63:\n        /* \"#utility.yul\":5080:5086   */\n      dup3\n        /* \"#utility.yul\":5075:5078   */\n      dup2\n        /* \"#utility.yul\":5070:5073   */\n      dup4\n        /* \"#utility.yul\":5057:5087   */\n      calldatacopy\n        /* \"#utility.yul\":5142:5143   */\n      0x00\n        /* \"#utility.yul\":5133:5139   */\n      dup4\n        /* \"#utility.yul\":5128:5131   */\n      dup4\n        /* \"#utility.yul\":5124:5140   */\n      add\n        /* \"#utility.yul\":5117:5144   */\n      mstore\n        /* \"#utility.yul\":4996:5150   */\n      pop\n      pop\n      pop\n      jump\t// out\n        /* \"#utility.yul\":5156:5463   */\n    tag_102:\n        /* \"#utility.yul\":5224:5225   */\n      0x00\n        /* \"#utility.yul\":5234:5347   */\n    tag_132:\n        /* \"#utility.yul\":5248:5254   */\n      dup4\n        /* \"#utility.yul\":5245:5246   */\n      dup2\n        /* \"#utility.yul\":5242:5255   */\n      lt\n        /* \"#utility.yul\":5234:5347   */\n      iszero\n      tag_134\n      jumpi\n        /* \"#utility.yul\":5333:5334   */\n      dup1\n        /* \"#utility.yul\":5328:5331   */\n      dup3\n        /* \"#utility.yul\":5324:5335   */\n      add\n        /* \"#utility.yul\":5318:5336   */\n      mload\n        /* \"#utility.yul\":5314:5315   */\n      dup2\n        /* \"#utility.yul\":5309:5312   */\n      dup5\n        /* \"#utility.yul\":5305:5316   */\n      add\n        /* \"#utility.yul\":5298:5337   */\n      mstore\n        /* \"#utility.yul\":5270:5272   */\n      0x20\n        /* \"#utility.yul\":5267:5268   */\n      dup2\n        /* \"#utility.yul\":5263:5273   */\n      add\n        /* \"#utility.yul\":5258:5273   */\n      swap1\n      pop\n        /* \"#utility.yul\":5234:5347   */\n      jump(tag_132)\n    tag_134:\n        /* \"#utility.yul\":5365:5371   */\n      dup4\n        /* \"#utility.yul\":5362:5363   */\n      dup2\n        /* \"#utility.yul\":5359:5372   */\n      gt\n        /* \"#utility.yul\":5356:5457   */\n      iszero\n      tag_135\n      jumpi\n        /* \"#utility.yul\":5445:5446   */\n      0x00\n        /* \"#utility.yul\":5436:5442   */\n      dup5\n        /* \"#utility.yul\":5431:5434   */\n      dup5\n        /* \"#utility.yul\":5427:5443   */\n      add\n        /* \"#utility.yul\":5420:5447   */\n      mstore\n        /* \"#utility.yul\":5356:5457   */\n    tag_135:\n        /* \"#utility.yul\":5205:5463   */\n      pop\n        /* \"#utility.yul\":5156:5463   */\n      pop\n      pop\n      pop\n      jump\t// out\n        /* \"#utility.yul\":5469:5789   */\n    tag_37:\n        /* \"#utility.yul\":5513:5519   */\n      0x00\n        /* \"#utility.yul\":5550:5551   */\n      0x02\n        /* \"#utility.yul\":5544:5548   */\n      dup3\n        /* \"#utility.yul\":5540:5552   */\n      div\n        /* \"#utility.yul\":5530:5552   */\n      swap1\n      pop\n        /* \"#utility.yul\":5597:5598   */\n      0x01\n        /* \"#utility.yul\":5591:5595   */\n      dup3\n        /* \"#utility.yul\":5587:5599   */\n      and\n        /* \"#utility.yul\":5618:5636   */\n      dup1\n        /* \"#utility.yul\":5608:5689   */\n      tag_137\n      jumpi\n        /* \"#utility.yul\":5674:5678   */\n      0x7f\n        /* \"#utility.yul\":5666:5672   */\n      dup3\n        /* \"#utility.yul\":5662:5679   */\n      and\n        /* \"#utility.yul\":5652:5679   */\n      swap2\n      pop\n        /* \"#utility.yul\":5608:5689   */\n    tag_137:\n        /* \"#utility.yul\":5736:5738   */\n      0x20\n        /* \"#utility.yul\":5728:5734   */\n      dup3\n        /* \"#utility.yul\":5725:5739   */\n      lt\n        /* \"#utility.yul\":5705:5723   */\n      dup2\n        /* \"#utility.yul\":5702:5740   */\n      eq\n        /* \"#utility.yul\":5699:5783   */\n      iszero\n      tag_138\n      jumpi\n        /* \"#utility.yul\":5755:5773   */\n      tag_139\n      tag_140\n      jump\t// in\n    tag_139:\n        /* \"#utility.yul\":5699:5783   */\n    tag_138:\n        /* \"#utility.yul\":5520:5789   */\n      pop\n        /* \"#utility.yul\":5469:5789   */\n      swap2\n      swap1\n      pop\n      jump\t// out\n        /* \"#utility.yul\":5795:6076   */\n    tag_120:\n        /* \"#utility.yul\":5878:5905   */\n      tag_142\n        /* \"#utility.yul\":5900:5904   */\n      dup3\n        /* \"#utility.yul\":5878:5905   */\n      tag_104\n      jump\t// in\n    tag_142:\n        /* \"#utility.yul\":5870:5876   */\n      dup2\n        /* \"#utility.yul\":5866:5906   */\n      add\n        /* \"#utility.yul\":6008:6014   */\n      dup2\n        /* \"#utility.yul\":5996:6006   */\n      dup2\n        /* \"#utility.yul\":5993:6015   */\n      lt\n        /* \"#utility.yul\":5972:5990   */\n      0xffffffffffffffff\n        /* \"#utility.yul\":5960:5970   */\n      dup3\n        /* \"#utility.yul\":5957:5991   */\n      gt\n        /* \"#utility.yul\":5954:6016   */\n      or\n        /* \"#utility.yul\":5951:6039   */\n      iszero\n      tag_143\n      jumpi\n        /* \"#utility.yul\":6019:6037   */\n      tag_144\n      tag_125\n      jump\t// in\n    tag_144:\n        /* \"#utility.yul\":5951:6039   */\n    tag_143:\n        /* \"#utility.yul\":6059:6069   */\n      dup1\n        /* \"#utility.yul\":6055:6057   */\n      0x40\n        /* \"#utility.yul\":6048:6070   */\n      mstore\n        /* \"#utility.yul\":5838:6076   */\n      pop\n        /* \"#utility.yul\":5795:6076   */\n      pop\n      pop\n      jump\t// out\n        /* \"#utility.yul\":6082:6262   */\n    tag_140:\n        /* \"#utility.yul\":6130:6207   */\n      0x4e487b7100000000000000000000000000000000000000000000000000000000\n        /* \"#utility.yul\":6127:6128   */\n      0x00\n        /* \"#utility.yul\":6120:6208   */\n      mstore\n        /* \"#utility.yul\":6227:6231   */\n      0x22\n        /* \"#utility.yul\":6224:6225   */\n      0x04\n        /* \"#utility.yul\":6217:6232   */\n      mstore\n        /* \"#utility.yul\":6251:6255   */\n      0x24\n        /* \"#utility.yul\":6248:6249   */\n      0x00\n        /* \"#utility.yul\":6241:6256   */\n      revert\n        /* \"#utility.yul\":6268:6448   */\n    tag_125:\n        /* \"#utility.yul\":6316:6393   */\n      0x4e487b7100000000000000000000000000000000000000000000000000000000\n        /* \"#utility.yul\":6313:6314   */\n      0x00\n        /* \"#utility.yul\":6306:6394   */\n      mstore\n        /* \"#utility.yul\":6413:6417   */\n      0x41\n        /* \"#utility.yul\":6410:6411   */\n      0x04\n        /* \"#utility.yul\":6403:6418   */\n      mstore\n        /* \"#utility.yul\":6437:6441   */\n      0x24\n        /* \"#utility.yul\":6434:6435   */\n      0x00\n        /* \"#utility.yul\":6427:6442   */\n      revert\n        /* \"#utility.yul\":6454:6571   */\n    tag_68:\n        /* \"#utility.yul\":6563:6564   */\n      0x00\n        /* \"#utility.yul\":6560:6561   */\n      dup1\n        /* \"#utility.yul\":6553:6565   */\n      revert\n        /* \"#utility.yul\":6577:6694   */\n    tag_61:\n        /* \"#utility.yul\":6686:6687   */\n      0x00\n        /* \"#utility.yul\":6683:6684   */\n      dup1\n        /* \"#utility.yul\":6676:6688   */\n      revert\n        /* \"#utility.yul\":6700:6817   */\n    tag_80:\n        /* \"#utility.yul\":6809:6810   */\n      0x00\n        /* \"#utility.yul\":6806:6807   */\n      dup1\n        /* \"#utility.yul\":6799:6811   */\n      revert\n        /* \"#utility.yul\":6823:6940   */\n    tag_77:\n        /* \"#utility.yul\":6932:6933   */\n      0x00\n        /* \"#utility.yul\":6929:6930   */\n      dup1\n        /* \"#utility.yul\":6922:6934   */\n      revert\n        /* \"#utility.yul\":6946:7048   */\n    tag_104:\n        /* \"#utility.yul\":6987:6993   */\n      0x00\n        /* \"#utility.yul\":7038:7040   */\n      0x1f\n        /* \"#utility.yul\":7034:7041   */\n      not\n        /* \"#utility.yul\":7029:7031   */\n      0x1f\n        /* \"#utility.yul\":7022:7027   */\n      dup4\n        /* \"#utility.yul\":7018:7032   */\n      add\n        /* \"#utility.yul\":7014:7042   */\n      and\n        /* \"#utility.yul\":7004:7042   */\n      swap1\n      pop\n        /* \"#utility.yul\":6946:7048   */\n      swap2\n      swap1\n      pop\n      jump\t// out\n        /* \"#utility.yul\":7054:7176   */\n    tag_73:\n        /* \"#utility.yul\":7127:7151   */\n      tag_153\n        /* \"#utility.yul\":7145:7150   */\n      dup2\n        /* \"#utility.yul\":7127:7151   */\n      tag_108\n      jump\t// in\n    tag_153:\n        /* \"#utility.yul\":7120:7125   */\n      dup2\n        /* \"#utility.yul\":7117:7152   */\n      eq\n        /* \"#utility.yul\":7107:7170   */\n      tag_154\n      jumpi\n        /* \"#utility.yul\":7166:7167   */\n      0x00\n        /* \"#utility.yul\":7163:7164   */\n      dup1\n        /* \"#utility.yul\":7156:7168   */\n      revert\n        /* \"#utility.yul\":7107:7170   */\n    tag_154:\n        /* \"#utility.yul\":7054:7176   */\n      pop\n      jump\t// out\n\n    auxdata: 0xa26469706673582212207451593f1abd5006cb14ba88f9c132edd4958275443aacd5ad2f96dda7f4185f64736f6c63430008070033\n}\n",
				"bytecode": {
					"linkReferences": {},
					"object": "608060405234801561001057600080fd5b50610769806100206000396000f3fe608060405234801561001057600080fd5b50600436106100575760003560e01c806306fdde031461005c5780638da5cb5b1461007a5780639c40480d146100985780639cb8ad21146100b45780639d2614e5146100e4575b600080fd5b610064610117565b604051610071919061055d565b60405180910390f35b61008261011d565b60405161008f919061055d565b60405180910390f35b6100b260048036038101906100ad9190610419565b610123565b005b6100ce60048036038101906100c991906103d0565b6101b2565b6040516100db919061055d565b60405180910390f35b6100fe60048036038101906100f9919061049c565b6101e0565b60405161010e9493929190610511565b60405180910390f35b60005481565b60015481565b60026040518060800160405280868152602001858152602001848152602001838152509080600181540180825580915050600190039060005260206000209060040201600090919091909150600082015181600001908051906020019061018b9291906102a8565b50602082015181600101556040820151816002015560608201518160030155505050505050565b6003818051602081018201805184825260208301602085012081835280955050505050506000915090505481565b600281815481106101f057600080fd5b906000526020600020906004020160009150905080600001805461021390610636565b80601f016020809104026020016040519081016040528092919081815260200182805461023f90610636565b801561028c5780601f106102615761010080835404028352916020019161028c565b820191906000526020600020905b81548152906001019060200180831161026f57829003601f168201915b5050505050908060010154908060020154908060030154905084565b8280546102b490610636565b90600052602060002090601f0160209004810192826102d6576000855561031d565b82601f106102ef57805160ff191683800117855561031d565b8280016001018555821561031d579182015b8281111561031c578251825591602001919060010190610301565b5b50905061032a919061032e565b5090565b5b8082111561034757600081600090555060010161032f565b5090565b600061035e6103598461059d565b610578565b90508281526020810184848401111561037a576103796106fc565b5b6103858482856105f4565b509392505050565b600082601f8301126103a2576103a16106f7565b5b81356103b284826020860161034b565b91505092915050565b6000813590506103ca8161071c565b92915050565b6000602082840312156103e6576103e5610706565b5b600082013567ffffffffffffffff81111561040457610403610701565b5b6104108482850161038d565b91505092915050565b6000806000806080858703121561043357610432610706565b5b600085013567ffffffffffffffff81111561045157610450610701565b5b61045d8782880161038d565b945050602061046e878288016103bb565b935050604061047f878288016103bb565b9250506060610490878288016103bb565b91505092959194509250565b6000602082840312156104b2576104b1610706565b5b60006104c0848285016103bb565b91505092915050565b60006104d4826105ce565b6104de81856105d9565b93506104ee818560208601610603565b6104f78161070b565b840191505092915050565b61050b816105ea565b82525050565b6000608082019050818103600083015261052b81876104c9565b905061053a6020830186610502565b6105476040830185610502565b6105546060830184610502565b95945050505050565b60006020820190506105726000830184610502565b92915050565b6000610582610593565b905061058e8282610668565b919050565b6000604051905090565b600067ffffffffffffffff8211156105b8576105b76106c8565b5b6105c18261070b565b9050602081019050919050565b600081519050919050565b600082825260208201905092915050565b6000819050919050565b82818337600083830152505050565b60005b83811015610621578082015181840152602081019050610606565b83811115610630576000848401525b50505050565b6000600282049050600182168061064e57607f821691505b6020821081141561066257610661610699565b5b50919050565b6106718261070b565b810181811067ffffffffffffffff821117156106905761068f6106c8565b5b80604052505050565b7f4e487b7100000000000000000000000000000000000000000000000000000000600052602260045260246000fd5b7f4e487b7100000000000000000000000000000000000000000000000000000000600052604160045260246000fd5b600080fd5b600080fd5b600080fd5b600080fd5b6000601f19601f8301169050919050565b610725816105ea565b811461073057600080fd5b5056fea26469706673582212207451593f1abd5006cb14ba88f9c132edd4958275443aacd5ad2f96dda7f4185f64736f6c63430008070033",
					"opcodes": "PUSH1 0x80 PUSH1 0x40 MSTORE CALLVALUE DUP1 ISZERO PUSH2 0x10 JUMPI PUSH1 0x0 DUP1 REVERT JUMPDEST POP PUSH2 0x769 DUP1 PUSH2 0x20 PUSH1 0x0 CODECOPY PUSH1 0x0 RETURN INVALID PUSH1 0x80 PUSH1 0x40 MSTORE CALLVALUE DUP1 ISZERO PUSH2 0x10 JUMPI PUSH1 0x0 DUP1 REVERT JUMPDEST POP PUSH1 0x4 CALLDATASIZE LT PUSH2 0x57 JUMPI PUSH1 0x0 CALLDATALOAD PUSH1 0xE0 SHR DUP1 PUSH4 0x6FDDE03 EQ PUSH2 0x5C JUMPI DUP1 PUSH4 0x8DA5CB5B EQ PUSH2 0x7A JUMPI DUP1 PUSH4 0x9C40480D EQ PUSH2 0x98 JUMPI DUP1 PUSH4 0x9CB8AD21 EQ PUSH2 0xB4 JUMPI DUP1 PUSH4 0x9D2614E5 EQ PUSH2 0xE4 JUMPI JUMPDEST PUSH1 0x0 DUP1 REVERT JUMPDEST PUSH2 0x64 PUSH2 0x117 JUMP JUMPDEST PUSH1 0x40 MLOAD PUSH2 0x71 SWAP2 SWAP1 PUSH2 0x55D JUMP JUMPDEST PUSH1 0x40 MLOAD DUP1 SWAP2 SUB SWAP1 RETURN JUMPDEST PUSH2 0x82 PUSH2 0x11D JUMP JUMPDEST PUSH1 0x40 MLOAD PUSH2 0x8F SWAP2 SWAP1 PUSH2 0x55D JUMP JUMPDEST PUSH1 0x40 MLOAD DUP1 SWAP2 SUB SWAP1 RETURN JUMPDEST PUSH2 0xB2 PUSH1 0x4 DUP1 CALLDATASIZE SUB DUP2 ADD SWAP1 PUSH2 0xAD SWAP2 SWAP1 PUSH2 0x419 JUMP JUMPDEST PUSH2 0x123 JUMP JUMPDEST STOP JUMPDEST PUSH2 0xCE PUSH1 0x4 DUP1 CALLDATASIZE SUB DUP2 ADD SWAP1 PUSH2 0xC9 SWAP2 SWAP1 PUSH2 0x3D0 JUMP JUMPDEST PUSH2 0x1B2 JUMP JUMPDEST PUSH1 0x40 MLOAD PUSH2 0xDB SWAP2 SWAP1 PUSH2 0x55D JUMP JUMPDEST PUSH1 0x40 MLOAD DUP1 SWAP2 SUB SWAP1 RETURN JUMPDEST PUSH2 0xFE PUSH1 0x4 DUP1 CALLDATASIZE SUB DUP2 ADD SWAP1 PUSH2 0xF9 SWAP2 SWAP1 PUSH2 0x49C JUMP JUMPDEST PUSH2 0x1E0 JUMP JUMPDEST PUSH1 0x40 MLOAD PUSH2 0x10E SWAP5 SWAP4 SWAP3 SWAP2 SWAP1 PUSH2 0x511 JUMP JUMPDEST PUSH1 0x40 MLOAD DUP1 SWAP2 SUB SWAP1 RETURN JUMPDEST PUSH1 0x0 SLOAD DUP2 JUMP JUMPDEST PUSH1 0x1 SLOAD DUP2 JUMP JUMPDEST PUSH1 0x2 PUSH1 0x40 MLOAD DUP1 PUSH1 0x80 ADD PUSH1 0x40 MSTORE DUP1 DUP7 DUP2 MSTORE PUSH1 0x20 ADD DUP6 DUP2 MSTORE PUSH1 0x20 ADD DUP5 DUP2 MSTORE PUSH1 0x20 ADD DUP4 DUP2 MSTORE POP SWAP1 DUP1 PUSH1 0x1 DUP2 SLOAD ADD DUP1 DUP3 SSTORE DUP1 SWAP2 POP POP PUSH1 0x1 SWAP1 SUB SWAP1 PUSH1 0x0 MSTORE PUSH1 0x20 PUSH1 0x0 KECCAK256 SWAP1 PUSH1 0x4 MUL ADD PUSH1 0x0 SWAP1 SWAP2 SWAP1 SWAP2 SWAP1 SWAP2 POP PUSH1 0x0 DUP3 ADD MLOAD DUP2 PUSH1 0x0 ADD SWAP1 DUP1 MLOAD SWAP1 PUSH1 0x20 ADD SWAP1 PUSH2 0x18B SWAP3 SWAP2 SWAP1 PUSH2 0x2A8 JUMP JUMPDEST POP PUSH1 0x20 DUP3 ADD MLOAD DUP2 PUSH1 0x1 ADD SSTORE PUSH1 0x40 DUP3 ADD MLOAD DUP2 PUSH1 0x2 ADD SSTORE PUSH1 0x60 DUP3 ADD MLOAD DUP2 PUSH1 0x3 ADD SSTORE POP POP POP POP POP POP JUMP JUMPDEST PUSH1 0x3 DUP2 DUP1 MLOAD PUSH1 0x20 DUP2 ADD DUP3 ADD DUP1 MLOAD DUP5 DUP3 MSTORE PUSH1 0x20 DUP4 ADD PUSH1 0x20 DUP6 ADD KECCAK256 DUP2 DUP4 MSTORE DUP1 SWAP6 POP POP POP POP POP POP PUSH1 0x0 SWAP2 POP SWAP1 POP SLOAD DUP2 JUMP JUMPDEST PUSH1 0x2 DUP2 DUP2 SLOAD DUP2 LT PUSH2 0x1F0 JUMPI PUSH1 0x0 DUP1 REVERT JUMPDEST SWAP1 PUSH1 0x0 MSTORE PUSH1 0x20 PUSH1 0x0 KECCAK256 SWAP1 PUSH1 0x4 MUL ADD PUSH1 0x0 SWAP2 POP SWAP1 POP DUP1 PUSH1 0x0 ADD DUP1 SLOAD PUSH2 0x213 SWAP1 PUSH2 0x636 JUMP JUMPDEST DUP1 PUSH1 0x1F ADD PUSH1 0x20 DUP1 SWAP2 DIV MUL PUSH1 0x20 ADD PUSH1 0x40 MLOAD SWAP1 DUP2 ADD PUSH1 0x40 MSTORE DUP1 SWAP3 SWAP2 SWAP1 DUP2 DUP2 MSTORE PUSH1 0x20 ADD DUP3 DUP1 SLOAD PUSH2 0x23F SWAP1 PUSH2 0x636 JUMP JUMPDEST DUP1 ISZERO PUSH2 0x28C JUMPI DUP1 PUSH1 0x1F LT PUSH2 0x261 JUMPI PUSH2 0x100 DUP1 DUP4 SLOAD DIV MUL DUP4 MSTORE SWAP2 PUSH1 0x20 ADD SWAP2 PUSH2 0x28C JUMP JUMPDEST DUP3 ADD SWAP2 SWAP1 PUSH1 0x0 MSTORE PUSH1 0x20 PUSH1 0x0 KECCAK256 SWAP1 JUMPDEST DUP2 SLOAD DUP2 MSTORE SWAP1 PUSH1 0x1 ADD SWAP1 PUSH1 0x20 ADD DUP1 DUP4 GT PUSH2 0x26F JUMPI DUP3 SWAP1 SUB PUSH1 0x1F AND DUP3 ADD SWAP2 JUMPDEST POP POP POP POP POP SWAP1 DUP1 PUSH1 0x1 ADD SLOAD SWAP1 DUP1 PUSH1 0x2 ADD SLOAD SWAP1 DUP1 PUSH1 0x3 ADD SLOAD SWAP1 POP DUP5 JUMP JUMPDEST DUP3 DUP1 SLOAD PUSH2 0x2B4 SWAP1 PUSH2 0x636 JUMP JUMPDEST SWAP1 PUSH1 0x0 MSTORE PUSH1 0x20 PUSH1 0x0 KECCAK256 SWAP1 PUSH1 0x1F ADD PUSH1 0x20 SWAP1 DIV DUP2 ADD SWAP3 DUP3 PUSH2 0x2D6 JUMPI PUSH1 0x0 DUP6 SSTORE PUSH2 0x31D JUMP JUMPDEST DUP3 PUSH1 0x1F LT PUSH2 0x2EF JUMPI DUP1 MLOAD PUSH1 0xFF NOT AND DUP4 DUP1 ADD OR DUP6 SSTORE PUSH2 0x31D JUMP JUMPDEST DUP3 DUP1 ADD PUSH1 0x1 ADD DUP6 SSTORE DUP3 ISZERO PUSH2 0x31D JUMPI SWAP2 DUP3 ADD JUMPDEST DUP3 DUP2 GT ISZERO PUSH2 0x31C JUMPI DUP3 MLOAD DUP3 SSTORE SWAP2 PUSH1 0x20 ADD SWAP2 SWAP1 PUSH1 0x1 ADD SWAP1 PUSH2 0x301 JUMP JUMPDEST JUMPDEST POP SWAP1 POP PUSH2 0x32A SWAP2 SWAP1 PUSH2 0x32E JUMP JUMPDEST POP SWAP1 JUMP JUMPDEST JUMPDEST DUP1 DUP3 GT ISZERO PUSH2 0x347 JUMPI PUSH1 0x0 DUP2 PUSH1 0x0 SWAP1 SSTORE POP PUSH1 0x1 ADD PUSH2 0x32F JUMP JUMPDEST POP SWAP1 JUMP JUMPDEST PUSH1 0x0 PUSH2 0x35E PUSH2 0x359 DUP5 PUSH2 0x59D JUMP JUMPDEST PUSH2 0x578 JUMP JUMPDEST SWAP1 POP DUP3 DUP2 MSTORE PUSH1 0x20 DUP2 ADD DUP5 DUP5 DUP5 ADD GT ISZERO PUSH2 0x37A JUMPI PUSH2 0x379 PUSH2 0x6FC JUMP JUMPDEST JUMPDEST PUSH2 0x385 DUP5 DUP3 DUP6 PUSH2 0x5F4 JUMP JUMPDEST POP SWAP4 SWAP3 POP POP POP JUMP JUMPDEST PUSH1 0x0 DUP3 PUSH1 0x1F DUP4 ADD SLT PUSH2 0x3A2 JUMPI PUSH2 0x3A1 PUSH2 0x6F7 JUMP JUMPDEST JUMPDEST DUP2 CALLDATALOAD PUSH2 0x3B2 DUP5 DUP3 PUSH1 0x20 DUP7 ADD PUSH2 0x34B JUMP JUMPDEST SWAP2 POP POP SWAP3 SWAP2 POP POP JUMP JUMPDEST PUSH1 0x0 DUP2 CALLDATALOAD SWAP1 POP PUSH2 0x3CA DUP2 PUSH2 0x71C JUMP JUMPDEST SWAP3 SWAP2 POP POP JUMP JUMPDEST PUSH1 0x0 PUSH1 0x20 DUP3 DUP5 SUB SLT ISZERO PUSH2 0x3E6 JUMPI PUSH2 0x3E5 PUSH2 0x706 JUMP JUMPDEST JUMPDEST PUSH1 0x0 DUP3 ADD CALLDATALOAD PUSH8 0xFFFFFFFFFFFFFFFF DUP2 GT ISZERO PUSH2 0x404 JUMPI PUSH2 0x403 PUSH2 0x701 JUMP JUMPDEST JUMPDEST PUSH2 0x410 DUP5 DUP3 DUP6 ADD PUSH2 0x38D JUMP JUMPDEST SWAP2 POP POP SWAP3 SWAP2 POP POP JUMP JUMPDEST PUSH1 0x0 DUP1 PUSH1 0x0 DUP1 PUSH1 0x80 DUP6 DUP8 SUB SLT ISZERO PUSH2 0x433 JUMPI PUSH2 0x432 PUSH2 0x706 JUMP JUMPDEST JUMPDEST PUSH1 0x0 DUP6 ADD CALLDATALOAD PUSH8 0xFFFFFFFFFFFFFFFF DUP2 GT ISZERO PUSH2 0x451 JUMPI PUSH2 0x450 PUSH2 0x701 JUMP JUMPDEST JUMPDEST PUSH2 0x45D DUP8 DUP3 DUP9 ADD PUSH2 0x38D JUMP JUMPDEST SWAP5 POP POP PUSH1 0x20 PUSH2 0x46E DUP8 DUP3 DUP9 ADD PUSH2 0x3BB JUMP JUMPDEST SWAP4 POP POP PUSH1 0x40 PUSH2 0x47F DUP8 DUP3 DUP9 ADD PUSH2 0x3BB JUMP JUMPDEST SWAP3 POP POP PUSH1 0x60 PUSH2 0x490 DUP8 DUP3 DUP9 ADD PUSH2 0x3BB JUMP JUMPDEST SWAP2 POP POP SWAP3 SWAP6 SWAP2 SWAP5 POP SWAP3 POP JUMP JUMPDEST PUSH1 0x0 PUSH1 0x20 DUP3 DUP5 SUB SLT ISZERO PUSH2 0x4B2 JUMPI PUSH2 0x4B1 PUSH2 0x706 JUMP JUMPDEST JUMPDEST PUSH1 0x0 PUSH2 0x4C0 DUP5 DUP3 DUP6 ADD PUSH2 0x3BB JUMP JUMPDEST SWAP2 POP POP SWAP3 SWAP2 POP POP JUMP JUMPDEST PUSH1 0x0 PUSH2 0x4D4 DUP3 PUSH2 0x5CE JUMP JUMPDEST PUSH2 0x4DE DUP2 DUP6 PUSH2 0x5D9 JUMP JUMPDEST SWAP4 POP PUSH2 0x4EE DUP2 DUP6 PUSH1 0x20 DUP7 ADD PUSH2 0x603 JUMP JUMPDEST PUSH2 0x4F7 DUP2 PUSH2 0x70B JUMP JUMPDEST DUP5 ADD SWAP2 POP POP SWAP3 SWAP2 POP POP JUMP JUMPDEST PUSH2 0x50B DUP2 PUSH2 0x5EA JUMP JUMPDEST DUP3 MSTORE POP POP JUMP JUMPDEST PUSH1 0x0 PUSH1 0x80 DUP3 ADD SWAP1 POP DUP2 DUP2 SUB PUSH1 0x0 DUP4 ADD MSTORE PUSH2 0x52B DUP2 DUP8 PUSH2 0x4C9 JUMP JUMPDEST SWAP1 POP PUSH2 0x53A PUSH1 0x20 DUP4 ADD DUP7 PUSH2 0x502 JUMP JUMPDEST PUSH2 0x547 PUSH1 0x40 DUP4 ADD DUP6 PUSH2 0x502 JUMP JUMPDEST PUSH2 0x554 PUSH1 0x60 DUP4 ADD DUP5 PUSH2 0x502 JUMP JUMPDEST SWAP6 SWAP5 POP POP POP POP POP JUMP JUMPDEST PUSH1 0x0 PUSH1 0x20 DUP3 ADD SWAP1 POP PUSH2 0x572 PUSH1 0x0 DUP4 ADD DUP5 PUSH2 0x502 JUMP JUMPDEST SWAP3 SWAP2 POP POP JUMP JUMPDEST PUSH1 0x0 PUSH2 0x582 PUSH2 0x593 JUMP JUMPDEST SWAP1 POP PUSH2 0x58E DUP3 DUP3 PUSH2 0x668 JUMP JUMPDEST SWAP2 SWAP1 POP JUMP JUMPDEST PUSH1 0x0 PUSH1 0x40 MLOAD SWAP1 POP SWAP1 JUMP JUMPDEST PUSH1 0x0 PUSH8 0xFFFFFFFFFFFFFFFF DUP3 GT ISZERO PUSH2 0x5B8 JUMPI PUSH2 0x5B7 PUSH2 0x6C8 JUMP JUMPDEST JUMPDEST PUSH2 0x5C1 DUP3 PUSH2 0x70B JUMP JUMPDEST SWAP1 POP PUSH1 0x20 DUP2 ADD SWAP1 POP SWAP2 SWAP1 POP JUMP JUMPDEST PUSH1 0x0 DUP2 MLOAD SWAP1 POP SWAP2 SWAP1 POP JUMP JUMPDEST PUSH1 0x0 DUP3 DUP3 MSTORE PUSH1 0x20 DUP3 ADD SWAP1 POP SWAP3 SWAP2 POP POP JUMP JUMPDEST PUSH1 0x0 DUP2 SWAP1 POP SWAP2 SWAP1 POP JUMP JUMPDEST DUP3 DUP2 DUP4 CALLDATACOPY PUSH1 0x0 DUP4 DUP4 ADD MSTORE POP POP POP JUMP JUMPDEST PUSH1 0x0 JUMPDEST DUP4 DUP2 LT ISZERO PUSH2 0x621 JUMPI DUP1 DUP3 ADD MLOAD DUP2 DUP5 ADD MSTORE PUSH1 0x20 DUP2 ADD SWAP1 POP PUSH2 0x606 JUMP JUMPDEST DUP4 DUP2 GT ISZERO PUSH2 0x630 JUMPI PUSH1 0x0 DUP5 DUP5 ADD MSTORE JUMPDEST POP POP POP POP JUMP JUMPDEST PUSH1 0x0 PUSH1 0x2 DUP3 DIV SWAP1 POP PUSH1 0x1 DUP3 AND DUP1 PUSH2 0x64E JUMPI PUSH1 0x7F DUP3 AND SWAP2 POP JUMPDEST PUSH1 0x20 DUP3 LT DUP2 EQ ISZERO PUSH2 0x662 JUMPI PUSH2 0x661 PUSH2 0x699 JUMP JUMPDEST JUMPDEST POP SWAP2 SWAP1 POP JUMP JUMPDEST PUSH2 0x671 DUP3 PUSH2 0x70B JUMP JUMPDEST DUP2 ADD DUP2 DUP2 LT PUSH8 0xFFFFFFFFFFFFFFFF DUP3 GT OR ISZERO PUSH2 0x690 JUMPI PUSH2 0x68F PUSH2 0x6C8 JUMP JUMPDEST JUMPDEST DUP1 PUSH1 0x40 MSTORE POP POP POP JUMP JUMPDEST PUSH32 0x4E487B7100000000000000000000000000000000000000000000000000000000 PUSH1 0x0 MSTORE PUSH1 0x22 PUSH1 0x4 MSTORE PUSH1 0x24 PUSH1 0x0 REVERT JUMPDEST PUSH32 0x4E487B7100000000000000000000000000000000000000000000000000000000 PUSH1 0x0 MSTORE PUSH1 0x41 PUSH1 0x4 MSTORE PUSH1 0x24 PUSH1 0x0 REVERT JUMPDEST PUSH1 0x0 DUP1 REVERT JUMPDEST PUSH1 0x0 DUP1 REVERT JUMPDEST PUSH1 0x0 DUP1 REVERT JUMPDEST PUSH1 0x0 DUP1 REVERT JUMPDEST PUSH1 0x0 PUSH1 0x1F NOT PUSH1 0x1F DUP4 ADD AND SWAP1 POP SWAP2 SWAP1 POP JUMP JUMPDEST PUSH2 0x725 DUP2 PUSH2 0x5EA JUMP JUMPDEST DUP2 EQ PUSH2 0x730 JUMPI PUSH1 0x0 DUP1 REVERT JUMPDEST POP JUMP INVALID LOG2 PUSH5 0x6970667358 0x22 SLT KECCAK256 PUSH21 0x51593F1ABD5006CB14BA88F9C132EDD4958275443A 0xAC 0xD5 0xAD 0x2F SWAP7 0xDD 0xA7 DELEGATECALL XOR 0x5F PUSH5 0x736F6C6343 STOP ADDMOD SMOD STOP CALLER "
				},
				"gasEstimates": {
					"creation": {
						"codeDepositCost": "379400",
						"executionCost": "418",
						"totalCost": "379818"
					},
					"external": {
						"addHole(string,uint256,uint256,uint256)": "infinite",
						"hole(uint256)": "infinite",
						"name()": "2407",
						"owner()": "2429",
						"pinPositionToRating(string)": "infinite"
					}
				},
				"methodIdentifiers": {
					"addHole(string,uint256,uint256,uint256)": "9c40480d",
					"hole(uint256)": "9d2614e5",
					"name()": "06fdde03",
					"owner()": "8da5cb5b",
					"pinPositionToRating(string)": "9cb8ad21"
				}
			},
			"storageLayout": {
				"storage": [
					{
						"astId": 4,
						"contract": "contracts/Course.sol:Course",
						"label": "name",
						"offset": 0,
						"slot": "0",
						"type": "t_uint256"
					},
					{
						"astId": 6,
						"contract": "contracts/Course.sol:Course",
						"label": "owner",
						"offset": 0,
						"slot": "1",
						"type": "t_uint256"
					},
					{
						"astId": 10,
						"contract": "contracts/Course.sol:Course",
						"label": "hole",
						"offset": 0,
						"slot": "2",
						"type": "t_array(t_struct(Hole)23_storage)dyn_storage"
					},
					{
						"astId": 14,
						"contract": "contracts/Course.sol:Course",
						"label": "pinPositionToRating",
						"offset": 0,
						"slot": "3",
						"type": "t_mapping(t_string_memory_ptr,t_uint256)"
					}
				],
				"types": {
					"t_array(t_struct(Hole)23_storage)dyn_storage": {
						"base": "t_struct(Hole)23_storage",
						"encoding": "dynamic_array",
						"label": "struct Course.Hole[]",
						"numberOfBytes": "32"
					},
					"t_mapping(t_string_memory_ptr,t_uint256)": {
						"encoding": "mapping",
						"key": "t_string_memory_ptr",
						"label": "mapping(string => uint256)",
						"numberOfBytes": "32",
						"value": "t_uint256"
					},
					"t_string_memory_ptr": {
						"encoding": "bytes",
						"label": "string",
						"numberOfBytes": "32"
					},
					"t_string_storage": {
						"encoding": "bytes",
						"label": "string",
						"numberOfBytes": "32"
					},
					"t_struct(Hole)23_storage": {
						"encoding": "inplace",
						"label": "struct Course.Hole",
						"members": [
							{
								"astId": 16,
								"contract": "contracts/Course.sol:Course",
								"label": "name",
								"offset": 0,
								"slot": "0",
								"type": "t_string_storage"
							},
							{
								"astId": 18,
								"contract": "contracts/Course.sol:Course",
								"label": "pinPosition",
								"offset": 0,
								"slot": "1",
								"type": "t_uint256"
							},
							{
								"astId": 20,
								"contract": "contracts/Course.sol:Course",
								"label": "rating",
								"offset": 0,
								"slot": "2",
								"type": "t_uint256"
							},
							{
								"astId": 22,
								"contract": "contracts/Course.sol:Course",
								"label": "holeNumber",
								"offset": 0,
								"slot": "3",
								"type": "t_uint256"
							}
						],
						"numberOfBytes": "128"
					},
					"t_uint256": {
						"encoding": "inplace",
						"label": "uint256",
						"numberOfBytes": "32"
					}
				}
			},
			"userdoc": {
				"kind": "user",
				"methods": {},
				"notice": "A Course contract that holds a buleprint for a course",
				"version": 1
			}
		}
	}
}