{
	"contracts/Course.sol": {
		"Course": {
			"abi": [
				{
					"inputs": [
						{
							"internalType": "string",
							"name": "_name",
							"type": "string"
						},
						{
							"internalType": "uint256",
							"name": "_pinPosition",
							"type": "uint256"
						},
						{
							"internalType": "uint256",
							"name": "_rating",
							"type": "uint256"
						},
						{
							"internalType": "uint256",
							"name": "_holeNumber",
							"type": "uint256"
						}
					],
					"name": "addHole",
					"outputs": [],
					"stateMutability": "nonpayable",
					"type": "function"
				},
				{
					"inputs": [
						{
							"internalType": "uint256",
							"name": "",
							"type": "uint256"
						}
					],
					"name": "hole",
					"outputs": [
						{
							"internalType": "string",
							"name": "name",
							"type": "string"
						},
						{
							"internalType": "uint256",
							"name": "pinPosition",
							"type": "uint256"
						},
						{
							"internalType": "uint256",
							"name": "rating",
							"type": "uint256"
						},
						{
							"internalType": "uint256",
							"name": "holeNumber",
							"type": "uint256"
						}
					],
					"stateMutability": "view",
					"type": "function"
				},
				{
					"inputs": [],
					"name": "name",
					"outputs": [
						{
							"internalType": "uint256",
							"name": "",
							"type": "uint256"
						}
					],
					"stateMutability": "view",
					"type": "function"
				},
				{
					"inputs": [],
					"name": "owner",
					"outputs": [
						{
							"internalType": "uint256",
							"name": "",
							"type": "uint256"
						}
					],
					"stateMutability": "view",
					"type": "function"
				}
			],
			"devdoc": {
				"kind": "dev",
				"methods": {},
				"title": "Course contract",
				"version": 1
			},
			"evm": {
				"assembly": "    /* \"contracts/Course.sol\":165:572  contract Course {\r... */\n  mstore(0x40, 0x80)\n  callvalue\n  dup1\n  iszero\n  tag_1\n  jumpi\n  0x00\n  dup1\n  revert\ntag_1:\n  pop\n  dataSize(sub_0)\n  dup1\n  dataOffset(sub_0)\n  0x00\n  codecopy\n  0x00\n  return\nstop\n\nsub_0: assembly {\n        /* \"contracts/Course.sol\":165:572  contract Course {\r... */\n      mstore(0x40, 0x80)\n      callvalue\n      dup1\n      iszero\n      tag_1\n      jumpi\n      0x00\n      dup1\n      revert\n    tag_1:\n      pop\n      jumpi(tag_2, lt(calldatasize, 0x04))\n      shr(0xe0, calldataload(0x00))\n      dup1\n      0x06fdde03\n      eq\n      tag_3\n      jumpi\n      dup1\n      0x8da5cb5b\n      eq\n      tag_4\n      jumpi\n      dup1\n      0x9c40480d\n      eq\n      tag_5\n      jumpi\n      dup1\n      0x9d2614e5\n      eq\n      tag_6\n      jumpi\n    tag_2:\n      0x00\n      dup1\n      revert\n        /* \"contracts/Course.sol\":190:209  uint256 public name */\n    tag_3:\n      tag_7\n      tag_8\n      jump\t// in\n    tag_7:\n      mload(0x40)\n      tag_9\n      swap2\n      swap1\n      tag_10\n      jump\t// in\n    tag_9:\n      mload(0x40)\n      dup1\n      swap2\n      sub\n      swap1\n      return\n        /* \"contracts/Course.sol\":216:236  uint256 public owner */\n    tag_4:\n      tag_11\n      tag_12\n      jump\t// in\n    tag_11:\n      mload(0x40)\n      tag_13\n      swap2\n      swap1\n      tag_10\n      jump\t// in\n    tag_13:\n      mload(0x40)\n      dup1\n      swap2\n      sub\n      swap1\n      return\n        /* \"contracts/Course.sol\":408:565  function addHole(\r... */\n    tag_5:\n      tag_14\n      0x04\n      dup1\n      calldatasize\n      sub\n      dup2\n      add\n      swap1\n      tag_15\n      swap2\n      swap1\n      tag_16\n      jump\t// in\n    tag_15:\n      tag_17\n      jump\t// in\n    tag_14:\n      stop\n        /* \"contracts/Course.sol\":245:263  Hole[] public hole */\n    tag_6:\n      tag_18\n      0x04\n      dup1\n      calldatasize\n      sub\n      dup2\n      add\n      swap1\n      tag_19\n      swap2\n      swap1\n      tag_20\n      jump\t// in\n    tag_19:\n      tag_21\n      jump\t// in\n    tag_18:\n      mload(0x40)\n      tag_22\n      swap5\n      swap4\n      swap3\n      swap2\n      swap1\n      tag_23\n      jump\t// in\n    tag_22:\n      mload(0x40)\n      dup1\n      swap2\n      sub\n      swap1\n      return\n        /* \"contracts/Course.sol\":190:209  uint256 public name */\n    tag_8:\n      sload(0x00)\n      dup2\n      jump\t// out\n        /* \"contracts/Course.sol\":216:236  uint256 public owner */\n    tag_12:\n      sload(0x01)\n      dup2\n      jump\t// out\n        /* \"contracts/Course.sol\":408:565  function addHole(\r... */\n    tag_17:\n      pop\n      pop\n      pop\n      pop\n      jump\t// out\n        /* \"contracts/Course.sol\":245:263  Hole[] public hole */\n    tag_21:\n      0x02\n      dup2\n      dup2\n      sload\n      dup2\n      lt\n      tag_25\n      jumpi\n      0x00\n      dup1\n      revert\n    tag_25:\n      swap1\n      0x00\n      mstore\n      keccak256(0x00, 0x20)\n      swap1\n      0x04\n      mul\n      add\n      0x00\n      swap2\n      pop\n      swap1\n      pop\n      dup1\n      0x00\n      add\n      dup1\n      sload\n      tag_27\n      swap1\n      tag_28\n      jump\t// in\n    tag_27:\n      dup1\n      0x1f\n      add\n      0x20\n      dup1\n      swap2\n      div\n      mul\n      0x20\n      add\n      mload(0x40)\n      swap1\n      dup2\n      add\n      0x40\n      mstore\n      dup1\n      swap3\n      swap2\n      swap1\n      dup2\n      dup2\n      mstore\n      0x20\n      add\n      dup3\n      dup1\n      sload\n      tag_29\n      swap1\n      tag_28\n      jump\t// in\n    tag_29:\n      dup1\n      iszero\n      tag_30\n      jumpi\n      dup1\n      0x1f\n      lt\n      tag_31\n      jumpi\n      0x0100\n      dup1\n      dup4\n      sload\n      div\n      mul\n      dup4\n      mstore\n      swap2\n      0x20\n      add\n      swap2\n      jump(tag_30)\n    tag_31:\n      dup3\n      add\n      swap2\n      swap1\n      0x00\n      mstore\n      keccak256(0x00, 0x20)\n      swap1\n    tag_32:\n      dup2\n      sload\n      dup2\n      mstore\n      swap1\n      0x01\n      add\n      swap1\n      0x20\n      add\n      dup1\n      dup4\n      gt\n      tag_32\n      jumpi\n      dup3\n      swap1\n      sub\n      0x1f\n      and\n      dup3\n      add\n      swap2\n    tag_30:\n      pop\n      pop\n      pop\n      pop\n      pop\n      swap1\n      dup1\n      0x01\n      add\n      sload\n      swap1\n      dup1\n      0x02\n      add\n      sload\n      swap1\n      dup1\n      0x03\n      add\n      sload\n      swap1\n      pop\n      dup5\n      jump\t// out\n        /* \"#utility.yul\":7:419   */\n    tag_34:\n        /* \"#utility.yul\":85:90   */\n      0x00\n        /* \"#utility.yul\":110:176   */\n      tag_36\n        /* \"#utility.yul\":126:175   */\n      tag_37\n        /* \"#utility.yul\":168:174   */\n      dup5\n        /* \"#utility.yul\":126:175   */\n      tag_38\n      jump\t// in\n    tag_37:\n        /* \"#utility.yul\":110:176   */\n      tag_39\n      jump\t// in\n    tag_36:\n        /* \"#utility.yul\":101:176   */\n      swap1\n      pop\n        /* \"#utility.yul\":199:205   */\n      dup3\n        /* \"#utility.yul\":192:197   */\n      dup2\n        /* \"#utility.yul\":185:206   */\n      mstore\n        /* \"#utility.yul\":237:241   */\n      0x20\n        /* \"#utility.yul\":230:235   */\n      dup2\n        /* \"#utility.yul\":226:242   */\n      add\n        /* \"#utility.yul\":275:278   */\n      dup5\n        /* \"#utility.yul\":266:272   */\n      dup5\n        /* \"#utility.yul\":261:264   */\n      dup5\n        /* \"#utility.yul\":257:273   */\n      add\n        /* \"#utility.yul\":254:279   */\n      gt\n        /* \"#utility.yul\":251:363   */\n      iszero\n      tag_40\n      jumpi\n        /* \"#utility.yul\":282:361   */\n      tag_41\n      tag_42\n      jump\t// in\n    tag_41:\n        /* \"#utility.yul\":251:363   */\n    tag_40:\n        /* \"#utility.yul\":372:413   */\n      tag_43\n        /* \"#utility.yul\":406:412   */\n      dup5\n        /* \"#utility.yul\":401:404   */\n      dup3\n        /* \"#utility.yul\":396:399   */\n      dup6\n        /* \"#utility.yul\":372:413   */\n      tag_44\n      jump\t// in\n    tag_43:\n        /* \"#utility.yul\":91:419   */\n      pop\n        /* \"#utility.yul\":7:419   */\n      swap4\n      swap3\n      pop\n      pop\n      pop\n      jump\t// out\n        /* \"#utility.yul\":439:779   */\n    tag_45:\n        /* \"#utility.yul\":495:500   */\n      0x00\n        /* \"#utility.yul\":544:547   */\n      dup3\n        /* \"#utility.yul\":537:541   */\n      0x1f\n        /* \"#utility.yul\":529:535   */\n      dup4\n        /* \"#utility.yul\":525:542   */\n      add\n        /* \"#utility.yul\":521:548   */\n      slt\n        /* \"#utility.yul\":511:633   */\n      tag_47\n      jumpi\n        /* \"#utility.yul\":552:631   */\n      tag_48\n      tag_49\n      jump\t// in\n    tag_48:\n        /* \"#utility.yul\":511:633   */\n    tag_47:\n        /* \"#utility.yul\":669:675   */\n      dup2\n        /* \"#utility.yul\":656:676   */\n      calldataload\n        /* \"#utility.yul\":694:773   */\n      tag_50\n        /* \"#utility.yul\":769:772   */\n      dup5\n        /* \"#utility.yul\":761:767   */\n      dup3\n        /* \"#utility.yul\":754:758   */\n      0x20\n        /* \"#utility.yul\":746:752   */\n      dup7\n        /* \"#utility.yul\":742:759   */\n      add\n        /* \"#utility.yul\":694:773   */\n      tag_34\n      jump\t// in\n    tag_50:\n        /* \"#utility.yul\":685:773   */\n      swap2\n      pop\n        /* \"#utility.yul\":501:779   */\n      pop\n        /* \"#utility.yul\":439:779   */\n      swap3\n      swap2\n      pop\n      pop\n      jump\t// out\n        /* \"#utility.yul\":785:924   */\n    tag_51:\n        /* \"#utility.yul\":831:836   */\n      0x00\n        /* \"#utility.yul\":869:875   */\n      dup2\n        /* \"#utility.yul\":856:876   */\n      calldataload\n        /* \"#utility.yul\":847:876   */\n      swap1\n      pop\n        /* \"#utility.yul\":885:918   */\n      tag_53\n        /* \"#utility.yul\":912:917   */\n      dup2\n        /* \"#utility.yul\":885:918   */\n      tag_54\n      jump\t// in\n    tag_53:\n        /* \"#utility.yul\":785:924   */\n      swap3\n      swap2\n      pop\n      pop\n      jump\t// out\n        /* \"#utility.yul\":930:1875   */\n    tag_16:\n        /* \"#utility.yul\":1026:1032   */\n      0x00\n        /* \"#utility.yul\":1034:1040   */\n      dup1\n        /* \"#utility.yul\":1042:1048   */\n      0x00\n        /* \"#utility.yul\":1050:1056   */\n      dup1\n        /* \"#utility.yul\":1099:1102   */\n      0x80\n        /* \"#utility.yul\":1087:1096   */\n      dup6\n        /* \"#utility.yul\":1078:1085   */\n      dup8\n        /* \"#utility.yul\":1074:1097   */\n      sub\n        /* \"#utility.yul\":1070:1103   */\n      slt\n        /* \"#utility.yul\":1067:1187   */\n      iszero\n      tag_56\n      jumpi\n        /* \"#utility.yul\":1106:1185   */\n      tag_57\n      tag_58\n      jump\t// in\n    tag_57:\n        /* \"#utility.yul\":1067:1187   */\n    tag_56:\n        /* \"#utility.yul\":1254:1255   */\n      0x00\n        /* \"#utility.yul\":1243:1252   */\n      dup6\n        /* \"#utility.yul\":1239:1256   */\n      add\n        /* \"#utility.yul\":1226:1257   */\n      calldataload\n        /* \"#utility.yul\":1284:1302   */\n      0xffffffffffffffff\n        /* \"#utility.yul\":1276:1282   */\n      dup2\n        /* \"#utility.yul\":1273:1303   */\n      gt\n        /* \"#utility.yul\":1270:1387   */\n      iszero\n      tag_59\n      jumpi\n        /* \"#utility.yul\":1306:1385   */\n      tag_60\n      tag_61\n      jump\t// in\n    tag_60:\n        /* \"#utility.yul\":1270:1387   */\n    tag_59:\n        /* \"#utility.yul\":1411:1474   */\n      tag_62\n        /* \"#utility.yul\":1466:1473   */\n      dup8\n        /* \"#utility.yul\":1457:1463   */\n      dup3\n        /* \"#utility.yul\":1446:1455   */\n      dup9\n        /* \"#utility.yul\":1442:1464   */\n      add\n        /* \"#utility.yul\":1411:1474   */\n      tag_45\n      jump\t// in\n    tag_62:\n        /* \"#utility.yul\":1401:1474   */\n      swap5\n      pop\n        /* \"#utility.yul\":1197:1484   */\n      pop\n        /* \"#utility.yul\":1523:1525   */\n      0x20\n        /* \"#utility.yul\":1549:1602   */\n      tag_63\n        /* \"#utility.yul\":1594:1601   */\n      dup8\n        /* \"#utility.yul\":1585:1591   */\n      dup3\n        /* \"#utility.yul\":1574:1583   */\n      dup9\n        /* \"#utility.yul\":1570:1592   */\n      add\n        /* \"#utility.yul\":1549:1602   */\n      tag_51\n      jump\t// in\n    tag_63:\n        /* \"#utility.yul\":1539:1602   */\n      swap4\n      pop\n        /* \"#utility.yul\":1494:1612   */\n      pop\n        /* \"#utility.yul\":1651:1653   */\n      0x40\n        /* \"#utility.yul\":1677:1730   */\n      tag_64\n        /* \"#utility.yul\":1722:1729   */\n      dup8\n        /* \"#utility.yul\":1713:1719   */\n      dup3\n        /* \"#utility.yul\":1702:1711   */\n      dup9\n        /* \"#utility.yul\":1698:1720   */\n      add\n        /* \"#utility.yul\":1677:1730   */\n      tag_51\n      jump\t// in\n    tag_64:\n        /* \"#utility.yul\":1667:1730   */\n      swap3\n      pop\n        /* \"#utility.yul\":1622:1740   */\n      pop\n        /* \"#utility.yul\":1779:1781   */\n      0x60\n        /* \"#utility.yul\":1805:1858   */\n      tag_65\n        /* \"#utility.yul\":1850:1857   */\n      dup8\n        /* \"#utility.yul\":1841:1847   */\n      dup3\n        /* \"#utility.yul\":1830:1839   */\n      dup9\n        /* \"#utility.yul\":1826:1848   */\n      add\n        /* \"#utility.yul\":1805:1858   */\n      tag_51\n      jump\t// in\n    tag_65:\n        /* \"#utility.yul\":1795:1858   */\n      swap2\n      pop\n        /* \"#utility.yul\":1750:1868   */\n      pop\n        /* \"#utility.yul\":930:1875   */\n      swap3\n      swap6\n      swap2\n      swap5\n      pop\n      swap3\n      pop\n      jump\t// out\n        /* \"#utility.yul\":1881:2210   */\n    tag_20:\n        /* \"#utility.yul\":1940:1946   */\n      0x00\n        /* \"#utility.yul\":1989:1991   */\n      0x20\n        /* \"#utility.yul\":1977:1986   */\n      dup3\n        /* \"#utility.yul\":1968:1975   */\n      dup5\n        /* \"#utility.yul\":1964:1987   */\n      sub\n        /* \"#utility.yul\":1960:1992   */\n      slt\n        /* \"#utility.yul\":1957:2076   */\n      iszero\n      tag_67\n      jumpi\n        /* \"#utility.yul\":1995:2074   */\n      tag_68\n      tag_58\n      jump\t// in\n    tag_68:\n        /* \"#utility.yul\":1957:2076   */\n    tag_67:\n        /* \"#utility.yul\":2115:2116   */\n      0x00\n        /* \"#utility.yul\":2140:2193   */\n      tag_69\n        /* \"#utility.yul\":2185:2192   */\n      dup5\n        /* \"#utility.yul\":2176:2182   */\n      dup3\n        /* \"#utility.yul\":2165:2174   */\n      dup6\n        /* \"#utility.yul\":2161:2183   */\n      add\n        /* \"#utility.yul\":2140:2193   */\n      tag_51\n      jump\t// in\n    tag_69:\n        /* \"#utility.yul\":2130:2193   */\n      swap2\n      pop\n        /* \"#utility.yul\":2086:2203   */\n      pop\n        /* \"#utility.yul\":1881:2210   */\n      swap3\n      swap2\n      pop\n      pop\n      jump\t// out\n        /* \"#utility.yul\":2216:2580   */\n    tag_70:\n        /* \"#utility.yul\":2304:2307   */\n      0x00\n        /* \"#utility.yul\":2332:2371   */\n      tag_72\n        /* \"#utility.yul\":2365:2370   */\n      dup3\n        /* \"#utility.yul\":2332:2371   */\n      tag_73\n      jump\t// in\n    tag_72:\n        /* \"#utility.yul\":2387:2458   */\n      tag_74\n        /* \"#utility.yul\":2451:2457   */\n      dup2\n        /* \"#utility.yul\":2446:2449   */\n      dup6\n        /* \"#utility.yul\":2387:2458   */\n      tag_75\n      jump\t// in\n    tag_74:\n        /* \"#utility.yul\":2380:2458   */\n      swap4\n      pop\n        /* \"#utility.yul\":2467:2519   */\n      tag_76\n        /* \"#utility.yul\":2512:2518   */\n      dup2\n        /* \"#utility.yul\":2507:2510   */\n      dup6\n        /* \"#utility.yul\":2500:2504   */\n      0x20\n        /* \"#utility.yul\":2493:2498   */\n      dup7\n        /* \"#utility.yul\":2489:2505   */\n      add\n        /* \"#utility.yul\":2467:2519   */\n      tag_77\n      jump\t// in\n    tag_76:\n        /* \"#utility.yul\":2544:2573   */\n      tag_78\n        /* \"#utility.yul\":2566:2572   */\n      dup2\n        /* \"#utility.yul\":2544:2573   */\n      tag_79\n      jump\t// in\n    tag_78:\n        /* \"#utility.yul\":2539:2542   */\n      dup5\n        /* \"#utility.yul\":2535:2574   */\n      add\n        /* \"#utility.yul\":2528:2574   */\n      swap2\n      pop\n        /* \"#utility.yul\":2308:2580   */\n      pop\n        /* \"#utility.yul\":2216:2580   */\n      swap3\n      swap2\n      pop\n      pop\n      jump\t// out\n        /* \"#utility.yul\":2586:2704   */\n    tag_80:\n        /* \"#utility.yul\":2673:2697   */\n      tag_82\n        /* \"#utility.yul\":2691:2696   */\n      dup2\n        /* \"#utility.yul\":2673:2697   */\n      tag_83\n      jump\t// in\n    tag_82:\n        /* \"#utility.yul\":2668:2671   */\n      dup3\n        /* \"#utility.yul\":2661:2698   */\n      mstore\n        /* \"#utility.yul\":2586:2704   */\n      pop\n      pop\n      jump\t// out\n        /* \"#utility.yul\":2710:3354   */\n    tag_23:\n        /* \"#utility.yul\":2907:2911   */\n      0x00\n        /* \"#utility.yul\":2945:2948   */\n      0x80\n        /* \"#utility.yul\":2934:2943   */\n      dup3\n        /* \"#utility.yul\":2930:2949   */\n      add\n        /* \"#utility.yul\":2922:2949   */\n      swap1\n      pop\n        /* \"#utility.yul\":2995:3004   */\n      dup2\n        /* \"#utility.yul\":2989:2993   */\n      dup2\n        /* \"#utility.yul\":2985:3005   */\n      sub\n        /* \"#utility.yul\":2981:2982   */\n      0x00\n        /* \"#utility.yul\":2970:2979   */\n      dup4\n        /* \"#utility.yul\":2966:2983   */\n      add\n        /* \"#utility.yul\":2959:3006   */\n      mstore\n        /* \"#utility.yul\":3023:3101   */\n      tag_85\n        /* \"#utility.yul\":3096:3100   */\n      dup2\n        /* \"#utility.yul\":3087:3093   */\n      dup8\n        /* \"#utility.yul\":3023:3101   */\n      tag_70\n      jump\t// in\n    tag_85:\n        /* \"#utility.yul\":3015:3101   */\n      swap1\n      pop\n        /* \"#utility.yul\":3111:3183   */\n      tag_86\n        /* \"#utility.yul\":3179:3181   */\n      0x20\n        /* \"#utility.yul\":3168:3177   */\n      dup4\n        /* \"#utility.yul\":3164:3182   */\n      add\n        /* \"#utility.yul\":3155:3161   */\n      dup7\n        /* \"#utility.yul\":3111:3183   */\n      tag_80\n      jump\t// in\n    tag_86:\n        /* \"#utility.yul\":3193:3265   */\n      tag_87\n        /* \"#utility.yul\":3261:3263   */\n      0x40\n        /* \"#utility.yul\":3250:3259   */\n      dup4\n        /* \"#utility.yul\":3246:3264   */\n      add\n        /* \"#utility.yul\":3237:3243   */\n      dup6\n        /* \"#utility.yul\":3193:3265   */\n      tag_80\n      jump\t// in\n    tag_87:\n        /* \"#utility.yul\":3275:3347   */\n      tag_88\n        /* \"#utility.yul\":3343:3345   */\n      0x60\n        /* \"#utility.yul\":3332:3341   */\n      dup4\n        /* \"#utility.yul\":3328:3346   */\n      add\n        /* \"#utility.yul\":3319:3325   */\n      dup5\n        /* \"#utility.yul\":3275:3347   */\n      tag_80\n      jump\t// in\n    tag_88:\n        /* \"#utility.yul\":2710:3354   */\n      swap6\n      swap5\n      pop\n      pop\n      pop\n      pop\n      pop\n      jump\t// out\n        /* \"#utility.yul\":3360:3582   */\n    tag_10:\n        /* \"#utility.yul\":3453:3457   */\n      0x00\n        /* \"#utility.yul\":3491:3493   */\n      0x20\n        /* \"#utility.yul\":3480:3489   */\n      dup3\n        /* \"#utility.yul\":3476:3494   */\n      add\n        /* \"#utility.yul\":3468:3494   */\n      swap1\n      pop\n        /* \"#utility.yul\":3504:3575   */\n      tag_90\n        /* \"#utility.yul\":3572:3573   */\n      0x00\n        /* \"#utility.yul\":3561:3570   */\n      dup4\n        /* \"#utility.yul\":3557:3574   */\n      add\n        /* \"#utility.yul\":3548:3554   */\n      dup5\n        /* \"#utility.yul\":3504:3575   */\n      tag_80\n      jump\t// in\n    tag_90:\n        /* \"#utility.yul\":3360:3582   */\n      swap3\n      swap2\n      pop\n      pop\n      jump\t// out\n        /* \"#utility.yul\":3588:3717   */\n    tag_39:\n        /* \"#utility.yul\":3622:3628   */\n      0x00\n        /* \"#utility.yul\":3649:3669   */\n      tag_92\n      tag_93\n      jump\t// in\n    tag_92:\n        /* \"#utility.yul\":3639:3669   */\n      swap1\n      pop\n        /* \"#utility.yul\":3678:3711   */\n      tag_94\n        /* \"#utility.yul\":3706:3710   */\n      dup3\n        /* \"#utility.yul\":3698:3704   */\n      dup3\n        /* \"#utility.yul\":3678:3711   */\n      tag_95\n      jump\t// in\n    tag_94:\n        /* \"#utility.yul\":3588:3717   */\n      swap2\n      swap1\n      pop\n      jump\t// out\n        /* \"#utility.yul\":3723:3798   */\n    tag_93:\n        /* \"#utility.yul\":3756:3762   */\n      0x00\n        /* \"#utility.yul\":3789:3791   */\n      0x40\n        /* \"#utility.yul\":3783:3792   */\n      mload\n        /* \"#utility.yul\":3773:3792   */\n      swap1\n      pop\n        /* \"#utility.yul\":3723:3798   */\n      swap1\n      jump\t// out\n        /* \"#utility.yul\":3804:4112   */\n    tag_38:\n        /* \"#utility.yul\":3866:3870   */\n      0x00\n        /* \"#utility.yul\":3956:3974   */\n      0xffffffffffffffff\n        /* \"#utility.yul\":3948:3954   */\n      dup3\n        /* \"#utility.yul\":3945:3975   */\n      gt\n        /* \"#utility.yul\":3942:3998   */\n      iszero\n      tag_98\n      jumpi\n        /* \"#utility.yul\":3978:3996   */\n      tag_99\n      tag_100\n      jump\t// in\n    tag_99:\n        /* \"#utility.yul\":3942:3998   */\n    tag_98:\n        /* \"#utility.yul\":4016:4045   */\n      tag_101\n        /* \"#utility.yul\":4038:4044   */\n      dup3\n        /* \"#utility.yul\":4016:4045   */\n      tag_79\n      jump\t// in\n    tag_101:\n        /* \"#utility.yul\":4008:4045   */\n      swap1\n      pop\n        /* \"#utility.yul\":4100:4104   */\n      0x20\n        /* \"#utility.yul\":4094:4098   */\n      dup2\n        /* \"#utility.yul\":4090:4105   */\n      add\n        /* \"#utility.yul\":4082:4105   */\n      swap1\n      pop\n        /* \"#utility.yul\":3804:4112   */\n      swap2\n      swap1\n      pop\n      jump\t// out\n        /* \"#utility.yul\":4118:4217   */\n    tag_73:\n        /* \"#utility.yul\":4170:4176   */\n      0x00\n        /* \"#utility.yul\":4204:4209   */\n      dup2\n        /* \"#utility.yul\":4198:4210   */\n      mload\n        /* \"#utility.yul\":4188:4210   */\n      swap1\n      pop\n        /* \"#utility.yul\":4118:4217   */\n      swap2\n      swap1\n      pop\n      jump\t// out\n        /* \"#utility.yul\":4223:4392   */\n    tag_75:\n        /* \"#utility.yul\":4307:4318   */\n      0x00\n        /* \"#utility.yul\":4341:4347   */\n      dup3\n        /* \"#utility.yul\":4336:4339   */\n      dup3\n        /* \"#utility.yul\":4329:4348   */\n      mstore\n        /* \"#utility.yul\":4381:4385   */\n      0x20\n        /* \"#utility.yul\":4376:4379   */\n      dup3\n        /* \"#utility.yul\":4372:4386   */\n      add\n        /* \"#utility.yul\":4357:4386   */\n      swap1\n      pop\n        /* \"#utility.yul\":4223:4392   */\n      swap3\n      swap2\n      pop\n      pop\n      jump\t// out\n        /* \"#utility.yul\":4398:4475   */\n    tag_83:\n        /* \"#utility.yul\":4435:4442   */\n      0x00\n        /* \"#utility.yul\":4464:4469   */\n      dup2\n        /* \"#utility.yul\":4453:4469   */\n      swap1\n      pop\n        /* \"#utility.yul\":4398:4475   */\n      swap2\n      swap1\n      pop\n      jump\t// out\n        /* \"#utility.yul\":4481:4635   */\n    tag_44:\n        /* \"#utility.yul\":4565:4571   */\n      dup3\n        /* \"#utility.yul\":4560:4563   */\n      dup2\n        /* \"#utility.yul\":4555:4558   */\n      dup4\n        /* \"#utility.yul\":4542:4572   */\n      calldatacopy\n        /* \"#utility.yul\":4627:4628   */\n      0x00\n        /* \"#utility.yul\":4618:4624   */\n      dup4\n        /* \"#utility.yul\":4613:4616   */\n      dup4\n        /* \"#utility.yul\":4609:4625   */\n      add\n        /* \"#utility.yul\":4602:4629   */\n      mstore\n        /* \"#utility.yul\":4481:4635   */\n      pop\n      pop\n      pop\n      jump\t// out\n        /* \"#utility.yul\":4641:4948   */\n    tag_77:\n        /* \"#utility.yul\":4709:4710   */\n      0x00\n        /* \"#utility.yul\":4719:4832   */\n    tag_107:\n        /* \"#utility.yul\":4733:4739   */\n      dup4\n        /* \"#utility.yul\":4730:4731   */\n      dup2\n        /* \"#utility.yul\":4727:4740   */\n      lt\n        /* \"#utility.yul\":4719:4832   */\n      iszero\n      tag_109\n      jumpi\n        /* \"#utility.yul\":4818:4819   */\n      dup1\n        /* \"#utility.yul\":4813:4816   */\n      dup3\n        /* \"#utility.yul\":4809:4820   */\n      add\n        /* \"#utility.yul\":4803:4821   */\n      mload\n        /* \"#utility.yul\":4799:4800   */\n      dup2\n        /* \"#utility.yul\":4794:4797   */\n      dup5\n        /* \"#utility.yul\":4790:4801   */\n      add\n        /* \"#utility.yul\":4783:4822   */\n      mstore\n        /* \"#utility.yul\":4755:4757   */\n      0x20\n        /* \"#utility.yul\":4752:4753   */\n      dup2\n        /* \"#utility.yul\":4748:4758   */\n      add\n        /* \"#utility.yul\":4743:4758   */\n      swap1\n      pop\n        /* \"#utility.yul\":4719:4832   */\n      jump(tag_107)\n    tag_109:\n        /* \"#utility.yul\":4850:4856   */\n      dup4\n        /* \"#utility.yul\":4847:4848   */\n      dup2\n        /* \"#utility.yul\":4844:4857   */\n      gt\n        /* \"#utility.yul\":4841:4942   */\n      iszero\n      tag_110\n      jumpi\n        /* \"#utility.yul\":4930:4931   */\n      0x00\n        /* \"#utility.yul\":4921:4927   */\n      dup5\n        /* \"#utility.yul\":4916:4919   */\n      dup5\n        /* \"#utility.yul\":4912:4928   */\n      add\n        /* \"#utility.yul\":4905:4932   */\n      mstore\n        /* \"#utility.yul\":4841:4942   */\n    tag_110:\n        /* \"#utility.yul\":4690:4948   */\n      pop\n        /* \"#utility.yul\":4641:4948   */\n      pop\n      pop\n      pop\n      jump\t// out\n        /* \"#utility.yul\":4954:5274   */\n    tag_28:\n        /* \"#utility.yul\":4998:5004   */\n      0x00\n        /* \"#utility.yul\":5035:5036   */\n      0x02\n        /* \"#utility.yul\":5029:5033   */\n      dup3\n        /* \"#utility.yul\":5025:5037   */\n      div\n        /* \"#utility.yul\":5015:5037   */\n      swap1\n      pop\n        /* \"#utility.yul\":5082:5083   */\n      0x01\n        /* \"#utility.yul\":5076:5080   */\n      dup3\n        /* \"#utility.yul\":5072:5084   */\n      and\n        /* \"#utility.yul\":5103:5121   */\n      dup1\n        /* \"#utility.yul\":5093:5174   */\n      tag_112\n      jumpi\n        /* \"#utility.yul\":5159:5163   */\n      0x7f\n        /* \"#utility.yul\":5151:5157   */\n      dup3\n        /* \"#utility.yul\":5147:5164   */\n      and\n        /* \"#utility.yul\":5137:5164   */\n      swap2\n      pop\n        /* \"#utility.yul\":5093:5174   */\n    tag_112:\n        /* \"#utility.yul\":5221:5223   */\n      0x20\n        /* \"#utility.yul\":5213:5219   */\n      dup3\n        /* \"#utility.yul\":5210:5224   */\n      lt\n        /* \"#utility.yul\":5190:5208   */\n      dup2\n        /* \"#utility.yul\":5187:5225   */\n      eq\n        /* \"#utility.yul\":5184:5268   */\n      iszero\n      tag_113\n      jumpi\n        /* \"#utility.yul\":5240:5258   */\n      tag_114\n      tag_115\n      jump\t// in\n    tag_114:\n        /* \"#utility.yul\":5184:5268   */\n    tag_113:\n        /* \"#utility.yul\":5005:5274   */\n      pop\n        /* \"#utility.yul\":4954:5274   */\n      swap2\n      swap1\n      pop\n      jump\t// out\n        /* \"#utility.yul\":5280:5561   */\n    tag_95:\n        /* \"#utility.yul\":5363:5390   */\n      tag_117\n        /* \"#utility.yul\":5385:5389   */\n      dup3\n        /* \"#utility.yul\":5363:5390   */\n      tag_79\n      jump\t// in\n    tag_117:\n        /* \"#utility.yul\":5355:5361   */\n      dup2\n        /* \"#utility.yul\":5351:5391   */\n      add\n        /* \"#utility.yul\":5493:5499   */\n      dup2\n        /* \"#utility.yul\":5481:5491   */\n      dup2\n        /* \"#utility.yul\":5478:5500   */\n      lt\n        /* \"#utility.yul\":5457:5475   */\n      0xffffffffffffffff\n        /* \"#utility.yul\":5445:5455   */\n      dup3\n        /* \"#utility.yul\":5442:5476   */\n      gt\n        /* \"#utility.yul\":5439:5501   */\n      or\n        /* \"#utility.yul\":5436:5524   */\n      iszero\n      tag_118\n      jumpi\n        /* \"#utility.yul\":5504:5522   */\n      tag_119\n      tag_100\n      jump\t// in\n    tag_119:\n        /* \"#utility.yul\":5436:5524   */\n    tag_118:\n        /* \"#utility.yul\":5544:5554   */\n      dup1\n        /* \"#utility.yul\":5540:5542   */\n      0x40\n        /* \"#utility.yul\":5533:5555   */\n      mstore\n        /* \"#utility.yul\":5323:5561   */\n      pop\n        /* \"#utility.yul\":5280:5561   */\n      pop\n      pop\n      jump\t// out\n        /* \"#utility.yul\":5567:5747   */\n    tag_115:\n        /* \"#utility.yul\":5615:5692   */\n      0x4e487b7100000000000000000000000000000000000000000000000000000000\n        /* \"#utility.yul\":5612:5613   */\n      0x00\n        /* \"#utility.yul\":5605:5693   */\n      mstore\n        /* \"#utility.yul\":5712:5716   */\n      0x22\n        /* \"#utility.yul\":5709:5710   */\n      0x04\n        /* \"#utility.yul\":5702:5717   */\n      mstore\n        /* \"#utility.yul\":5736:5740   */\n      0x24\n        /* \"#utility.yul\":5733:5734   */\n      0x00\n        /* \"#utility.yul\":5726:5741   */\n      revert\n        /* \"#utility.yul\":5753:5933   */\n    tag_100:\n        /* \"#utility.yul\":5801:5878   */\n      0x4e487b7100000000000000000000000000000000000000000000000000000000\n        /* \"#utility.yul\":5798:5799   */\n      0x00\n        /* \"#utility.yul\":5791:5879   */\n      mstore\n        /* \"#utility.yul\":5898:5902   */\n      0x41\n        /* \"#utility.yul\":5895:5896   */\n      0x04\n        /* \"#utility.yul\":5888:5903   */\n      mstore\n        /* \"#utility.yul\":5922:5926   */\n      0x24\n        /* \"#utility.yul\":5919:5920   */\n      0x00\n        /* \"#utility.yul\":5912:5927   */\n      revert\n        /* \"#utility.yul\":5939:6056   */\n    tag_49:\n        /* \"#utility.yul\":6048:6049   */\n      0x00\n        /* \"#utility.yul\":6045:6046   */\n      dup1\n        /* \"#utility.yul\":6038:6050   */\n      revert\n        /* \"#utility.yul\":6062:6179   */\n    tag_42:\n        /* \"#utility.yul\":6171:6172   */\n      0x00\n        /* \"#utility.yul\":6168:6169   */\n      dup1\n        /* \"#utility.yul\":6161:6173   */\n      revert\n        /* \"#utility.yul\":6185:6302   */\n    tag_61:\n        /* \"#utility.yul\":6294:6295   */\n      0x00\n        /* \"#utility.yul\":6291:6292   */\n      dup1\n        /* \"#utility.yul\":6284:6296   */\n      revert\n        /* \"#utility.yul\":6308:6425   */\n    tag_58:\n        /* \"#utility.yul\":6417:6418   */\n      0x00\n        /* \"#utility.yul\":6414:6415   */\n      dup1\n        /* \"#utility.yul\":6407:6419   */\n      revert\n        /* \"#utility.yul\":6431:6533   */\n    tag_79:\n        /* \"#utility.yul\":6472:6478   */\n      0x00\n        /* \"#utility.yul\":6523:6525   */\n      0x1f\n        /* \"#utility.yul\":6519:6526   */\n      not\n        /* \"#utility.yul\":6514:6516   */\n      0x1f\n        /* \"#utility.yul\":6507:6512   */\n      dup4\n        /* \"#utility.yul\":6503:6517   */\n      add\n        /* \"#utility.yul\":6499:6527   */\n      and\n        /* \"#utility.yul\":6489:6527   */\n      swap1\n      pop\n        /* \"#utility.yul\":6431:6533   */\n      swap2\n      swap1\n      pop\n      jump\t// out\n        /* \"#utility.yul\":6539:6661   */\n    tag_54:\n        /* \"#utility.yul\":6612:6636   */\n      tag_128\n        /* \"#utility.yul\":6630:6635   */\n      dup2\n        /* \"#utility.yul\":6612:6636   */\n      tag_83\n      jump\t// in\n    tag_128:\n        /* \"#utility.yul\":6605:6610   */\n      dup2\n        /* \"#utility.yul\":6602:6637   */\n      eq\n        /* \"#utility.yul\":6592:6655   */\n      tag_129\n      jumpi\n        /* \"#utility.yul\":6651:6652   */\n      0x00\n        /* \"#utility.yul\":6648:6649   */\n      dup1\n        /* \"#utility.yul\":6641:6653   */\n      revert\n        /* \"#utility.yul\":6592:6655   */\n    tag_129:\n        /* \"#utility.yul\":6539:6661   */\n      pop\n      jump\t// out\n\n    auxdata: 0xa264697066735822122051b077a14e23d7fc9136f60d1c359a54ff95ba483e149160486bc815032571f064736f6c63430008070033\n}\n",
				"bytecode": {
					"linkReferences": {},
					"object": "608060405234801561001057600080fd5b5061058b806100206000396000f3fe608060405234801561001057600080fd5b506004361061004c5760003560e01c806306fdde03146100515780638da5cb5b1461006f5780639c40480d1461008d5780639d2614e5146100a9575b600080fd5b6100596100dc565b604051610066919061037f565b60405180910390f35b6100776100e2565b604051610084919061037f565b60405180910390f35b6100a760048036038101906100a2919061023b565b6100e8565b005b6100c360048036038101906100be91906102be565b6100ee565b6040516100d39493929190610333565b60405180910390f35b60005481565b60015481565b50505050565b600281815481106100fe57600080fd5b906000526020600020906004020160009150905080600001805461012190610458565b80601f016020809104026020016040519081016040528092919081815260200182805461014d90610458565b801561019a5780601f1061016f5761010080835404028352916020019161019a565b820191906000526020600020905b81548152906001019060200180831161017d57829003601f168201915b5050505050908060010154908060020154908060030154905084565b60006101c96101c4846103bf565b61039a565b9050828152602081018484840111156101e5576101e461051e565b5b6101f0848285610416565b509392505050565b600082601f83011261020d5761020c610519565b5b813561021d8482602086016101b6565b91505092915050565b6000813590506102358161053e565b92915050565b6000806000806080858703121561025557610254610528565b5b600085013567ffffffffffffffff81111561027357610272610523565b5b61027f878288016101f8565b945050602061029087828801610226565b93505060406102a187828801610226565b92505060606102b287828801610226565b91505092959194509250565b6000602082840312156102d4576102d3610528565b5b60006102e284828501610226565b91505092915050565b60006102f6826103f0565b61030081856103fb565b9350610310818560208601610425565b6103198161052d565b840191505092915050565b61032d8161040c565b82525050565b6000608082019050818103600083015261034d81876102eb565b905061035c6020830186610324565b6103696040830185610324565b6103766060830184610324565b95945050505050565b60006020820190506103946000830184610324565b92915050565b60006103a46103b5565b90506103b0828261048a565b919050565b6000604051905090565b600067ffffffffffffffff8211156103da576103d96104ea565b5b6103e38261052d565b9050602081019050919050565b600081519050919050565b600082825260208201905092915050565b6000819050919050565b82818337600083830152505050565b60005b83811015610443578082015181840152602081019050610428565b83811115610452576000848401525b50505050565b6000600282049050600182168061047057607f821691505b60208210811415610484576104836104bb565b5b50919050565b6104938261052d565b810181811067ffffffffffffffff821117156104b2576104b16104ea565b5b80604052505050565b7f4e487b7100000000000000000000000000000000000000000000000000000000600052602260045260246000fd5b7f4e487b7100000000000000000000000000000000000000000000000000000000600052604160045260246000fd5b600080fd5b600080fd5b600080fd5b600080fd5b6000601f19601f8301169050919050565b6105478161040c565b811461055257600080fd5b5056fea264697066735822122051b077a14e23d7fc9136f60d1c359a54ff95ba483e149160486bc815032571f064736f6c63430008070033",
					"opcodes": "PUSH1 0x80 PUSH1 0x40 MSTORE CALLVALUE DUP1 ISZERO PUSH2 0x10 JUMPI PUSH1 0x0 DUP1 REVERT JUMPDEST POP PUSH2 0x58B DUP1 PUSH2 0x20 PUSH1 0x0 CODECOPY PUSH1 0x0 RETURN INVALID PUSH1 0x80 PUSH1 0x40 MSTORE CALLVALUE DUP1 ISZERO PUSH2 0x10 JUMPI PUSH1 0x0 DUP1 REVERT JUMPDEST POP PUSH1 0x4 CALLDATASIZE LT PUSH2 0x4C JUMPI PUSH1 0x0 CALLDATALOAD PUSH1 0xE0 SHR DUP1 PUSH4 0x6FDDE03 EQ PUSH2 0x51 JUMPI DUP1 PUSH4 0x8DA5CB5B EQ PUSH2 0x6F JUMPI DUP1 PUSH4 0x9C40480D EQ PUSH2 0x8D JUMPI DUP1 PUSH4 0x9D2614E5 EQ PUSH2 0xA9 JUMPI JUMPDEST PUSH1 0x0 DUP1 REVERT JUMPDEST PUSH2 0x59 PUSH2 0xDC JUMP JUMPDEST PUSH1 0x40 MLOAD PUSH2 0x66 SWAP2 SWAP1 PUSH2 0x37F JUMP JUMPDEST PUSH1 0x40 MLOAD DUP1 SWAP2 SUB SWAP1 RETURN JUMPDEST PUSH2 0x77 PUSH2 0xE2 JUMP JUMPDEST PUSH1 0x40 MLOAD PUSH2 0x84 SWAP2 SWAP1 PUSH2 0x37F JUMP JUMPDEST PUSH1 0x40 MLOAD DUP1 SWAP2 SUB SWAP1 RETURN JUMPDEST PUSH2 0xA7 PUSH1 0x4 DUP1 CALLDATASIZE SUB DUP2 ADD SWAP1 PUSH2 0xA2 SWAP2 SWAP1 PUSH2 0x23B JUMP JUMPDEST PUSH2 0xE8 JUMP JUMPDEST STOP JUMPDEST PUSH2 0xC3 PUSH1 0x4 DUP1 CALLDATASIZE SUB DUP2 ADD SWAP1 PUSH2 0xBE SWAP2 SWAP1 PUSH2 0x2BE JUMP JUMPDEST PUSH2 0xEE JUMP JUMPDEST PUSH1 0x40 MLOAD PUSH2 0xD3 SWAP5 SWAP4 SWAP3 SWAP2 SWAP1 PUSH2 0x333 JUMP JUMPDEST PUSH1 0x40 MLOAD DUP1 SWAP2 SUB SWAP1 RETURN JUMPDEST PUSH1 0x0 SLOAD DUP2 JUMP JUMPDEST PUSH1 0x1 SLOAD DUP2 JUMP JUMPDEST POP POP POP POP JUMP JUMPDEST PUSH1 0x2 DUP2 DUP2 SLOAD DUP2 LT PUSH2 0xFE JUMPI PUSH1 0x0 DUP1 REVERT JUMPDEST SWAP1 PUSH1 0x0 MSTORE PUSH1 0x20 PUSH1 0x0 KECCAK256 SWAP1 PUSH1 0x4 MUL ADD PUSH1 0x0 SWAP2 POP SWAP1 POP DUP1 PUSH1 0x0 ADD DUP1 SLOAD PUSH2 0x121 SWAP1 PUSH2 0x458 JUMP JUMPDEST DUP1 PUSH1 0x1F ADD PUSH1 0x20 DUP1 SWAP2 DIV MUL PUSH1 0x20 ADD PUSH1 0x40 MLOAD SWAP1 DUP2 ADD PUSH1 0x40 MSTORE DUP1 SWAP3 SWAP2 SWAP1 DUP2 DUP2 MSTORE PUSH1 0x20 ADD DUP3 DUP1 SLOAD PUSH2 0x14D SWAP1 PUSH2 0x458 JUMP JUMPDEST DUP1 ISZERO PUSH2 0x19A JUMPI DUP1 PUSH1 0x1F LT PUSH2 0x16F JUMPI PUSH2 0x100 DUP1 DUP4 SLOAD DIV MUL DUP4 MSTORE SWAP2 PUSH1 0x20 ADD SWAP2 PUSH2 0x19A JUMP JUMPDEST DUP3 ADD SWAP2 SWAP1 PUSH1 0x0 MSTORE PUSH1 0x20 PUSH1 0x0 KECCAK256 SWAP1 JUMPDEST DUP2 SLOAD DUP2 MSTORE SWAP1 PUSH1 0x1 ADD SWAP1 PUSH1 0x20 ADD DUP1 DUP4 GT PUSH2 0x17D JUMPI DUP3 SWAP1 SUB PUSH1 0x1F AND DUP3 ADD SWAP2 JUMPDEST POP POP POP POP POP SWAP1 DUP1 PUSH1 0x1 ADD SLOAD SWAP1 DUP1 PUSH1 0x2 ADD SLOAD SWAP1 DUP1 PUSH1 0x3 ADD SLOAD SWAP1 POP DUP5 JUMP JUMPDEST PUSH1 0x0 PUSH2 0x1C9 PUSH2 0x1C4 DUP5 PUSH2 0x3BF JUMP JUMPDEST PUSH2 0x39A JUMP JUMPDEST SWAP1 POP DUP3 DUP2 MSTORE PUSH1 0x20 DUP2 ADD DUP5 DUP5 DUP5 ADD GT ISZERO PUSH2 0x1E5 JUMPI PUSH2 0x1E4 PUSH2 0x51E JUMP JUMPDEST JUMPDEST PUSH2 0x1F0 DUP5 DUP3 DUP6 PUSH2 0x416 JUMP JUMPDEST POP SWAP4 SWAP3 POP POP POP JUMP JUMPDEST PUSH1 0x0 DUP3 PUSH1 0x1F DUP4 ADD SLT PUSH2 0x20D JUMPI PUSH2 0x20C PUSH2 0x519 JUMP JUMPDEST JUMPDEST DUP2 CALLDATALOAD PUSH2 0x21D DUP5 DUP3 PUSH1 0x20 DUP7 ADD PUSH2 0x1B6 JUMP JUMPDEST SWAP2 POP POP SWAP3 SWAP2 POP POP JUMP JUMPDEST PUSH1 0x0 DUP2 CALLDATALOAD SWAP1 POP PUSH2 0x235 DUP2 PUSH2 0x53E JUMP JUMPDEST SWAP3 SWAP2 POP POP JUMP JUMPDEST PUSH1 0x0 DUP1 PUSH1 0x0 DUP1 PUSH1 0x80 DUP6 DUP8 SUB SLT ISZERO PUSH2 0x255 JUMPI PUSH2 0x254 PUSH2 0x528 JUMP JUMPDEST JUMPDEST PUSH1 0x0 DUP6 ADD CALLDATALOAD PUSH8 0xFFFFFFFFFFFFFFFF DUP2 GT ISZERO PUSH2 0x273 JUMPI PUSH2 0x272 PUSH2 0x523 JUMP JUMPDEST JUMPDEST PUSH2 0x27F DUP8 DUP3 DUP9 ADD PUSH2 0x1F8 JUMP JUMPDEST SWAP5 POP POP PUSH1 0x20 PUSH2 0x290 DUP8 DUP3 DUP9 ADD PUSH2 0x226 JUMP JUMPDEST SWAP4 POP POP PUSH1 0x40 PUSH2 0x2A1 DUP8 DUP3 DUP9 ADD PUSH2 0x226 JUMP JUMPDEST SWAP3 POP POP PUSH1 0x60 PUSH2 0x2B2 DUP8 DUP3 DUP9 ADD PUSH2 0x226 JUMP JUMPDEST SWAP2 POP POP SWAP3 SWAP6 SWAP2 SWAP5 POP SWAP3 POP JUMP JUMPDEST PUSH1 0x0 PUSH1 0x20 DUP3 DUP5 SUB SLT ISZERO PUSH2 0x2D4 JUMPI PUSH2 0x2D3 PUSH2 0x528 JUMP JUMPDEST JUMPDEST PUSH1 0x0 PUSH2 0x2E2 DUP5 DUP3 DUP6 ADD PUSH2 0x226 JUMP JUMPDEST SWAP2 POP POP SWAP3 SWAP2 POP POP JUMP JUMPDEST PUSH1 0x0 PUSH2 0x2F6 DUP3 PUSH2 0x3F0 JUMP JUMPDEST PUSH2 0x300 DUP2 DUP6 PUSH2 0x3FB JUMP JUMPDEST SWAP4 POP PUSH2 0x310 DUP2 DUP6 PUSH1 0x20 DUP7 ADD PUSH2 0x425 JUMP JUMPDEST PUSH2 0x319 DUP2 PUSH2 0x52D JUMP JUMPDEST DUP5 ADD SWAP2 POP POP SWAP3 SWAP2 POP POP JUMP JUMPDEST PUSH2 0x32D DUP2 PUSH2 0x40C JUMP JUMPDEST DUP3 MSTORE POP POP JUMP JUMPDEST PUSH1 0x0 PUSH1 0x80 DUP3 ADD SWAP1 POP DUP2 DUP2 SUB PUSH1 0x0 DUP4 ADD MSTORE PUSH2 0x34D DUP2 DUP8 PUSH2 0x2EB JUMP JUMPDEST SWAP1 POP PUSH2 0x35C PUSH1 0x20 DUP4 ADD DUP7 PUSH2 0x324 JUMP JUMPDEST PUSH2 0x369 PUSH1 0x40 DUP4 ADD DUP6 PUSH2 0x324 JUMP JUMPDEST PUSH2 0x376 PUSH1 0x60 DUP4 ADD DUP5 PUSH2 0x324 JUMP JUMPDEST SWAP6 SWAP5 POP POP POP POP POP JUMP JUMPDEST PUSH1 0x0 PUSH1 0x20 DUP3 ADD SWAP1 POP PUSH2 0x394 PUSH1 0x0 DUP4 ADD DUP5 PUSH2 0x324 JUMP JUMPDEST SWAP3 SWAP2 POP POP JUMP JUMPDEST PUSH1 0x0 PUSH2 0x3A4 PUSH2 0x3B5 JUMP JUMPDEST SWAP1 POP PUSH2 0x3B0 DUP3 DUP3 PUSH2 0x48A JUMP JUMPDEST SWAP2 SWAP1 POP JUMP JUMPDEST PUSH1 0x0 PUSH1 0x40 MLOAD SWAP1 POP SWAP1 JUMP JUMPDEST PUSH1 0x0 PUSH8 0xFFFFFFFFFFFFFFFF DUP3 GT ISZERO PUSH2 0x3DA JUMPI PUSH2 0x3D9 PUSH2 0x4EA JUMP JUMPDEST JUMPDEST PUSH2 0x3E3 DUP3 PUSH2 0x52D JUMP JUMPDEST SWAP1 POP PUSH1 0x20 DUP2 ADD SWAP1 POP SWAP2 SWAP1 POP JUMP JUMPDEST PUSH1 0x0 DUP2 MLOAD SWAP1 POP SWAP2 SWAP1 POP JUMP JUMPDEST PUSH1 0x0 DUP3 DUP3 MSTORE PUSH1 0x20 DUP3 ADD SWAP1 POP SWAP3 SWAP2 POP POP JUMP JUMPDEST PUSH1 0x0 DUP2 SWAP1 POP SWAP2 SWAP1 POP JUMP JUMPDEST DUP3 DUP2 DUP4 CALLDATACOPY PUSH1 0x0 DUP4 DUP4 ADD MSTORE POP POP POP JUMP JUMPDEST PUSH1 0x0 JUMPDEST DUP4 DUP2 LT ISZERO PUSH2 0x443 JUMPI DUP1 DUP3 ADD MLOAD DUP2 DUP5 ADD MSTORE PUSH1 0x20 DUP2 ADD SWAP1 POP PUSH2 0x428 JUMP JUMPDEST DUP4 DUP2 GT ISZERO PUSH2 0x452 JUMPI PUSH1 0x0 DUP5 DUP5 ADD MSTORE JUMPDEST POP POP POP POP JUMP JUMPDEST PUSH1 0x0 PUSH1 0x2 DUP3 DIV SWAP1 POP PUSH1 0x1 DUP3 AND DUP1 PUSH2 0x470 JUMPI PUSH1 0x7F DUP3 AND SWAP2 POP JUMPDEST PUSH1 0x20 DUP3 LT DUP2 EQ ISZERO PUSH2 0x484 JUMPI PUSH2 0x483 PUSH2 0x4BB JUMP JUMPDEST JUMPDEST POP SWAP2 SWAP1 POP JUMP JUMPDEST PUSH2 0x493 DUP3 PUSH2 0x52D JUMP JUMPDEST DUP2 ADD DUP2 DUP2 LT PUSH8 0xFFFFFFFFFFFFFFFF DUP3 GT OR ISZERO PUSH2 0x4B2 JUMPI PUSH2 0x4B1 PUSH2 0x4EA JUMP JUMPDEST JUMPDEST DUP1 PUSH1 0x40 MSTORE POP POP POP JUMP JUMPDEST PUSH32 0x4E487B7100000000000000000000000000000000000000000000000000000000 PUSH1 0x0 MSTORE PUSH1 0x22 PUSH1 0x4 MSTORE PUSH1 0x24 PUSH1 0x0 REVERT JUMPDEST PUSH32 0x4E487B7100000000000000000000000000000000000000000000000000000000 PUSH1 0x0 MSTORE PUSH1 0x41 PUSH1 0x4 MSTORE PUSH1 0x24 PUSH1 0x0 REVERT JUMPDEST PUSH1 0x0 DUP1 REVERT JUMPDEST PUSH1 0x0 DUP1 REVERT JUMPDEST PUSH1 0x0 DUP1 REVERT JUMPDEST PUSH1 0x0 DUP1 REVERT JUMPDEST PUSH1 0x0 PUSH1 0x1F NOT PUSH1 0x1F DUP4 ADD AND SWAP1 POP SWAP2 SWAP1 POP JUMP JUMPDEST PUSH2 0x547 DUP2 PUSH2 0x40C JUMP JUMPDEST DUP2 EQ PUSH2 0x552 JUMPI PUSH1 0x0 DUP1 REVERT JUMPDEST POP JUMP INVALID LOG2 PUSH5 0x6970667358 0x22 SLT KECCAK256 MLOAD 0xB0 PUSH24 0xA14E23D7FC9136F60D1C359A54FF95BA483E149160486BC8 ISZERO SUB 0x25 PUSH18 0xF064736F6C63430008070033000000000000 "
				},
				"gasEstimates": {
					"creation": {
						"codeDepositCost": "283800",
						"executionCost": "324",
						"totalCost": "284124"
					},
					"external": {
						"addHole(string,uint256,uint256,uint256)": "infinite",
						"hole(uint256)": "infinite",
						"name()": "2407",
						"owner()": "2429"
					}
				},
				"methodIdentifiers": {
					"addHole(string,uint256,uint256,uint256)": "9c40480d",
					"hole(uint256)": "9d2614e5",
					"name()": "06fdde03",
					"owner()": "8da5cb5b"
				}
			},
			"storageLayout": {
				"storage": [
					{
						"astId": 4,
						"contract": "contracts/Course.sol:Course",
						"label": "name",
						"offset": 0,
						"slot": "0",
						"type": "t_uint256"
					},
					{
						"astId": 6,
						"contract": "contracts/Course.sol:Course",
						"label": "owner",
						"offset": 0,
						"slot": "1",
						"type": "t_uint256"
					},
					{
						"astId": 10,
						"contract": "contracts/Course.sol:Course",
						"label": "hole",
						"offset": 0,
						"slot": "2",
						"type": "t_array(t_struct(Hole)19_storage)dyn_storage"
					}
				],
				"types": {
					"t_array(t_struct(Hole)19_storage)dyn_storage": {
						"base": "t_struct(Hole)19_storage",
						"encoding": "dynamic_array",
						"label": "struct Course.Hole[]",
						"numberOfBytes": "32"
					},
					"t_string_storage": {
						"encoding": "bytes",
						"label": "string",
						"numberOfBytes": "32"
					},
					"t_struct(Hole)19_storage": {
						"encoding": "inplace",
						"label": "struct Course.Hole",
						"members": [
							{
								"astId": 12,
								"contract": "contracts/Course.sol:Course",
								"label": "name",
								"offset": 0,
								"slot": "0",
								"type": "t_string_storage"
							},
							{
								"astId": 14,
								"contract": "contracts/Course.sol:Course",
								"label": "pinPosition",
								"offset": 0,
								"slot": "1",
								"type": "t_uint256"
							},
							{
								"astId": 16,
								"contract": "contracts/Course.sol:Course",
								"label": "rating",
								"offset": 0,
								"slot": "2",
								"type": "t_uint256"
							},
							{
								"astId": 18,
								"contract": "contracts/Course.sol:Course",
								"label": "holeNumber",
								"offset": 0,
								"slot": "3",
								"type": "t_uint256"
							}
						],
						"numberOfBytes": "128"
					},
					"t_uint256": {
						"encoding": "inplace",
						"label": "uint256",
						"numberOfBytes": "32"
					}
				}
			},
			"userdoc": {
				"kind": "user",
				"methods": {},
				"notice": "A Course contract that holds a buleprint for a course",
				"version": 1
			}
		}
	}
}