{
	"contracts/Course.sol": {
		"Course": {
			"abi": [
				{
					"inputs": [
						{
							"internalType": "string",
							"name": "_courseName",
							"type": "string"
						}
					],
					"name": "addCourseInformation",
					"outputs": [],
					"stateMutability": "nonpayable",
					"type": "function"
				},
				{
					"inputs": [
						{
							"internalType": "string",
							"name": "_name",
							"type": "string"
						},
						{
							"internalType": "uint256",
							"name": "_pinPosition",
							"type": "uint256"
						},
						{
							"internalType": "uint256",
							"name": "_rating",
							"type": "uint256"
						},
						{
							"internalType": "uint256",
							"name": "_holeNumber",
							"type": "uint256"
						}
					],
					"name": "addHole",
					"outputs": [],
					"stateMutability": "nonpayable",
					"type": "function"
				},
				{
					"inputs": [
						{
							"internalType": "uint256",
							"name": "",
							"type": "uint256"
						}
					],
					"name": "courseName",
					"outputs": [
						{
							"internalType": "string",
							"name": "courseName",
							"type": "string"
						}
					],
					"stateMutability": "view",
					"type": "function"
				},
				{
					"inputs": [
						{
							"internalType": "uint256",
							"name": "",
							"type": "uint256"
						}
					],
					"name": "hole",
					"outputs": [
						{
							"internalType": "string",
							"name": "name",
							"type": "string"
						},
						{
							"internalType": "uint256",
							"name": "pinPosition",
							"type": "uint256"
						},
						{
							"internalType": "uint256",
							"name": "rating",
							"type": "uint256"
						},
						{
							"internalType": "uint256",
							"name": "holeNumber",
							"type": "uint256"
						}
					],
					"stateMutability": "view",
					"type": "function"
				},
				{
					"inputs": [
						{
							"internalType": "string",
							"name": "",
							"type": "string"
						}
					],
					"name": "holeToPinPosition",
					"outputs": [
						{
							"internalType": "uint256",
							"name": "",
							"type": "uint256"
						}
					],
					"stateMutability": "view",
					"type": "function"
				}
			],
			"devdoc": {
				"kind": "dev",
				"methods": {},
				"title": "Course contract",
				"version": 1
			},
			"evm": {
				"assembly": "    /* \"contracts/Course.sol\":165:1047  contract Course {\r... */\n  mstore(0x40, 0x80)\n  callvalue\n  dup1\n  iszero\n  tag_1\n  jumpi\n  0x00\n  dup1\n  revert\ntag_1:\n  pop\n  dataSize(sub_0)\n  dup1\n  dataOffset(sub_0)\n  0x00\n  codecopy\n  0x00\n  return\nstop\n\nsub_0: assembly {\n        /* \"contracts/Course.sol\":165:1047  contract Course {\r... */\n      mstore(0x40, 0x80)\n      callvalue\n      dup1\n      iszero\n      tag_1\n      jumpi\n      0x00\n      dup1\n      revert\n    tag_1:\n      pop\n      jumpi(tag_2, lt(calldatasize, 0x04))\n      shr(0xe0, calldataload(0x00))\n      dup1\n      0x9c40480d\n      eq\n      tag_3\n      jumpi\n      dup1\n      0x9d2614e5\n      eq\n      tag_4\n      jumpi\n      dup1\n      0xb70934fc\n      eq\n      tag_5\n      jumpi\n      dup1\n      0xc0bf9eaa\n      eq\n      tag_6\n      jumpi\n      dup1\n      0xf44fa750\n      eq\n      tag_7\n      jumpi\n    tag_2:\n      0x00\n      dup1\n      revert\n        /* \"contracts/Course.sol\":767:1042  function addHole(\r... */\n    tag_3:\n      tag_8\n      0x04\n      dup1\n      calldatasize\n      sub\n      dup2\n      add\n      swap1\n      tag_9\n      swap2\n      swap1\n      tag_10\n      jump\t// in\n    tag_9:\n      tag_11\n      jump\t// in\n    tag_8:\n      stop\n        /* \"contracts/Course.sol\":502:520  Hole[] public hole */\n    tag_4:\n      tag_12\n      0x04\n      dup1\n      calldatasize\n      sub\n      dup2\n      add\n      swap1\n      tag_13\n      swap2\n      swap1\n      tag_14\n      jump\t// in\n    tag_13:\n      tag_15\n      jump\t// in\n    tag_12:\n      mload(0x40)\n      tag_16\n      swap5\n      swap4\n      swap3\n      swap2\n      swap1\n      tag_17\n      jump\t// in\n    tag_16:\n      mload(0x40)\n      dup1\n      swap2\n      sub\n      swap1\n      return\n        /* \"contracts/Course.sol\":573:624  mapping(string => uint256) public holeToPinPosition */\n    tag_5:\n      tag_18\n      0x04\n      dup1\n      calldatasize\n      sub\n      dup2\n      add\n      swap1\n      tag_19\n      swap2\n      swap1\n      tag_20\n      jump\t// in\n    tag_19:\n      tag_21\n      jump\t// in\n    tag_18:\n      mload(0x40)\n      tag_22\n      swap2\n      swap1\n      tag_23\n      jump\t// in\n    tag_22:\n      mload(0x40)\n      dup1\n      swap2\n      sub\n      swap1\n      return\n        /* \"contracts/Course.sol\":192:423  function addCourseInformation(\r... */\n    tag_6:\n      tag_24\n      0x04\n      dup1\n      calldatasize\n      sub\n      dup2\n      add\n      swap1\n      tag_25\n      swap2\n      swap1\n      tag_20\n      jump\t// in\n    tag_25:\n      tag_26\n      jump\t// in\n    tag_24:\n      stop\n        /* \"contracts/Course.sol\":527:564  CourseInformation[] public courseName */\n    tag_7:\n      tag_27\n      0x04\n      dup1\n      calldatasize\n      sub\n      dup2\n      add\n      swap1\n      tag_28\n      swap2\n      swap1\n      tag_14\n      jump\t// in\n    tag_28:\n      tag_29\n      jump\t// in\n    tag_27:\n      mload(0x40)\n      tag_30\n      swap2\n      swap1\n      tag_31\n      jump\t// in\n    tag_30:\n      mload(0x40)\n      dup1\n      swap2\n      sub\n      swap1\n      return\n        /* \"contracts/Course.sol\":767:1042  function addHole(\r... */\n    tag_11:\n        /* \"contracts/Course.sol\":926:930  hole */\n      0x00\n        /* \"contracts/Course.sol\":936:983  Hole(_name, _pinPosition, _rating, _holeNumber) */\n      mload(0x40)\n      dup1\n      0x80\n      add\n      0x40\n      mstore\n      dup1\n        /* \"contracts/Course.sol\":941:946  _name */\n      dup7\n        /* \"contracts/Course.sol\":936:983  Hole(_name, _pinPosition, _rating, _holeNumber) */\n      dup2\n      mstore\n      0x20\n      add\n        /* \"contracts/Course.sol\":948:960  _pinPosition */\n      dup6\n        /* \"contracts/Course.sol\":936:983  Hole(_name, _pinPosition, _rating, _holeNumber) */\n      dup2\n      mstore\n      0x20\n      add\n        /* \"contracts/Course.sol\":962:969  _rating */\n      dup5\n        /* \"contracts/Course.sol\":936:983  Hole(_name, _pinPosition, _rating, _holeNumber) */\n      dup2\n      mstore\n      0x20\n      add\n        /* \"contracts/Course.sol\":971:982  _holeNumber */\n      dup4\n        /* \"contracts/Course.sol\":936:983  Hole(_name, _pinPosition, _rating, _holeNumber) */\n      dup2\n      mstore\n      pop\n        /* \"contracts/Course.sol\":926:984  hole.push(Hole(_name, _pinPosition, _rating, _holeNumber)) */\n      swap1\n      dup1\n      0x01\n      dup2\n      sload\n      add\n      dup1\n      dup3\n      sstore\n      dup1\n      swap2\n      pop\n      pop\n      0x01\n      swap1\n      sub\n      swap1\n      0x00\n      mstore\n      keccak256(0x00, 0x20)\n      swap1\n      0x04\n      mul\n      add\n      0x00\n      swap1\n      swap2\n      swap1\n      swap2\n      swap1\n      swap2\n      pop\n      0x00\n      dup3\n      add\n      mload\n      dup2\n      0x00\n      add\n      swap1\n      dup1\n      mload\n      swap1\n      0x20\n      add\n      swap1\n      tag_34\n      swap3\n      swap2\n      swap1\n      tag_35\n      jump\t// in\n    tag_34:\n      pop\n      0x20\n      dup3\n      add\n      mload\n      dup2\n      0x01\n      add\n      sstore\n      0x40\n      dup3\n      add\n      mload\n      dup2\n      0x02\n      add\n      sstore\n      0x60\n      dup3\n      add\n      mload\n      dup2\n      0x03\n      add\n      sstore\n      pop\n      pop\n        /* \"contracts/Course.sol\":1022:1034  _pinPosition */\n      dup3\n        /* \"contracts/Course.sol\":995:1012  holeToPinPosition */\n      0x02\n        /* \"contracts/Course.sol\":1013:1018  _name */\n      dup6\n        /* \"contracts/Course.sol\":995:1019  holeToPinPosition[_name] */\n      mload(0x40)\n      tag_36\n      swap2\n      swap1\n      tag_37\n      jump\t// in\n    tag_36:\n      swap1\n      dup2\n      mstore\n      0x20\n      add\n      mload(0x40)\n      dup1\n      swap2\n      sub\n      swap1\n      keccak256\n        /* \"contracts/Course.sol\":995:1034  holeToPinPosition[_name] = _pinPosition */\n      dup2\n      swap1\n      sstore\n      pop\n        /* \"contracts/Course.sol\":767:1042  function addHole(\r... */\n      pop\n      pop\n      pop\n      pop\n      jump\t// out\n        /* \"contracts/Course.sol\":502:520  Hole[] public hole */\n    tag_15:\n      0x00\n      dup2\n      dup2\n      sload\n      dup2\n      lt\n      tag_38\n      jumpi\n      0x00\n      dup1\n      revert\n    tag_38:\n      swap1\n      0x00\n      mstore\n      keccak256(0x00, 0x20)\n      swap1\n      0x04\n      mul\n      add\n      0x00\n      swap2\n      pop\n      swap1\n      pop\n      dup1\n      0x00\n      add\n      dup1\n      sload\n      tag_40\n      swap1\n      tag_41\n      jump\t// in\n    tag_40:\n      dup1\n      0x1f\n      add\n      0x20\n      dup1\n      swap2\n      div\n      mul\n      0x20\n      add\n      mload(0x40)\n      swap1\n      dup2\n      add\n      0x40\n      mstore\n      dup1\n      swap3\n      swap2\n      swap1\n      dup2\n      dup2\n      mstore\n      0x20\n      add\n      dup3\n      dup1\n      sload\n      tag_42\n      swap1\n      tag_41\n      jump\t// in\n    tag_42:\n      dup1\n      iszero\n      tag_43\n      jumpi\n      dup1\n      0x1f\n      lt\n      tag_44\n      jumpi\n      0x0100\n      dup1\n      dup4\n      sload\n      div\n      mul\n      dup4\n      mstore\n      swap2\n      0x20\n      add\n      swap2\n      jump(tag_43)\n    tag_44:\n      dup3\n      add\n      swap2\n      swap1\n      0x00\n      mstore\n      keccak256(0x00, 0x20)\n      swap1\n    tag_45:\n      dup2\n      sload\n      dup2\n      mstore\n      swap1\n      0x01\n      add\n      swap1\n      0x20\n      add\n      dup1\n      dup4\n      gt\n      tag_45\n      jumpi\n      dup3\n      swap1\n      sub\n      0x1f\n      and\n      dup3\n      add\n      swap2\n    tag_43:\n      pop\n      pop\n      pop\n      pop\n      pop\n      swap1\n      dup1\n      0x01\n      add\n      sload\n      swap1\n      dup1\n      0x02\n      add\n      sload\n      swap1\n      dup1\n      0x03\n      add\n      sload\n      swap1\n      pop\n      dup5\n      jump\t// out\n        /* \"contracts/Course.sol\":573:624  mapping(string => uint256) public holeToPinPosition */\n    tag_21:\n      0x02\n      dup2\n      dup1\n      mload\n      0x20\n      dup2\n      add\n      dup3\n      add\n      dup1\n      mload\n      dup5\n      dup3\n      mstore\n      0x20\n      dup4\n      add\n      0x20\n      dup6\n      add\n      keccak256\n      dup2\n      dup4\n      mstore\n      dup1\n      swap6\n      pop\n      pop\n      pop\n      pop\n      pop\n      pop\n      0x00\n      swap2\n      pop\n      swap1\n      pop\n      sload\n      dup2\n      jump\t// out\n        /* \"contracts/Course.sol\":192:423  function addCourseInformation(\r... */\n    tag_26:\n        /* \"contracts/Course.sol\":368:378  courseName */\n      0x01\n        /* \"contracts/Course.sol\":384:414  CourseInformation(_courseName) */\n      mload(0x40)\n      dup1\n      0x20\n      add\n      0x40\n      mstore\n      dup1\n        /* \"contracts/Course.sol\":402:413  _courseName */\n      dup4\n        /* \"contracts/Course.sol\":384:414  CourseInformation(_courseName) */\n      dup2\n      mstore\n      pop\n        /* \"contracts/Course.sol\":368:415  courseName.push(CourseInformation(_courseName)) */\n      swap1\n      dup1\n      0x01\n      dup2\n      sload\n      add\n      dup1\n      dup3\n      sstore\n      dup1\n      swap2\n      pop\n      pop\n      0x01\n      swap1\n      sub\n      swap1\n      0x00\n      mstore\n      keccak256(0x00, 0x20)\n      add\n      0x00\n      swap1\n      swap2\n      swap1\n      swap2\n      swap1\n      swap2\n      pop\n      0x00\n      dup3\n      add\n      mload\n      dup2\n      0x00\n      add\n      swap1\n      dup1\n      mload\n      swap1\n      0x20\n      add\n      swap1\n      tag_48\n      swap3\n      swap2\n      swap1\n      tag_35\n      jump\t// in\n    tag_48:\n      pop\n      pop\n      pop\n        /* \"contracts/Course.sol\":192:423  function addCourseInformation(\r... */\n      pop\n      jump\t// out\n        /* \"contracts/Course.sol\":527:564  CourseInformation[] public courseName */\n    tag_29:\n      0x01\n      dup2\n      dup2\n      sload\n      dup2\n      lt\n      tag_49\n      jumpi\n      0x00\n      dup1\n      revert\n    tag_49:\n      swap1\n      0x00\n      mstore\n      keccak256(0x00, 0x20)\n      add\n      0x00\n      swap2\n      pop\n      swap1\n      pop\n      dup1\n      0x00\n      add\n      dup1\n      sload\n      tag_51\n      swap1\n      tag_41\n      jump\t// in\n    tag_51:\n      dup1\n      0x1f\n      add\n      0x20\n      dup1\n      swap2\n      div\n      mul\n      0x20\n      add\n      mload(0x40)\n      swap1\n      dup2\n      add\n      0x40\n      mstore\n      dup1\n      swap3\n      swap2\n      swap1\n      dup2\n      dup2\n      mstore\n      0x20\n      add\n      dup3\n      dup1\n      sload\n      tag_52\n      swap1\n      tag_41\n      jump\t// in\n    tag_52:\n      dup1\n      iszero\n      tag_53\n      jumpi\n      dup1\n      0x1f\n      lt\n      tag_54\n      jumpi\n      0x0100\n      dup1\n      dup4\n      sload\n      div\n      mul\n      dup4\n      mstore\n      swap2\n      0x20\n      add\n      swap2\n      jump(tag_53)\n    tag_54:\n      dup3\n      add\n      swap2\n      swap1\n      0x00\n      mstore\n      keccak256(0x00, 0x20)\n      swap1\n    tag_55:\n      dup2\n      sload\n      dup2\n      mstore\n      swap1\n      0x01\n      add\n      swap1\n      0x20\n      add\n      dup1\n      dup4\n      gt\n      tag_55\n      jumpi\n      dup3\n      swap1\n      sub\n      0x1f\n      and\n      dup3\n      add\n      swap2\n    tag_53:\n      pop\n      pop\n      pop\n      pop\n      pop\n      swap1\n      pop\n      dup2\n      jump\t// out\n    tag_35:\n      dup3\n      dup1\n      sload\n      tag_56\n      swap1\n      tag_41\n      jump\t// in\n    tag_56:\n      swap1\n      0x00\n      mstore\n      keccak256(0x00, 0x20)\n      swap1\n      0x1f\n      add\n      0x20\n      swap1\n      div\n      dup2\n      add\n      swap3\n      dup3\n      tag_58\n      jumpi\n      0x00\n      dup6\n      sstore\n      jump(tag_57)\n    tag_58:\n      dup3\n      0x1f\n      lt\n      tag_59\n      jumpi\n      dup1\n      mload\n      not(0xff)\n      and\n      dup4\n      dup1\n      add\n      or\n      dup6\n      sstore\n      jump(tag_57)\n    tag_59:\n      dup3\n      dup1\n      add\n      0x01\n      add\n      dup6\n      sstore\n      dup3\n      iszero\n      tag_57\n      jumpi\n      swap2\n      dup3\n      add\n    tag_60:\n      dup3\n      dup2\n      gt\n      iszero\n      tag_61\n      jumpi\n      dup3\n      mload\n      dup3\n      sstore\n      swap2\n      0x20\n      add\n      swap2\n      swap1\n      0x01\n      add\n      swap1\n      jump(tag_60)\n    tag_61:\n    tag_57:\n      pop\n      swap1\n      pop\n      tag_62\n      swap2\n      swap1\n      tag_63\n      jump\t// in\n    tag_62:\n      pop\n      swap1\n      jump\t// out\n    tag_63:\n    tag_64:\n      dup1\n      dup3\n      gt\n      iszero\n      tag_65\n      jumpi\n      0x00\n      dup2\n      0x00\n      swap1\n      sstore\n      pop\n      0x01\n      add\n      jump(tag_64)\n    tag_65:\n      pop\n      swap1\n      jump\t// out\n        /* \"#utility.yul\":7:419   */\n    tag_67:\n        /* \"#utility.yul\":85:90   */\n      0x00\n        /* \"#utility.yul\":110:176   */\n      tag_69\n        /* \"#utility.yul\":126:175   */\n      tag_70\n        /* \"#utility.yul\":168:174   */\n      dup5\n        /* \"#utility.yul\":126:175   */\n      tag_71\n      jump\t// in\n    tag_70:\n        /* \"#utility.yul\":110:176   */\n      tag_72\n      jump\t// in\n    tag_69:\n        /* \"#utility.yul\":101:176   */\n      swap1\n      pop\n        /* \"#utility.yul\":199:205   */\n      dup3\n        /* \"#utility.yul\":192:197   */\n      dup2\n        /* \"#utility.yul\":185:206   */\n      mstore\n        /* \"#utility.yul\":237:241   */\n      0x20\n        /* \"#utility.yul\":230:235   */\n      dup2\n        /* \"#utility.yul\":226:242   */\n      add\n        /* \"#utility.yul\":275:278   */\n      dup5\n        /* \"#utility.yul\":266:272   */\n      dup5\n        /* \"#utility.yul\":261:264   */\n      dup5\n        /* \"#utility.yul\":257:273   */\n      add\n        /* \"#utility.yul\":254:279   */\n      gt\n        /* \"#utility.yul\":251:363   */\n      iszero\n      tag_73\n      jumpi\n        /* \"#utility.yul\":282:361   */\n      tag_74\n      tag_75\n      jump\t// in\n    tag_74:\n        /* \"#utility.yul\":251:363   */\n    tag_73:\n        /* \"#utility.yul\":372:413   */\n      tag_76\n        /* \"#utility.yul\":406:412   */\n      dup5\n        /* \"#utility.yul\":401:404   */\n      dup3\n        /* \"#utility.yul\":396:399   */\n      dup6\n        /* \"#utility.yul\":372:413   */\n      tag_77\n      jump\t// in\n    tag_76:\n        /* \"#utility.yul\":91:419   */\n      pop\n        /* \"#utility.yul\":7:419   */\n      swap4\n      swap3\n      pop\n      pop\n      pop\n      jump\t// out\n        /* \"#utility.yul\":439:779   */\n    tag_78:\n        /* \"#utility.yul\":495:500   */\n      0x00\n        /* \"#utility.yul\":544:547   */\n      dup3\n        /* \"#utility.yul\":537:541   */\n      0x1f\n        /* \"#utility.yul\":529:535   */\n      dup4\n        /* \"#utility.yul\":525:542   */\n      add\n        /* \"#utility.yul\":521:548   */\n      slt\n        /* \"#utility.yul\":511:633   */\n      tag_80\n      jumpi\n        /* \"#utility.yul\":552:631   */\n      tag_81\n      tag_82\n      jump\t// in\n    tag_81:\n        /* \"#utility.yul\":511:633   */\n    tag_80:\n        /* \"#utility.yul\":669:675   */\n      dup2\n        /* \"#utility.yul\":656:676   */\n      calldataload\n        /* \"#utility.yul\":694:773   */\n      tag_83\n        /* \"#utility.yul\":769:772   */\n      dup5\n        /* \"#utility.yul\":761:767   */\n      dup3\n        /* \"#utility.yul\":754:758   */\n      0x20\n        /* \"#utility.yul\":746:752   */\n      dup7\n        /* \"#utility.yul\":742:759   */\n      add\n        /* \"#utility.yul\":694:773   */\n      tag_67\n      jump\t// in\n    tag_83:\n        /* \"#utility.yul\":685:773   */\n      swap2\n      pop\n        /* \"#utility.yul\":501:779   */\n      pop\n        /* \"#utility.yul\":439:779   */\n      swap3\n      swap2\n      pop\n      pop\n      jump\t// out\n        /* \"#utility.yul\":785:924   */\n    tag_84:\n        /* \"#utility.yul\":831:836   */\n      0x00\n        /* \"#utility.yul\":869:875   */\n      dup2\n        /* \"#utility.yul\":856:876   */\n      calldataload\n        /* \"#utility.yul\":847:876   */\n      swap1\n      pop\n        /* \"#utility.yul\":885:918   */\n      tag_86\n        /* \"#utility.yul\":912:917   */\n      dup2\n        /* \"#utility.yul\":885:918   */\n      tag_87\n      jump\t// in\n    tag_86:\n        /* \"#utility.yul\":785:924   */\n      swap3\n      swap2\n      pop\n      pop\n      jump\t// out\n        /* \"#utility.yul\":930:1439   */\n    tag_20:\n        /* \"#utility.yul\":999:1005   */\n      0x00\n        /* \"#utility.yul\":1048:1050   */\n      0x20\n        /* \"#utility.yul\":1036:1045   */\n      dup3\n        /* \"#utility.yul\":1027:1034   */\n      dup5\n        /* \"#utility.yul\":1023:1046   */\n      sub\n        /* \"#utility.yul\":1019:1051   */\n      slt\n        /* \"#utility.yul\":1016:1135   */\n      iszero\n      tag_89\n      jumpi\n        /* \"#utility.yul\":1054:1133   */\n      tag_90\n      tag_91\n      jump\t// in\n    tag_90:\n        /* \"#utility.yul\":1016:1135   */\n    tag_89:\n        /* \"#utility.yul\":1202:1203   */\n      0x00\n        /* \"#utility.yul\":1191:1200   */\n      dup3\n        /* \"#utility.yul\":1187:1204   */\n      add\n        /* \"#utility.yul\":1174:1205   */\n      calldataload\n        /* \"#utility.yul\":1232:1250   */\n      0xffffffffffffffff\n        /* \"#utility.yul\":1224:1230   */\n      dup2\n        /* \"#utility.yul\":1221:1251   */\n      gt\n        /* \"#utility.yul\":1218:1335   */\n      iszero\n      tag_92\n      jumpi\n        /* \"#utility.yul\":1254:1333   */\n      tag_93\n      tag_94\n      jump\t// in\n    tag_93:\n        /* \"#utility.yul\":1218:1335   */\n    tag_92:\n        /* \"#utility.yul\":1359:1422   */\n      tag_95\n        /* \"#utility.yul\":1414:1421   */\n      dup5\n        /* \"#utility.yul\":1405:1411   */\n      dup3\n        /* \"#utility.yul\":1394:1403   */\n      dup6\n        /* \"#utility.yul\":1390:1412   */\n      add\n        /* \"#utility.yul\":1359:1422   */\n      tag_78\n      jump\t// in\n    tag_95:\n        /* \"#utility.yul\":1349:1422   */\n      swap2\n      pop\n        /* \"#utility.yul\":1145:1432   */\n      pop\n        /* \"#utility.yul\":930:1439   */\n      swap3\n      swap2\n      pop\n      pop\n      jump\t// out\n        /* \"#utility.yul\":1445:2390   */\n    tag_10:\n        /* \"#utility.yul\":1541:1547   */\n      0x00\n        /* \"#utility.yul\":1549:1555   */\n      dup1\n        /* \"#utility.yul\":1557:1563   */\n      0x00\n        /* \"#utility.yul\":1565:1571   */\n      dup1\n        /* \"#utility.yul\":1614:1617   */\n      0x80\n        /* \"#utility.yul\":1602:1611   */\n      dup6\n        /* \"#utility.yul\":1593:1600   */\n      dup8\n        /* \"#utility.yul\":1589:1612   */\n      sub\n        /* \"#utility.yul\":1585:1618   */\n      slt\n        /* \"#utility.yul\":1582:1702   */\n      iszero\n      tag_97\n      jumpi\n        /* \"#utility.yul\":1621:1700   */\n      tag_98\n      tag_91\n      jump\t// in\n    tag_98:\n        /* \"#utility.yul\":1582:1702   */\n    tag_97:\n        /* \"#utility.yul\":1769:1770   */\n      0x00\n        /* \"#utility.yul\":1758:1767   */\n      dup6\n        /* \"#utility.yul\":1754:1771   */\n      add\n        /* \"#utility.yul\":1741:1772   */\n      calldataload\n        /* \"#utility.yul\":1799:1817   */\n      0xffffffffffffffff\n        /* \"#utility.yul\":1791:1797   */\n      dup2\n        /* \"#utility.yul\":1788:1818   */\n      gt\n        /* \"#utility.yul\":1785:1902   */\n      iszero\n      tag_99\n      jumpi\n        /* \"#utility.yul\":1821:1900   */\n      tag_100\n      tag_94\n      jump\t// in\n    tag_100:\n        /* \"#utility.yul\":1785:1902   */\n    tag_99:\n        /* \"#utility.yul\":1926:1989   */\n      tag_101\n        /* \"#utility.yul\":1981:1988   */\n      dup8\n        /* \"#utility.yul\":1972:1978   */\n      dup3\n        /* \"#utility.yul\":1961:1970   */\n      dup9\n        /* \"#utility.yul\":1957:1979   */\n      add\n        /* \"#utility.yul\":1926:1989   */\n      tag_78\n      jump\t// in\n    tag_101:\n        /* \"#utility.yul\":1916:1989   */\n      swap5\n      pop\n        /* \"#utility.yul\":1712:1999   */\n      pop\n        /* \"#utility.yul\":2038:2040   */\n      0x20\n        /* \"#utility.yul\":2064:2117   */\n      tag_102\n        /* \"#utility.yul\":2109:2116   */\n      dup8\n        /* \"#utility.yul\":2100:2106   */\n      dup3\n        /* \"#utility.yul\":2089:2098   */\n      dup9\n        /* \"#utility.yul\":2085:2107   */\n      add\n        /* \"#utility.yul\":2064:2117   */\n      tag_84\n      jump\t// in\n    tag_102:\n        /* \"#utility.yul\":2054:2117   */\n      swap4\n      pop\n        /* \"#utility.yul\":2009:2127   */\n      pop\n        /* \"#utility.yul\":2166:2168   */\n      0x40\n        /* \"#utility.yul\":2192:2245   */\n      tag_103\n        /* \"#utility.yul\":2237:2244   */\n      dup8\n        /* \"#utility.yul\":2228:2234   */\n      dup3\n        /* \"#utility.yul\":2217:2226   */\n      dup9\n        /* \"#utility.yul\":2213:2235   */\n      add\n        /* \"#utility.yul\":2192:2245   */\n      tag_84\n      jump\t// in\n    tag_103:\n        /* \"#utility.yul\":2182:2245   */\n      swap3\n      pop\n        /* \"#utility.yul\":2137:2255   */\n      pop\n        /* \"#utility.yul\":2294:2296   */\n      0x60\n        /* \"#utility.yul\":2320:2373   */\n      tag_104\n        /* \"#utility.yul\":2365:2372   */\n      dup8\n        /* \"#utility.yul\":2356:2362   */\n      dup3\n        /* \"#utility.yul\":2345:2354   */\n      dup9\n        /* \"#utility.yul\":2341:2363   */\n      add\n        /* \"#utility.yul\":2320:2373   */\n      tag_84\n      jump\t// in\n    tag_104:\n        /* \"#utility.yul\":2310:2373   */\n      swap2\n      pop\n        /* \"#utility.yul\":2265:2383   */\n      pop\n        /* \"#utility.yul\":1445:2390   */\n      swap3\n      swap6\n      swap2\n      swap5\n      pop\n      swap3\n      pop\n      jump\t// out\n        /* \"#utility.yul\":2396:2725   */\n    tag_14:\n        /* \"#utility.yul\":2455:2461   */\n      0x00\n        /* \"#utility.yul\":2504:2506   */\n      0x20\n        /* \"#utility.yul\":2492:2501   */\n      dup3\n        /* \"#utility.yul\":2483:2490   */\n      dup5\n        /* \"#utility.yul\":2479:2502   */\n      sub\n        /* \"#utility.yul\":2475:2507   */\n      slt\n        /* \"#utility.yul\":2472:2591   */\n      iszero\n      tag_106\n      jumpi\n        /* \"#utility.yul\":2510:2589   */\n      tag_107\n      tag_91\n      jump\t// in\n    tag_107:\n        /* \"#utility.yul\":2472:2591   */\n    tag_106:\n        /* \"#utility.yul\":2630:2631   */\n      0x00\n        /* \"#utility.yul\":2655:2708   */\n      tag_108\n        /* \"#utility.yul\":2700:2707   */\n      dup5\n        /* \"#utility.yul\":2691:2697   */\n      dup3\n        /* \"#utility.yul\":2680:2689   */\n      dup6\n        /* \"#utility.yul\":2676:2698   */\n      add\n        /* \"#utility.yul\":2655:2708   */\n      tag_84\n      jump\t// in\n    tag_108:\n        /* \"#utility.yul\":2645:2708   */\n      swap2\n      pop\n        /* \"#utility.yul\":2601:2718   */\n      pop\n        /* \"#utility.yul\":2396:2725   */\n      swap3\n      swap2\n      pop\n      pop\n      jump\t// out\n        /* \"#utility.yul\":2731:3095   */\n    tag_109:\n        /* \"#utility.yul\":2819:2822   */\n      0x00\n        /* \"#utility.yul\":2847:2886   */\n      tag_111\n        /* \"#utility.yul\":2880:2885   */\n      dup3\n        /* \"#utility.yul\":2847:2886   */\n      tag_112\n      jump\t// in\n    tag_111:\n        /* \"#utility.yul\":2902:2973   */\n      tag_113\n        /* \"#utility.yul\":2966:2972   */\n      dup2\n        /* \"#utility.yul\":2961:2964   */\n      dup6\n        /* \"#utility.yul\":2902:2973   */\n      tag_114\n      jump\t// in\n    tag_113:\n        /* \"#utility.yul\":2895:2973   */\n      swap4\n      pop\n        /* \"#utility.yul\":2982:3034   */\n      tag_115\n        /* \"#utility.yul\":3027:3033   */\n      dup2\n        /* \"#utility.yul\":3022:3025   */\n      dup6\n        /* \"#utility.yul\":3015:3019   */\n      0x20\n        /* \"#utility.yul\":3008:3013   */\n      dup7\n        /* \"#utility.yul\":3004:3020   */\n      add\n        /* \"#utility.yul\":2982:3034   */\n      tag_116\n      jump\t// in\n    tag_115:\n        /* \"#utility.yul\":3059:3088   */\n      tag_117\n        /* \"#utility.yul\":3081:3087   */\n      dup2\n        /* \"#utility.yul\":3059:3088   */\n      tag_118\n      jump\t// in\n    tag_117:\n        /* \"#utility.yul\":3054:3057   */\n      dup5\n        /* \"#utility.yul\":3050:3089   */\n      add\n        /* \"#utility.yul\":3043:3089   */\n      swap2\n      pop\n        /* \"#utility.yul\":2823:3095   */\n      pop\n        /* \"#utility.yul\":2731:3095   */\n      swap3\n      swap2\n      pop\n      pop\n      jump\t// out\n        /* \"#utility.yul\":3101:3478   */\n    tag_119:\n        /* \"#utility.yul\":3207:3210   */\n      0x00\n        /* \"#utility.yul\":3235:3274   */\n      tag_121\n        /* \"#utility.yul\":3268:3273   */\n      dup3\n        /* \"#utility.yul\":3235:3274   */\n      tag_112\n      jump\t// in\n    tag_121:\n        /* \"#utility.yul\":3290:3379   */\n      tag_122\n        /* \"#utility.yul\":3372:3378   */\n      dup2\n        /* \"#utility.yul\":3367:3370   */\n      dup6\n        /* \"#utility.yul\":3290:3379   */\n      tag_123\n      jump\t// in\n    tag_122:\n        /* \"#utility.yul\":3283:3379   */\n      swap4\n      pop\n        /* \"#utility.yul\":3388:3440   */\n      tag_124\n        /* \"#utility.yul\":3433:3439   */\n      dup2\n        /* \"#utility.yul\":3428:3431   */\n      dup6\n        /* \"#utility.yul\":3421:3425   */\n      0x20\n        /* \"#utility.yul\":3414:3419   */\n      dup7\n        /* \"#utility.yul\":3410:3426   */\n      add\n        /* \"#utility.yul\":3388:3440   */\n      tag_116\n      jump\t// in\n    tag_124:\n        /* \"#utility.yul\":3465:3471   */\n      dup1\n        /* \"#utility.yul\":3460:3463   */\n      dup5\n        /* \"#utility.yul\":3456:3472   */\n      add\n        /* \"#utility.yul\":3449:3472   */\n      swap2\n      pop\n        /* \"#utility.yul\":3211:3478   */\n      pop\n        /* \"#utility.yul\":3101:3478   */\n      swap3\n      swap2\n      pop\n      pop\n      jump\t// out\n        /* \"#utility.yul\":3484:3602   */\n    tag_125:\n        /* \"#utility.yul\":3571:3595   */\n      tag_127\n        /* \"#utility.yul\":3589:3594   */\n      dup2\n        /* \"#utility.yul\":3571:3595   */\n      tag_128\n      jump\t// in\n    tag_127:\n        /* \"#utility.yul\":3566:3569   */\n      dup3\n        /* \"#utility.yul\":3559:3596   */\n      mstore\n        /* \"#utility.yul\":3484:3602   */\n      pop\n      pop\n      jump\t// out\n        /* \"#utility.yul\":3608:3883   */\n    tag_37:\n        /* \"#utility.yul\":3740:3743   */\n      0x00\n        /* \"#utility.yul\":3762:3857   */\n      tag_130\n        /* \"#utility.yul\":3853:3856   */\n      dup3\n        /* \"#utility.yul\":3844:3850   */\n      dup5\n        /* \"#utility.yul\":3762:3857   */\n      tag_119\n      jump\t// in\n    tag_130:\n        /* \"#utility.yul\":3755:3857   */\n      swap2\n      pop\n        /* \"#utility.yul\":3874:3877   */\n      dup2\n        /* \"#utility.yul\":3867:3877   */\n      swap1\n      pop\n        /* \"#utility.yul\":3608:3883   */\n      swap3\n      swap2\n      pop\n      pop\n      jump\t// out\n        /* \"#utility.yul\":3889:4202   */\n    tag_31:\n        /* \"#utility.yul\":4002:4006   */\n      0x00\n        /* \"#utility.yul\":4040:4042   */\n      0x20\n        /* \"#utility.yul\":4029:4038   */\n      dup3\n        /* \"#utility.yul\":4025:4043   */\n      add\n        /* \"#utility.yul\":4017:4043   */\n      swap1\n      pop\n        /* \"#utility.yul\":4089:4098   */\n      dup2\n        /* \"#utility.yul\":4083:4087   */\n      dup2\n        /* \"#utility.yul\":4079:4099   */\n      sub\n        /* \"#utility.yul\":4075:4076   */\n      0x00\n        /* \"#utility.yul\":4064:4073   */\n      dup4\n        /* \"#utility.yul\":4060:4077   */\n      add\n        /* \"#utility.yul\":4053:4100   */\n      mstore\n        /* \"#utility.yul\":4117:4195   */\n      tag_132\n        /* \"#utility.yul\":4190:4194   */\n      dup2\n        /* \"#utility.yul\":4181:4187   */\n      dup5\n        /* \"#utility.yul\":4117:4195   */\n      tag_109\n      jump\t// in\n    tag_132:\n        /* \"#utility.yul\":4109:4195   */\n      swap1\n      pop\n        /* \"#utility.yul\":3889:4202   */\n      swap3\n      swap2\n      pop\n      pop\n      jump\t// out\n        /* \"#utility.yul\":4208:4852   */\n    tag_17:\n        /* \"#utility.yul\":4405:4409   */\n      0x00\n        /* \"#utility.yul\":4443:4446   */\n      0x80\n        /* \"#utility.yul\":4432:4441   */\n      dup3\n        /* \"#utility.yul\":4428:4447   */\n      add\n        /* \"#utility.yul\":4420:4447   */\n      swap1\n      pop\n        /* \"#utility.yul\":4493:4502   */\n      dup2\n        /* \"#utility.yul\":4487:4491   */\n      dup2\n        /* \"#utility.yul\":4483:4503   */\n      sub\n        /* \"#utility.yul\":4479:4480   */\n      0x00\n        /* \"#utility.yul\":4468:4477   */\n      dup4\n        /* \"#utility.yul\":4464:4481   */\n      add\n        /* \"#utility.yul\":4457:4504   */\n      mstore\n        /* \"#utility.yul\":4521:4599   */\n      tag_134\n        /* \"#utility.yul\":4594:4598   */\n      dup2\n        /* \"#utility.yul\":4585:4591   */\n      dup8\n        /* \"#utility.yul\":4521:4599   */\n      tag_109\n      jump\t// in\n    tag_134:\n        /* \"#utility.yul\":4513:4599   */\n      swap1\n      pop\n        /* \"#utility.yul\":4609:4681   */\n      tag_135\n        /* \"#utility.yul\":4677:4679   */\n      0x20\n        /* \"#utility.yul\":4666:4675   */\n      dup4\n        /* \"#utility.yul\":4662:4680   */\n      add\n        /* \"#utility.yul\":4653:4659   */\n      dup7\n        /* \"#utility.yul\":4609:4681   */\n      tag_125\n      jump\t// in\n    tag_135:\n        /* \"#utility.yul\":4691:4763   */\n      tag_136\n        /* \"#utility.yul\":4759:4761   */\n      0x40\n        /* \"#utility.yul\":4748:4757   */\n      dup4\n        /* \"#utility.yul\":4744:4762   */\n      add\n        /* \"#utility.yul\":4735:4741   */\n      dup6\n        /* \"#utility.yul\":4691:4763   */\n      tag_125\n      jump\t// in\n    tag_136:\n        /* \"#utility.yul\":4773:4845   */\n      tag_137\n        /* \"#utility.yul\":4841:4843   */\n      0x60\n        /* \"#utility.yul\":4830:4839   */\n      dup4\n        /* \"#utility.yul\":4826:4844   */\n      add\n        /* \"#utility.yul\":4817:4823   */\n      dup5\n        /* \"#utility.yul\":4773:4845   */\n      tag_125\n      jump\t// in\n    tag_137:\n        /* \"#utility.yul\":4208:4852   */\n      swap6\n      swap5\n      pop\n      pop\n      pop\n      pop\n      pop\n      jump\t// out\n        /* \"#utility.yul\":4858:5080   */\n    tag_23:\n        /* \"#utility.yul\":4951:4955   */\n      0x00\n        /* \"#utility.yul\":4989:4991   */\n      0x20\n        /* \"#utility.yul\":4978:4987   */\n      dup3\n        /* \"#utility.yul\":4974:4992   */\n      add\n        /* \"#utility.yul\":4966:4992   */\n      swap1\n      pop\n        /* \"#utility.yul\":5002:5073   */\n      tag_139\n        /* \"#utility.yul\":5070:5071   */\n      0x00\n        /* \"#utility.yul\":5059:5068   */\n      dup4\n        /* \"#utility.yul\":5055:5072   */\n      add\n        /* \"#utility.yul\":5046:5052   */\n      dup5\n        /* \"#utility.yul\":5002:5073   */\n      tag_125\n      jump\t// in\n    tag_139:\n        /* \"#utility.yul\":4858:5080   */\n      swap3\n      swap2\n      pop\n      pop\n      jump\t// out\n        /* \"#utility.yul\":5086:5215   */\n    tag_72:\n        /* \"#utility.yul\":5120:5126   */\n      0x00\n        /* \"#utility.yul\":5147:5167   */\n      tag_141\n      tag_142\n      jump\t// in\n    tag_141:\n        /* \"#utility.yul\":5137:5167   */\n      swap1\n      pop\n        /* \"#utility.yul\":5176:5209   */\n      tag_143\n        /* \"#utility.yul\":5204:5208   */\n      dup3\n        /* \"#utility.yul\":5196:5202   */\n      dup3\n        /* \"#utility.yul\":5176:5209   */\n      tag_144\n      jump\t// in\n    tag_143:\n        /* \"#utility.yul\":5086:5215   */\n      swap2\n      swap1\n      pop\n      jump\t// out\n        /* \"#utility.yul\":5221:5296   */\n    tag_142:\n        /* \"#utility.yul\":5254:5260   */\n      0x00\n        /* \"#utility.yul\":5287:5289   */\n      0x40\n        /* \"#utility.yul\":5281:5290   */\n      mload\n        /* \"#utility.yul\":5271:5290   */\n      swap1\n      pop\n        /* \"#utility.yul\":5221:5296   */\n      swap1\n      jump\t// out\n        /* \"#utility.yul\":5302:5610   */\n    tag_71:\n        /* \"#utility.yul\":5364:5368   */\n      0x00\n        /* \"#utility.yul\":5454:5472   */\n      0xffffffffffffffff\n        /* \"#utility.yul\":5446:5452   */\n      dup3\n        /* \"#utility.yul\":5443:5473   */\n      gt\n        /* \"#utility.yul\":5440:5496   */\n      iszero\n      tag_147\n      jumpi\n        /* \"#utility.yul\":5476:5494   */\n      tag_148\n      tag_149\n      jump\t// in\n    tag_148:\n        /* \"#utility.yul\":5440:5496   */\n    tag_147:\n        /* \"#utility.yul\":5514:5543   */\n      tag_150\n        /* \"#utility.yul\":5536:5542   */\n      dup3\n        /* \"#utility.yul\":5514:5543   */\n      tag_118\n      jump\t// in\n    tag_150:\n        /* \"#utility.yul\":5506:5543   */\n      swap1\n      pop\n        /* \"#utility.yul\":5598:5602   */\n      0x20\n        /* \"#utility.yul\":5592:5596   */\n      dup2\n        /* \"#utility.yul\":5588:5603   */\n      add\n        /* \"#utility.yul\":5580:5603   */\n      swap1\n      pop\n        /* \"#utility.yul\":5302:5610   */\n      swap2\n      swap1\n      pop\n      jump\t// out\n        /* \"#utility.yul\":5616:5715   */\n    tag_112:\n        /* \"#utility.yul\":5668:5674   */\n      0x00\n        /* \"#utility.yul\":5702:5707   */\n      dup2\n        /* \"#utility.yul\":5696:5708   */\n      mload\n        /* \"#utility.yul\":5686:5708   */\n      swap1\n      pop\n        /* \"#utility.yul\":5616:5715   */\n      swap2\n      swap1\n      pop\n      jump\t// out\n        /* \"#utility.yul\":5721:5890   */\n    tag_114:\n        /* \"#utility.yul\":5805:5816   */\n      0x00\n        /* \"#utility.yul\":5839:5845   */\n      dup3\n        /* \"#utility.yul\":5834:5837   */\n      dup3\n        /* \"#utility.yul\":5827:5846   */\n      mstore\n        /* \"#utility.yul\":5879:5883   */\n      0x20\n        /* \"#utility.yul\":5874:5877   */\n      dup3\n        /* \"#utility.yul\":5870:5884   */\n      add\n        /* \"#utility.yul\":5855:5884   */\n      swap1\n      pop\n        /* \"#utility.yul\":5721:5890   */\n      swap3\n      swap2\n      pop\n      pop\n      jump\t// out\n        /* \"#utility.yul\":5896:6044   */\n    tag_123:\n        /* \"#utility.yul\":5998:6009   */\n      0x00\n        /* \"#utility.yul\":6035:6038   */\n      dup2\n        /* \"#utility.yul\":6020:6038   */\n      swap1\n      pop\n        /* \"#utility.yul\":5896:6044   */\n      swap3\n      swap2\n      pop\n      pop\n      jump\t// out\n        /* \"#utility.yul\":6050:6127   */\n    tag_128:\n        /* \"#utility.yul\":6087:6094   */\n      0x00\n        /* \"#utility.yul\":6116:6121   */\n      dup2\n        /* \"#utility.yul\":6105:6121   */\n      swap1\n      pop\n        /* \"#utility.yul\":6050:6127   */\n      swap2\n      swap1\n      pop\n      jump\t// out\n        /* \"#utility.yul\":6133:6287   */\n    tag_77:\n        /* \"#utility.yul\":6217:6223   */\n      dup3\n        /* \"#utility.yul\":6212:6215   */\n      dup2\n        /* \"#utility.yul\":6207:6210   */\n      dup4\n        /* \"#utility.yul\":6194:6224   */\n      calldatacopy\n        /* \"#utility.yul\":6279:6280   */\n      0x00\n        /* \"#utility.yul\":6270:6276   */\n      dup4\n        /* \"#utility.yul\":6265:6268   */\n      dup4\n        /* \"#utility.yul\":6261:6277   */\n      add\n        /* \"#utility.yul\":6254:6281   */\n      mstore\n        /* \"#utility.yul\":6133:6287   */\n      pop\n      pop\n      pop\n      jump\t// out\n        /* \"#utility.yul\":6293:6600   */\n    tag_116:\n        /* \"#utility.yul\":6361:6362   */\n      0x00\n        /* \"#utility.yul\":6371:6484   */\n    tag_157:\n        /* \"#utility.yul\":6385:6391   */\n      dup4\n        /* \"#utility.yul\":6382:6383   */\n      dup2\n        /* \"#utility.yul\":6379:6392   */\n      lt\n        /* \"#utility.yul\":6371:6484   */\n      iszero\n      tag_159\n      jumpi\n        /* \"#utility.yul\":6470:6471   */\n      dup1\n        /* \"#utility.yul\":6465:6468   */\n      dup3\n        /* \"#utility.yul\":6461:6472   */\n      add\n        /* \"#utility.yul\":6455:6473   */\n      mload\n        /* \"#utility.yul\":6451:6452   */\n      dup2\n        /* \"#utility.yul\":6446:6449   */\n      dup5\n        /* \"#utility.yul\":6442:6453   */\n      add\n        /* \"#utility.yul\":6435:6474   */\n      mstore\n        /* \"#utility.yul\":6407:6409   */\n      0x20\n        /* \"#utility.yul\":6404:6405   */\n      dup2\n        /* \"#utility.yul\":6400:6410   */\n      add\n        /* \"#utility.yul\":6395:6410   */\n      swap1\n      pop\n        /* \"#utility.yul\":6371:6484   */\n      jump(tag_157)\n    tag_159:\n        /* \"#utility.yul\":6502:6508   */\n      dup4\n        /* \"#utility.yul\":6499:6500   */\n      dup2\n        /* \"#utility.yul\":6496:6509   */\n      gt\n        /* \"#utility.yul\":6493:6594   */\n      iszero\n      tag_160\n      jumpi\n        /* \"#utility.yul\":6582:6583   */\n      0x00\n        /* \"#utility.yul\":6573:6579   */\n      dup5\n        /* \"#utility.yul\":6568:6571   */\n      dup5\n        /* \"#utility.yul\":6564:6580   */\n      add\n        /* \"#utility.yul\":6557:6584   */\n      mstore\n        /* \"#utility.yul\":6493:6594   */\n    tag_160:\n        /* \"#utility.yul\":6342:6600   */\n      pop\n        /* \"#utility.yul\":6293:6600   */\n      pop\n      pop\n      pop\n      jump\t// out\n        /* \"#utility.yul\":6606:6926   */\n    tag_41:\n        /* \"#utility.yul\":6650:6656   */\n      0x00\n        /* \"#utility.yul\":6687:6688   */\n      0x02\n        /* \"#utility.yul\":6681:6685   */\n      dup3\n        /* \"#utility.yul\":6677:6689   */\n      div\n        /* \"#utility.yul\":6667:6689   */\n      swap1\n      pop\n        /* \"#utility.yul\":6734:6735   */\n      0x01\n        /* \"#utility.yul\":6728:6732   */\n      dup3\n        /* \"#utility.yul\":6724:6736   */\n      and\n        /* \"#utility.yul\":6755:6773   */\n      dup1\n        /* \"#utility.yul\":6745:6826   */\n      tag_162\n      jumpi\n        /* \"#utility.yul\":6811:6815   */\n      0x7f\n        /* \"#utility.yul\":6803:6809   */\n      dup3\n        /* \"#utility.yul\":6799:6816   */\n      and\n        /* \"#utility.yul\":6789:6816   */\n      swap2\n      pop\n        /* \"#utility.yul\":6745:6826   */\n    tag_162:\n        /* \"#utility.yul\":6873:6875   */\n      0x20\n        /* \"#utility.yul\":6865:6871   */\n      dup3\n        /* \"#utility.yul\":6862:6876   */\n      lt\n        /* \"#utility.yul\":6842:6860   */\n      dup2\n        /* \"#utility.yul\":6839:6877   */\n      eq\n        /* \"#utility.yul\":6836:6920   */\n      iszero\n      tag_163\n      jumpi\n        /* \"#utility.yul\":6892:6910   */\n      tag_164\n      tag_165\n      jump\t// in\n    tag_164:\n        /* \"#utility.yul\":6836:6920   */\n    tag_163:\n        /* \"#utility.yul\":6657:6926   */\n      pop\n        /* \"#utility.yul\":6606:6926   */\n      swap2\n      swap1\n      pop\n      jump\t// out\n        /* \"#utility.yul\":6932:7213   */\n    tag_144:\n        /* \"#utility.yul\":7015:7042   */\n      tag_167\n        /* \"#utility.yul\":7037:7041   */\n      dup3\n        /* \"#utility.yul\":7015:7042   */\n      tag_118\n      jump\t// in\n    tag_167:\n        /* \"#utility.yul\":7007:7013   */\n      dup2\n        /* \"#utility.yul\":7003:7043   */\n      add\n        /* \"#utility.yul\":7145:7151   */\n      dup2\n        /* \"#utility.yul\":7133:7143   */\n      dup2\n        /* \"#utility.yul\":7130:7152   */\n      lt\n        /* \"#utility.yul\":7109:7127   */\n      0xffffffffffffffff\n        /* \"#utility.yul\":7097:7107   */\n      dup3\n        /* \"#utility.yul\":7094:7128   */\n      gt\n        /* \"#utility.yul\":7091:7153   */\n      or\n        /* \"#utility.yul\":7088:7176   */\n      iszero\n      tag_168\n      jumpi\n        /* \"#utility.yul\":7156:7174   */\n      tag_169\n      tag_149\n      jump\t// in\n    tag_169:\n        /* \"#utility.yul\":7088:7176   */\n    tag_168:\n        /* \"#utility.yul\":7196:7206   */\n      dup1\n        /* \"#utility.yul\":7192:7194   */\n      0x40\n        /* \"#utility.yul\":7185:7207   */\n      mstore\n        /* \"#utility.yul\":6975:7213   */\n      pop\n        /* \"#utility.yul\":6932:7213   */\n      pop\n      pop\n      jump\t// out\n        /* \"#utility.yul\":7219:7399   */\n    tag_165:\n        /* \"#utility.yul\":7267:7344   */\n      0x4e487b7100000000000000000000000000000000000000000000000000000000\n        /* \"#utility.yul\":7264:7265   */\n      0x00\n        /* \"#utility.yul\":7257:7345   */\n      mstore\n        /* \"#utility.yul\":7364:7368   */\n      0x22\n        /* \"#utility.yul\":7361:7362   */\n      0x04\n        /* \"#utility.yul\":7354:7369   */\n      mstore\n        /* \"#utility.yul\":7388:7392   */\n      0x24\n        /* \"#utility.yul\":7385:7386   */\n      0x00\n        /* \"#utility.yul\":7378:7393   */\n      revert\n        /* \"#utility.yul\":7405:7585   */\n    tag_149:\n        /* \"#utility.yul\":7453:7530   */\n      0x4e487b7100000000000000000000000000000000000000000000000000000000\n        /* \"#utility.yul\":7450:7451   */\n      0x00\n        /* \"#utility.yul\":7443:7531   */\n      mstore\n        /* \"#utility.yul\":7550:7554   */\n      0x41\n        /* \"#utility.yul\":7547:7548   */\n      0x04\n        /* \"#utility.yul\":7540:7555   */\n      mstore\n        /* \"#utility.yul\":7574:7578   */\n      0x24\n        /* \"#utility.yul\":7571:7572   */\n      0x00\n        /* \"#utility.yul\":7564:7579   */\n      revert\n        /* \"#utility.yul\":7591:7708   */\n    tag_82:\n        /* \"#utility.yul\":7700:7701   */\n      0x00\n        /* \"#utility.yul\":7697:7698   */\n      dup1\n        /* \"#utility.yul\":7690:7702   */\n      revert\n        /* \"#utility.yul\":7714:7831   */\n    tag_75:\n        /* \"#utility.yul\":7823:7824   */\n      0x00\n        /* \"#utility.yul\":7820:7821   */\n      dup1\n        /* \"#utility.yul\":7813:7825   */\n      revert\n        /* \"#utility.yul\":7837:7954   */\n    tag_94:\n        /* \"#utility.yul\":7946:7947   */\n      0x00\n        /* \"#utility.yul\":7943:7944   */\n      dup1\n        /* \"#utility.yul\":7936:7948   */\n      revert\n        /* \"#utility.yul\":7960:8077   */\n    tag_91:\n        /* \"#utility.yul\":8069:8070   */\n      0x00\n        /* \"#utility.yul\":8066:8067   */\n      dup1\n        /* \"#utility.yul\":8059:8071   */\n      revert\n        /* \"#utility.yul\":8083:8185   */\n    tag_118:\n        /* \"#utility.yul\":8124:8130   */\n      0x00\n        /* \"#utility.yul\":8175:8177   */\n      0x1f\n        /* \"#utility.yul\":8171:8178   */\n      not\n        /* \"#utility.yul\":8166:8168   */\n      0x1f\n        /* \"#utility.yul\":8159:8164   */\n      dup4\n        /* \"#utility.yul\":8155:8169   */\n      add\n        /* \"#utility.yul\":8151:8179   */\n      and\n        /* \"#utility.yul\":8141:8179   */\n      swap1\n      pop\n        /* \"#utility.yul\":8083:8185   */\n      swap2\n      swap1\n      pop\n      jump\t// out\n        /* \"#utility.yul\":8191:8313   */\n    tag_87:\n        /* \"#utility.yul\":8264:8288   */\n      tag_178\n        /* \"#utility.yul\":8282:8287   */\n      dup2\n        /* \"#utility.yul\":8264:8288   */\n      tag_128\n      jump\t// in\n    tag_178:\n        /* \"#utility.yul\":8257:8262   */\n      dup2\n        /* \"#utility.yul\":8254:8289   */\n      eq\n        /* \"#utility.yul\":8244:8307   */\n      tag_179\n      jumpi\n        /* \"#utility.yul\":8303:8304   */\n      0x00\n        /* \"#utility.yul\":8300:8301   */\n      dup1\n        /* \"#utility.yul\":8293:8305   */\n      revert\n        /* \"#utility.yul\":8244:8307   */\n    tag_179:\n        /* \"#utility.yul\":8191:8313   */\n      pop\n      jump\t// out\n\n    auxdata: 0xa26469706673582212206b27fd5449b5fedeaf9623811753ecaceca01ed9f9beaf243196a6f42f4b9d2e64736f6c63430008070033\n}\n",
				"bytecode": {
					"linkReferences": {},
					"object": "608060405234801561001057600080fd5b5061090f806100206000396000f3fe608060405234801561001057600080fd5b50600436106100575760003560e01c80639c40480d1461005c5780639d2614e514610078578063b70934fc146100ab578063c0bf9eaa146100db578063f44fa750146100f7575b600080fd5b6100766004803603810190610071919061054a565b610127565b005b610092600480360381019061008d91906105cd565b6101d9565b6040516100a294939291906106ac565b60405180910390f35b6100c560048036038101906100c09190610501565b6102a1565b6040516100d291906106f8565b60405180910390f35b6100f560048036038101906100f09190610501565b6102cf565b005b610111600480360381019061010c91906105cd565b610327565b60405161011e919061068a565b60405180910390f35b60006040518060800160405280868152602001858152602001848152602001838152509080600181540180825580915050600190039060005260206000209060040201600090919091909150600082015181600001908051906020019061018f9291906103d9565b506020820151816001015560408201518160020155606082015181600301555050826002856040516101c19190610673565b90815260200160405180910390208190555050505050565b600081815481106101e957600080fd5b906000526020600020906004020160009150905080600001805461020c906107dc565b80601f0160208091040260200160405190810160405280929190818152602001828054610238906107dc565b80156102855780601f1061025a57610100808354040283529160200191610285565b820191906000526020600020905b81548152906001019060200180831161026857829003601f168201915b5050505050908060010154908060020154908060030154905084565b6002818051602081018201805184825260208301602085012081835280955050505050506000915090505481565b60016040518060200160405280838152509080600181540180825580915050600190039060005260206000200160009091909190915060008201518160000190805190602001906103219291906103d9565b50505050565b6001818154811061033757600080fd5b90600052602060002001600091509050806000018054610356906107dc565b80601f0160208091040260200160405190810160405280929190818152602001828054610382906107dc565b80156103cf5780601f106103a4576101008083540402835291602001916103cf565b820191906000526020600020905b8154815290600101906020018083116103b257829003601f168201915b5050505050905081565b8280546103e5906107dc565b90600052602060002090601f016020900481019282610407576000855561044e565b82601f1061042057805160ff191683800117855561044e565b8280016001018555821561044e579182015b8281111561044d578251825591602001919060010190610432565b5b50905061045b919061045f565b5090565b5b80821115610478576000816000905550600101610460565b5090565b600061048f61048a84610738565b610713565b9050828152602081018484840111156104ab576104aa6108a2565b5b6104b684828561079a565b509392505050565b600082601f8301126104d3576104d261089d565b5b81356104e384826020860161047c565b91505092915050565b6000813590506104fb816108c2565b92915050565b600060208284031215610517576105166108ac565b5b600082013567ffffffffffffffff811115610535576105346108a7565b5b610541848285016104be565b91505092915050565b60008060008060808587031215610564576105636108ac565b5b600085013567ffffffffffffffff811115610582576105816108a7565b5b61058e878288016104be565b945050602061059f878288016104ec565b93505060406105b0878288016104ec565b92505060606105c1878288016104ec565b91505092959194509250565b6000602082840312156105e3576105e26108ac565b5b60006105f1848285016104ec565b91505092915050565b600061060582610769565b61060f8185610774565b935061061f8185602086016107a9565b610628816108b1565b840191505092915050565b600061063e82610769565b6106488185610785565b93506106588185602086016107a9565b80840191505092915050565b61066d81610790565b82525050565b600061067f8284610633565b915081905092915050565b600060208201905081810360008301526106a481846105fa565b905092915050565b600060808201905081810360008301526106c681876105fa565b90506106d56020830186610664565b6106e26040830185610664565b6106ef6060830184610664565b95945050505050565b600060208201905061070d6000830184610664565b92915050565b600061071d61072e565b9050610729828261080e565b919050565b6000604051905090565b600067ffffffffffffffff8211156107535761075261086e565b5b61075c826108b1565b9050602081019050919050565b600081519050919050565b600082825260208201905092915050565b600081905092915050565b6000819050919050565b82818337600083830152505050565b60005b838110156107c75780820151818401526020810190506107ac565b838111156107d6576000848401525b50505050565b600060028204905060018216806107f457607f821691505b602082108114156108085761080761083f565b5b50919050565b610817826108b1565b810181811067ffffffffffffffff821117156108365761083561086e565b5b80604052505050565b7f4e487b7100000000000000000000000000000000000000000000000000000000600052602260045260246000fd5b7f4e487b7100000000000000000000000000000000000000000000000000000000600052604160045260246000fd5b600080fd5b600080fd5b600080fd5b600080fd5b6000601f19601f8301169050919050565b6108cb81610790565b81146108d657600080fd5b5056fea26469706673582212206b27fd5449b5fedeaf9623811753ecaceca01ed9f9beaf243196a6f42f4b9d2e64736f6c63430008070033",
					"opcodes": "PUSH1 0x80 PUSH1 0x40 MSTORE CALLVALUE DUP1 ISZERO PUSH2 0x10 JUMPI PUSH1 0x0 DUP1 REVERT JUMPDEST POP PUSH2 0x90F DUP1 PUSH2 0x20 PUSH1 0x0 CODECOPY PUSH1 0x0 RETURN INVALID PUSH1 0x80 PUSH1 0x40 MSTORE CALLVALUE DUP1 ISZERO PUSH2 0x10 JUMPI PUSH1 0x0 DUP1 REVERT JUMPDEST POP PUSH1 0x4 CALLDATASIZE LT PUSH2 0x57 JUMPI PUSH1 0x0 CALLDATALOAD PUSH1 0xE0 SHR DUP1 PUSH4 0x9C40480D EQ PUSH2 0x5C JUMPI DUP1 PUSH4 0x9D2614E5 EQ PUSH2 0x78 JUMPI DUP1 PUSH4 0xB70934FC EQ PUSH2 0xAB JUMPI DUP1 PUSH4 0xC0BF9EAA EQ PUSH2 0xDB JUMPI DUP1 PUSH4 0xF44FA750 EQ PUSH2 0xF7 JUMPI JUMPDEST PUSH1 0x0 DUP1 REVERT JUMPDEST PUSH2 0x76 PUSH1 0x4 DUP1 CALLDATASIZE SUB DUP2 ADD SWAP1 PUSH2 0x71 SWAP2 SWAP1 PUSH2 0x54A JUMP JUMPDEST PUSH2 0x127 JUMP JUMPDEST STOP JUMPDEST PUSH2 0x92 PUSH1 0x4 DUP1 CALLDATASIZE SUB DUP2 ADD SWAP1 PUSH2 0x8D SWAP2 SWAP1 PUSH2 0x5CD JUMP JUMPDEST PUSH2 0x1D9 JUMP JUMPDEST PUSH1 0x40 MLOAD PUSH2 0xA2 SWAP5 SWAP4 SWAP3 SWAP2 SWAP1 PUSH2 0x6AC JUMP JUMPDEST PUSH1 0x40 MLOAD DUP1 SWAP2 SUB SWAP1 RETURN JUMPDEST PUSH2 0xC5 PUSH1 0x4 DUP1 CALLDATASIZE SUB DUP2 ADD SWAP1 PUSH2 0xC0 SWAP2 SWAP1 PUSH2 0x501 JUMP JUMPDEST PUSH2 0x2A1 JUMP JUMPDEST PUSH1 0x40 MLOAD PUSH2 0xD2 SWAP2 SWAP1 PUSH2 0x6F8 JUMP JUMPDEST PUSH1 0x40 MLOAD DUP1 SWAP2 SUB SWAP1 RETURN JUMPDEST PUSH2 0xF5 PUSH1 0x4 DUP1 CALLDATASIZE SUB DUP2 ADD SWAP1 PUSH2 0xF0 SWAP2 SWAP1 PUSH2 0x501 JUMP JUMPDEST PUSH2 0x2CF JUMP JUMPDEST STOP JUMPDEST PUSH2 0x111 PUSH1 0x4 DUP1 CALLDATASIZE SUB DUP2 ADD SWAP1 PUSH2 0x10C SWAP2 SWAP1 PUSH2 0x5CD JUMP JUMPDEST PUSH2 0x327 JUMP JUMPDEST PUSH1 0x40 MLOAD PUSH2 0x11E SWAP2 SWAP1 PUSH2 0x68A JUMP JUMPDEST PUSH1 0x40 MLOAD DUP1 SWAP2 SUB SWAP1 RETURN JUMPDEST PUSH1 0x0 PUSH1 0x40 MLOAD DUP1 PUSH1 0x80 ADD PUSH1 0x40 MSTORE DUP1 DUP7 DUP2 MSTORE PUSH1 0x20 ADD DUP6 DUP2 MSTORE PUSH1 0x20 ADD DUP5 DUP2 MSTORE PUSH1 0x20 ADD DUP4 DUP2 MSTORE POP SWAP1 DUP1 PUSH1 0x1 DUP2 SLOAD ADD DUP1 DUP3 SSTORE DUP1 SWAP2 POP POP PUSH1 0x1 SWAP1 SUB SWAP1 PUSH1 0x0 MSTORE PUSH1 0x20 PUSH1 0x0 KECCAK256 SWAP1 PUSH1 0x4 MUL ADD PUSH1 0x0 SWAP1 SWAP2 SWAP1 SWAP2 SWAP1 SWAP2 POP PUSH1 0x0 DUP3 ADD MLOAD DUP2 PUSH1 0x0 ADD SWAP1 DUP1 MLOAD SWAP1 PUSH1 0x20 ADD SWAP1 PUSH2 0x18F SWAP3 SWAP2 SWAP1 PUSH2 0x3D9 JUMP JUMPDEST POP PUSH1 0x20 DUP3 ADD MLOAD DUP2 PUSH1 0x1 ADD SSTORE PUSH1 0x40 DUP3 ADD MLOAD DUP2 PUSH1 0x2 ADD SSTORE PUSH1 0x60 DUP3 ADD MLOAD DUP2 PUSH1 0x3 ADD SSTORE POP POP DUP3 PUSH1 0x2 DUP6 PUSH1 0x40 MLOAD PUSH2 0x1C1 SWAP2 SWAP1 PUSH2 0x673 JUMP JUMPDEST SWAP1 DUP2 MSTORE PUSH1 0x20 ADD PUSH1 0x40 MLOAD DUP1 SWAP2 SUB SWAP1 KECCAK256 DUP2 SWAP1 SSTORE POP POP POP POP POP JUMP JUMPDEST PUSH1 0x0 DUP2 DUP2 SLOAD DUP2 LT PUSH2 0x1E9 JUMPI PUSH1 0x0 DUP1 REVERT JUMPDEST SWAP1 PUSH1 0x0 MSTORE PUSH1 0x20 PUSH1 0x0 KECCAK256 SWAP1 PUSH1 0x4 MUL ADD PUSH1 0x0 SWAP2 POP SWAP1 POP DUP1 PUSH1 0x0 ADD DUP1 SLOAD PUSH2 0x20C SWAP1 PUSH2 0x7DC JUMP JUMPDEST DUP1 PUSH1 0x1F ADD PUSH1 0x20 DUP1 SWAP2 DIV MUL PUSH1 0x20 ADD PUSH1 0x40 MLOAD SWAP1 DUP2 ADD PUSH1 0x40 MSTORE DUP1 SWAP3 SWAP2 SWAP1 DUP2 DUP2 MSTORE PUSH1 0x20 ADD DUP3 DUP1 SLOAD PUSH2 0x238 SWAP1 PUSH2 0x7DC JUMP JUMPDEST DUP1 ISZERO PUSH2 0x285 JUMPI DUP1 PUSH1 0x1F LT PUSH2 0x25A JUMPI PUSH2 0x100 DUP1 DUP4 SLOAD DIV MUL DUP4 MSTORE SWAP2 PUSH1 0x20 ADD SWAP2 PUSH2 0x285 JUMP JUMPDEST DUP3 ADD SWAP2 SWAP1 PUSH1 0x0 MSTORE PUSH1 0x20 PUSH1 0x0 KECCAK256 SWAP1 JUMPDEST DUP2 SLOAD DUP2 MSTORE SWAP1 PUSH1 0x1 ADD SWAP1 PUSH1 0x20 ADD DUP1 DUP4 GT PUSH2 0x268 JUMPI DUP3 SWAP1 SUB PUSH1 0x1F AND DUP3 ADD SWAP2 JUMPDEST POP POP POP POP POP SWAP1 DUP1 PUSH1 0x1 ADD SLOAD SWAP1 DUP1 PUSH1 0x2 ADD SLOAD SWAP1 DUP1 PUSH1 0x3 ADD SLOAD SWAP1 POP DUP5 JUMP JUMPDEST PUSH1 0x2 DUP2 DUP1 MLOAD PUSH1 0x20 DUP2 ADD DUP3 ADD DUP1 MLOAD DUP5 DUP3 MSTORE PUSH1 0x20 DUP4 ADD PUSH1 0x20 DUP6 ADD KECCAK256 DUP2 DUP4 MSTORE DUP1 SWAP6 POP POP POP POP POP POP PUSH1 0x0 SWAP2 POP SWAP1 POP SLOAD DUP2 JUMP JUMPDEST PUSH1 0x1 PUSH1 0x40 MLOAD DUP1 PUSH1 0x20 ADD PUSH1 0x40 MSTORE DUP1 DUP4 DUP2 MSTORE POP SWAP1 DUP1 PUSH1 0x1 DUP2 SLOAD ADD DUP1 DUP3 SSTORE DUP1 SWAP2 POP POP PUSH1 0x1 SWAP1 SUB SWAP1 PUSH1 0x0 MSTORE PUSH1 0x20 PUSH1 0x0 KECCAK256 ADD PUSH1 0x0 SWAP1 SWAP2 SWAP1 SWAP2 SWAP1 SWAP2 POP PUSH1 0x0 DUP3 ADD MLOAD DUP2 PUSH1 0x0 ADD SWAP1 DUP1 MLOAD SWAP1 PUSH1 0x20 ADD SWAP1 PUSH2 0x321 SWAP3 SWAP2 SWAP1 PUSH2 0x3D9 JUMP JUMPDEST POP POP POP POP JUMP JUMPDEST PUSH1 0x1 DUP2 DUP2 SLOAD DUP2 LT PUSH2 0x337 JUMPI PUSH1 0x0 DUP1 REVERT JUMPDEST SWAP1 PUSH1 0x0 MSTORE PUSH1 0x20 PUSH1 0x0 KECCAK256 ADD PUSH1 0x0 SWAP2 POP SWAP1 POP DUP1 PUSH1 0x0 ADD DUP1 SLOAD PUSH2 0x356 SWAP1 PUSH2 0x7DC JUMP JUMPDEST DUP1 PUSH1 0x1F ADD PUSH1 0x20 DUP1 SWAP2 DIV MUL PUSH1 0x20 ADD PUSH1 0x40 MLOAD SWAP1 DUP2 ADD PUSH1 0x40 MSTORE DUP1 SWAP3 SWAP2 SWAP1 DUP2 DUP2 MSTORE PUSH1 0x20 ADD DUP3 DUP1 SLOAD PUSH2 0x382 SWAP1 PUSH2 0x7DC JUMP JUMPDEST DUP1 ISZERO PUSH2 0x3CF JUMPI DUP1 PUSH1 0x1F LT PUSH2 0x3A4 JUMPI PUSH2 0x100 DUP1 DUP4 SLOAD DIV MUL DUP4 MSTORE SWAP2 PUSH1 0x20 ADD SWAP2 PUSH2 0x3CF JUMP JUMPDEST DUP3 ADD SWAP2 SWAP1 PUSH1 0x0 MSTORE PUSH1 0x20 PUSH1 0x0 KECCAK256 SWAP1 JUMPDEST DUP2 SLOAD DUP2 MSTORE SWAP1 PUSH1 0x1 ADD SWAP1 PUSH1 0x20 ADD DUP1 DUP4 GT PUSH2 0x3B2 JUMPI DUP3 SWAP1 SUB PUSH1 0x1F AND DUP3 ADD SWAP2 JUMPDEST POP POP POP POP POP SWAP1 POP DUP2 JUMP JUMPDEST DUP3 DUP1 SLOAD PUSH2 0x3E5 SWAP1 PUSH2 0x7DC JUMP JUMPDEST SWAP1 PUSH1 0x0 MSTORE PUSH1 0x20 PUSH1 0x0 KECCAK256 SWAP1 PUSH1 0x1F ADD PUSH1 0x20 SWAP1 DIV DUP2 ADD SWAP3 DUP3 PUSH2 0x407 JUMPI PUSH1 0x0 DUP6 SSTORE PUSH2 0x44E JUMP JUMPDEST DUP3 PUSH1 0x1F LT PUSH2 0x420 JUMPI DUP1 MLOAD PUSH1 0xFF NOT AND DUP4 DUP1 ADD OR DUP6 SSTORE PUSH2 0x44E JUMP JUMPDEST DUP3 DUP1 ADD PUSH1 0x1 ADD DUP6 SSTORE DUP3 ISZERO PUSH2 0x44E JUMPI SWAP2 DUP3 ADD JUMPDEST DUP3 DUP2 GT ISZERO PUSH2 0x44D JUMPI DUP3 MLOAD DUP3 SSTORE SWAP2 PUSH1 0x20 ADD SWAP2 SWAP1 PUSH1 0x1 ADD SWAP1 PUSH2 0x432 JUMP JUMPDEST JUMPDEST POP SWAP1 POP PUSH2 0x45B SWAP2 SWAP1 PUSH2 0x45F JUMP JUMPDEST POP SWAP1 JUMP JUMPDEST JUMPDEST DUP1 DUP3 GT ISZERO PUSH2 0x478 JUMPI PUSH1 0x0 DUP2 PUSH1 0x0 SWAP1 SSTORE POP PUSH1 0x1 ADD PUSH2 0x460 JUMP JUMPDEST POP SWAP1 JUMP JUMPDEST PUSH1 0x0 PUSH2 0x48F PUSH2 0x48A DUP5 PUSH2 0x738 JUMP JUMPDEST PUSH2 0x713 JUMP JUMPDEST SWAP1 POP DUP3 DUP2 MSTORE PUSH1 0x20 DUP2 ADD DUP5 DUP5 DUP5 ADD GT ISZERO PUSH2 0x4AB JUMPI PUSH2 0x4AA PUSH2 0x8A2 JUMP JUMPDEST JUMPDEST PUSH2 0x4B6 DUP5 DUP3 DUP6 PUSH2 0x79A JUMP JUMPDEST POP SWAP4 SWAP3 POP POP POP JUMP JUMPDEST PUSH1 0x0 DUP3 PUSH1 0x1F DUP4 ADD SLT PUSH2 0x4D3 JUMPI PUSH2 0x4D2 PUSH2 0x89D JUMP JUMPDEST JUMPDEST DUP2 CALLDATALOAD PUSH2 0x4E3 DUP5 DUP3 PUSH1 0x20 DUP7 ADD PUSH2 0x47C JUMP JUMPDEST SWAP2 POP POP SWAP3 SWAP2 POP POP JUMP JUMPDEST PUSH1 0x0 DUP2 CALLDATALOAD SWAP1 POP PUSH2 0x4FB DUP2 PUSH2 0x8C2 JUMP JUMPDEST SWAP3 SWAP2 POP POP JUMP JUMPDEST PUSH1 0x0 PUSH1 0x20 DUP3 DUP5 SUB SLT ISZERO PUSH2 0x517 JUMPI PUSH2 0x516 PUSH2 0x8AC JUMP JUMPDEST JUMPDEST PUSH1 0x0 DUP3 ADD CALLDATALOAD PUSH8 0xFFFFFFFFFFFFFFFF DUP2 GT ISZERO PUSH2 0x535 JUMPI PUSH2 0x534 PUSH2 0x8A7 JUMP JUMPDEST JUMPDEST PUSH2 0x541 DUP5 DUP3 DUP6 ADD PUSH2 0x4BE JUMP JUMPDEST SWAP2 POP POP SWAP3 SWAP2 POP POP JUMP JUMPDEST PUSH1 0x0 DUP1 PUSH1 0x0 DUP1 PUSH1 0x80 DUP6 DUP8 SUB SLT ISZERO PUSH2 0x564 JUMPI PUSH2 0x563 PUSH2 0x8AC JUMP JUMPDEST JUMPDEST PUSH1 0x0 DUP6 ADD CALLDATALOAD PUSH8 0xFFFFFFFFFFFFFFFF DUP2 GT ISZERO PUSH2 0x582 JUMPI PUSH2 0x581 PUSH2 0x8A7 JUMP JUMPDEST JUMPDEST PUSH2 0x58E DUP8 DUP3 DUP9 ADD PUSH2 0x4BE JUMP JUMPDEST SWAP5 POP POP PUSH1 0x20 PUSH2 0x59F DUP8 DUP3 DUP9 ADD PUSH2 0x4EC JUMP JUMPDEST SWAP4 POP POP PUSH1 0x40 PUSH2 0x5B0 DUP8 DUP3 DUP9 ADD PUSH2 0x4EC JUMP JUMPDEST SWAP3 POP POP PUSH1 0x60 PUSH2 0x5C1 DUP8 DUP3 DUP9 ADD PUSH2 0x4EC JUMP JUMPDEST SWAP2 POP POP SWAP3 SWAP6 SWAP2 SWAP5 POP SWAP3 POP JUMP JUMPDEST PUSH1 0x0 PUSH1 0x20 DUP3 DUP5 SUB SLT ISZERO PUSH2 0x5E3 JUMPI PUSH2 0x5E2 PUSH2 0x8AC JUMP JUMPDEST JUMPDEST PUSH1 0x0 PUSH2 0x5F1 DUP5 DUP3 DUP6 ADD PUSH2 0x4EC JUMP JUMPDEST SWAP2 POP POP SWAP3 SWAP2 POP POP JUMP JUMPDEST PUSH1 0x0 PUSH2 0x605 DUP3 PUSH2 0x769 JUMP JUMPDEST PUSH2 0x60F DUP2 DUP6 PUSH2 0x774 JUMP JUMPDEST SWAP4 POP PUSH2 0x61F DUP2 DUP6 PUSH1 0x20 DUP7 ADD PUSH2 0x7A9 JUMP JUMPDEST PUSH2 0x628 DUP2 PUSH2 0x8B1 JUMP JUMPDEST DUP5 ADD SWAP2 POP POP SWAP3 SWAP2 POP POP JUMP JUMPDEST PUSH1 0x0 PUSH2 0x63E DUP3 PUSH2 0x769 JUMP JUMPDEST PUSH2 0x648 DUP2 DUP6 PUSH2 0x785 JUMP JUMPDEST SWAP4 POP PUSH2 0x658 DUP2 DUP6 PUSH1 0x20 DUP7 ADD PUSH2 0x7A9 JUMP JUMPDEST DUP1 DUP5 ADD SWAP2 POP POP SWAP3 SWAP2 POP POP JUMP JUMPDEST PUSH2 0x66D DUP2 PUSH2 0x790 JUMP JUMPDEST DUP3 MSTORE POP POP JUMP JUMPDEST PUSH1 0x0 PUSH2 0x67F DUP3 DUP5 PUSH2 0x633 JUMP JUMPDEST SWAP2 POP DUP2 SWAP1 POP SWAP3 SWAP2 POP POP JUMP JUMPDEST PUSH1 0x0 PUSH1 0x20 DUP3 ADD SWAP1 POP DUP2 DUP2 SUB PUSH1 0x0 DUP4 ADD MSTORE PUSH2 0x6A4 DUP2 DUP5 PUSH2 0x5FA JUMP JUMPDEST SWAP1 POP SWAP3 SWAP2 POP POP JUMP JUMPDEST PUSH1 0x0 PUSH1 0x80 DUP3 ADD SWAP1 POP DUP2 DUP2 SUB PUSH1 0x0 DUP4 ADD MSTORE PUSH2 0x6C6 DUP2 DUP8 PUSH2 0x5FA JUMP JUMPDEST SWAP1 POP PUSH2 0x6D5 PUSH1 0x20 DUP4 ADD DUP7 PUSH2 0x664 JUMP JUMPDEST PUSH2 0x6E2 PUSH1 0x40 DUP4 ADD DUP6 PUSH2 0x664 JUMP JUMPDEST PUSH2 0x6EF PUSH1 0x60 DUP4 ADD DUP5 PUSH2 0x664 JUMP JUMPDEST SWAP6 SWAP5 POP POP POP POP POP JUMP JUMPDEST PUSH1 0x0 PUSH1 0x20 DUP3 ADD SWAP1 POP PUSH2 0x70D PUSH1 0x0 DUP4 ADD DUP5 PUSH2 0x664 JUMP JUMPDEST SWAP3 SWAP2 POP POP JUMP JUMPDEST PUSH1 0x0 PUSH2 0x71D PUSH2 0x72E JUMP JUMPDEST SWAP1 POP PUSH2 0x729 DUP3 DUP3 PUSH2 0x80E JUMP JUMPDEST SWAP2 SWAP1 POP JUMP JUMPDEST PUSH1 0x0 PUSH1 0x40 MLOAD SWAP1 POP SWAP1 JUMP JUMPDEST PUSH1 0x0 PUSH8 0xFFFFFFFFFFFFFFFF DUP3 GT ISZERO PUSH2 0x753 JUMPI PUSH2 0x752 PUSH2 0x86E JUMP JUMPDEST JUMPDEST PUSH2 0x75C DUP3 PUSH2 0x8B1 JUMP JUMPDEST SWAP1 POP PUSH1 0x20 DUP2 ADD SWAP1 POP SWAP2 SWAP1 POP JUMP JUMPDEST PUSH1 0x0 DUP2 MLOAD SWAP1 POP SWAP2 SWAP1 POP JUMP JUMPDEST PUSH1 0x0 DUP3 DUP3 MSTORE PUSH1 0x20 DUP3 ADD SWAP1 POP SWAP3 SWAP2 POP POP JUMP JUMPDEST PUSH1 0x0 DUP2 SWAP1 POP SWAP3 SWAP2 POP POP JUMP JUMPDEST PUSH1 0x0 DUP2 SWAP1 POP SWAP2 SWAP1 POP JUMP JUMPDEST DUP3 DUP2 DUP4 CALLDATACOPY PUSH1 0x0 DUP4 DUP4 ADD MSTORE POP POP POP JUMP JUMPDEST PUSH1 0x0 JUMPDEST DUP4 DUP2 LT ISZERO PUSH2 0x7C7 JUMPI DUP1 DUP3 ADD MLOAD DUP2 DUP5 ADD MSTORE PUSH1 0x20 DUP2 ADD SWAP1 POP PUSH2 0x7AC JUMP JUMPDEST DUP4 DUP2 GT ISZERO PUSH2 0x7D6 JUMPI PUSH1 0x0 DUP5 DUP5 ADD MSTORE JUMPDEST POP POP POP POP JUMP JUMPDEST PUSH1 0x0 PUSH1 0x2 DUP3 DIV SWAP1 POP PUSH1 0x1 DUP3 AND DUP1 PUSH2 0x7F4 JUMPI PUSH1 0x7F DUP3 AND SWAP2 POP JUMPDEST PUSH1 0x20 DUP3 LT DUP2 EQ ISZERO PUSH2 0x808 JUMPI PUSH2 0x807 PUSH2 0x83F JUMP JUMPDEST JUMPDEST POP SWAP2 SWAP1 POP JUMP JUMPDEST PUSH2 0x817 DUP3 PUSH2 0x8B1 JUMP JUMPDEST DUP2 ADD DUP2 DUP2 LT PUSH8 0xFFFFFFFFFFFFFFFF DUP3 GT OR ISZERO PUSH2 0x836 JUMPI PUSH2 0x835 PUSH2 0x86E JUMP JUMPDEST JUMPDEST DUP1 PUSH1 0x40 MSTORE POP POP POP JUMP JUMPDEST PUSH32 0x4E487B7100000000000000000000000000000000000000000000000000000000 PUSH1 0x0 MSTORE PUSH1 0x22 PUSH1 0x4 MSTORE PUSH1 0x24 PUSH1 0x0 REVERT JUMPDEST PUSH32 0x4E487B7100000000000000000000000000000000000000000000000000000000 PUSH1 0x0 MSTORE PUSH1 0x41 PUSH1 0x4 MSTORE PUSH1 0x24 PUSH1 0x0 REVERT JUMPDEST PUSH1 0x0 DUP1 REVERT JUMPDEST PUSH1 0x0 DUP1 REVERT JUMPDEST PUSH1 0x0 DUP1 REVERT JUMPDEST PUSH1 0x0 DUP1 REVERT JUMPDEST PUSH1 0x0 PUSH1 0x1F NOT PUSH1 0x1F DUP4 ADD AND SWAP1 POP SWAP2 SWAP1 POP JUMP JUMPDEST PUSH2 0x8CB DUP2 PUSH2 0x790 JUMP JUMPDEST DUP2 EQ PUSH2 0x8D6 JUMPI PUSH1 0x0 DUP1 REVERT JUMPDEST POP JUMP INVALID LOG2 PUSH5 0x6970667358 0x22 SLT KECCAK256 PUSH12 0x27FD5449B5FEDEAF96238117 MSTORE8 0xEC 0xAC 0xEC LOG0 0x1E 0xD9 0xF9 0xBE 0xAF 0x24 BALANCE SWAP7 0xA6 DELEGATECALL 0x2F 0x4B SWAP14 0x2E PUSH5 0x736F6C6343 STOP ADDMOD SMOD STOP CALLER "
				},
				"gasEstimates": {
					"creation": {
						"codeDepositCost": "463800",
						"executionCost": "499",
						"totalCost": "464299"
					},
					"external": {
						"addCourseInformation(string)": "infinite",
						"addHole(string,uint256,uint256,uint256)": "infinite",
						"courseName(uint256)": "infinite",
						"hole(uint256)": "infinite",
						"holeToPinPosition(string)": "infinite"
					}
				},
				"methodIdentifiers": {
					"addCourseInformation(string)": "c0bf9eaa",
					"addHole(string,uint256,uint256,uint256)": "9c40480d",
					"courseName(uint256)": "f44fa750",
					"hole(uint256)": "9d2614e5",
					"holeToPinPosition(string)": "b70934fc"
				}
			},
			"storageLayout": {
				"storage": [
					{
						"astId": 23,
						"contract": "contracts/Course.sol:Course",
						"label": "hole",
						"offset": 0,
						"slot": "0",
						"type": "t_array(t_struct(Hole)40_storage)dyn_storage"
					},
					{
						"astId": 27,
						"contract": "contracts/Course.sol:Course",
						"label": "courseName",
						"offset": 0,
						"slot": "1",
						"type": "t_array(t_struct(CourseInformation)19_storage)dyn_storage"
					},
					{
						"astId": 31,
						"contract": "contracts/Course.sol:Course",
						"label": "holeToPinPosition",
						"offset": 0,
						"slot": "2",
						"type": "t_mapping(t_string_memory_ptr,t_uint256)"
					}
				],
				"types": {
					"t_array(t_struct(CourseInformation)19_storage)dyn_storage": {
						"base": "t_struct(CourseInformation)19_storage",
						"encoding": "dynamic_array",
						"label": "struct Course.CourseInformation[]",
						"numberOfBytes": "32"
					},
					"t_array(t_struct(Hole)40_storage)dyn_storage": {
						"base": "t_struct(Hole)40_storage",
						"encoding": "dynamic_array",
						"label": "struct Course.Hole[]",
						"numberOfBytes": "32"
					},
					"t_mapping(t_string_memory_ptr,t_uint256)": {
						"encoding": "mapping",
						"key": "t_string_memory_ptr",
						"label": "mapping(string => uint256)",
						"numberOfBytes": "32",
						"value": "t_uint256"
					},
					"t_string_memory_ptr": {
						"encoding": "bytes",
						"label": "string",
						"numberOfBytes": "32"
					},
					"t_string_storage": {
						"encoding": "bytes",
						"label": "string",
						"numberOfBytes": "32"
					},
					"t_struct(CourseInformation)19_storage": {
						"encoding": "inplace",
						"label": "struct Course.CourseInformation",
						"members": [
							{
								"astId": 18,
								"contract": "contracts/Course.sol:Course",
								"label": "courseName",
								"offset": 0,
								"slot": "0",
								"type": "t_string_storage"
							}
						],
						"numberOfBytes": "32"
					},
					"t_struct(Hole)40_storage": {
						"encoding": "inplace",
						"label": "struct Course.Hole",
						"members": [
							{
								"astId": 33,
								"contract": "contracts/Course.sol:Course",
								"label": "name",
								"offset": 0,
								"slot": "0",
								"type": "t_string_storage"
							},
							{
								"astId": 35,
								"contract": "contracts/Course.sol:Course",
								"label": "pinPosition",
								"offset": 0,
								"slot": "1",
								"type": "t_uint256"
							},
							{
								"astId": 37,
								"contract": "contracts/Course.sol:Course",
								"label": "rating",
								"offset": 0,
								"slot": "2",
								"type": "t_uint256"
							},
							{
								"astId": 39,
								"contract": "contracts/Course.sol:Course",
								"label": "holeNumber",
								"offset": 0,
								"slot": "3",
								"type": "t_uint256"
							}
						],
						"numberOfBytes": "128"
					},
					"t_uint256": {
						"encoding": "inplace",
						"label": "uint256",
						"numberOfBytes": "32"
					}
				}
			},
			"userdoc": {
				"kind": "user",
				"methods": {},
				"notice": "A Course contract that holds a buleprint for a course",
				"version": 1
			}
		}
	}
}